{
	"compilerInput": "{\"language\":\"Solidity\",\"sources\":{\"contracts/mysmartcontract.sol\":{\"content\":\"pragma solidity ^0.8.0;\\r\\n\\r\\ncontract SupplyChain {\\r\\n    struct Product {\\r\\n        uint id;\\r\\n        string name;\\r\\n        uint quantity;\\r\\n    }\\r\\n\\r\\n    struct Transaction {\\r\\n        uint productId;\\r\\n        uint quantity;\\r\\n        string action; // \\\"import\\\" or \\\"export\\\"\\r\\n        uint timestamp;\\r\\n    }\\r\\n\\r\\n    mapping(uint => Product) public products;\\r\\n    mapping(uint => Transaction[]) public productTransactions;\\r\\n    uint public productCount;\\r\\n\\r\\n    event ProductAdded(uint productId, string name, uint quantity);\\r\\n    event ProductUpdated(uint productId, string name, uint quantity);\\r\\n    event TransactionRecorded(uint productId, uint quantity, string action, uint timestamp);\\r\\n\\r\\n    function addProduct(string memory name, uint quantity) public {\\r\\n        productCount++;\\r\\n        products[productCount] = Product(productCount, name, quantity);\\r\\n        \\r\\n        emit ProductAdded(productCount, name, quantity);\\r\\n    }\\r\\n\\r\\n    function updateProduct(uint id, uint quantity, string memory action) public {\\r\\n        Product storage product = products[id];\\r\\n        if (keccak256(abi.encodePacked(action)) == keccak256(abi.encodePacked(\\\"import\\\"))) {\\r\\n            product.quantity += quantity;\\r\\n        } else if (keccak256(abi.encodePacked(action)) == keccak256(abi.encodePacked(\\\"export\\\"))) {\\r\\n            require(product.quantity >= quantity, \\\"Insufficient stock\\\");\\r\\n            product.quantity -= quantity;\\r\\n        }\\r\\n        \\r\\n        // Lưu lại lịch sử giao dịch\\r\\n        productTransactions[id].push(Transaction(id, quantity, action, block.timestamp));\\r\\n        \\r\\n        emit ProductUpdated(id, product.name, product.quantity);\\r\\n        emit TransactionRecorded(id, quantity, action, block.timestamp);\\r\\n    }\\r\\n\\r\\n    function getProduct(uint id) public view returns (string memory name, uint quantity) {\\r\\n        Product memory product = products[id];\\r\\n        return (product.name, product.quantity);\\r\\n    }\\r\\n\\r\\n    function getProductTransactions(uint id) public view returns (Transaction[] memory) {\\r\\n        return productTransactions[id];\\r\\n    }\\r\\n}\\r\\n\"}},\"settings\":{\"optimizer\":{\"enabled\":false,\"runs\":200},\"outputSelection\":{\"*\":{\"\":[\"ast\"],\"*\":[\"abi\",\"metadata\",\"devdoc\",\"userdoc\",\"storageLayout\",\"evm.legacyAssembly\",\"evm.bytecode\",\"evm.deployedBytecode\",\"evm.methodIdentifiers\",\"evm.gasEstimates\",\"evm.assembly\"]}},\"remappings\":[]}}",
	"name": "SupplyChain",
	"bytecode": {
		"linkReferences": {},
		"object": "6080604052348015600e575f80fd5b5061138b8061001c5f395ff3fe608060405234801561000f575f80fd5b506004361061007b575f3560e01c80639ab2dfa3116100595780639ab2dfa314610100578063b15247d914610130578063b9db15b41461014c578063e0f6ef871461017d5761007b565b8063259132d41461007f5780637acc0b20146100b257806399af9c03146100e4575b5f80fd5b61009960048036038101906100949190610848565b61019b565b6040516100a99493929190610905565b60405180910390f35b6100cc60048036038101906100c7919061094f565b610267565b6040516100db9392919061097a565b60405180910390f35b6100fe60048036038101906100f99190610ae2565b610312565b005b61011a6004803603810190610115919061094f565b61055a565b6040516101279190610cc0565b60405180910390f35b61014a60048036038101906101459190610ce0565b610674565b005b6101666004803603810190610161919061094f565b610726565b604051610174929190610d3a565b60405180910390f35b6101856107fe565b6040516101929190610d68565b60405180910390f35b6001602052815f5260405f2081815481106101b4575f80fd5b905f5260205f2090600402015f9150915050805f0154908060010154908060020180546101e090610dae565b80601f016020809104026020016040519081016040528092919081815260200182805461020c90610dae565b80156102575780601f1061022e57610100808354040283529160200191610257565b820191905f5260205f20905b81548152906001019060200180831161023a57829003601f168201915b5050505050908060030154905084565b5f602052805f5260405f205f91509050805f01549080600101805461028b90610dae565b80601f01602080910402602001604051908101604052809291908181526020018280546102b790610dae565b80156103025780601f106102d957610100808354040283529160200191610302565b820191905f5260205f20905b8154815290600101906020018083116102e557829003601f168201915b5050505050908060020154905083565b5f805f8581526020019081526020015f20905060405160200161033490610e32565b604051602081830303815290604052805190602001208260405160200161035b9190610e76565b60405160208183030381529060405280519060200120036103955782816002015f8282546103899190610eb9565b92505081905550610449565b6040516020016103a490610f36565b60405160208183030381529060405280519060200120826040516020016103cb9190610e76565b604051602081830303815290604052805190602001200361044857828160020154101561042d576040517f08c379a000000000000000000000000000000000000000000000000000000000815260040161042490610f94565b60405180910390fd5b82816002015f8282546104409190610fb2565b925050819055505b5b60015f8581526020019081526020015f20604051806080016040528086815260200185815260200184815260200142815250908060018154018082558091505060019003905f5260205f2090600402015f909190919091505f820151815f01556020820151816001015560408201518160020190816104c89190611182565b506060820151816003015550507ff9b1d9170fbe32752353e00d62e5276b143166c75aa974030dddfac2895601fe8482600101836002015460405161050f939291906112d2565b60405180910390a17f268d9aef58e041132c5baa4fe6f6c996e361d5516700ec40fb69100fc654068f8484844260405161054c9493929190610905565b60405180910390a150505050565b606060015f8381526020019081526020015f20805480602002602001604051908101604052809291908181526020015f905b82821015610669578382905f5260205f2090600402016040518060800160405290815f8201548152602001600182015481526020016002820180546105d090610dae565b80601f01602080910402602001604051908101604052809291908181526020018280546105fc90610dae565b80156106475780601f1061061e57610100808354040283529160200191610647565b820191905f5260205f20905b81548152906001019060200180831161062a57829003601f168201915b505050505081526020016003820154815250508152602001906001019061058c565b505050509050919050565b60025f8154809291906106869061130e565b919050555060405180606001604052806002548152602001838152602001828152505f8060025481526020019081526020015f205f820151815f015560208201518160010190816106d79190611182565b50604082015181600201559050507fcca07c742c5274e8b72111ba69566aa4442450bfc50bd897ea38d0170d1accfc600254838360405161071a9392919061097a565b60405180910390a15050565b60605f805f808581526020019081526020015f206040518060600160405290815f820154815260200160018201805461075e90610dae565b80601f016020809104026020016040519081016040528092919081815260200182805461078a90610dae565b80156107d55780601f106107ac576101008083540402835291602001916107d5565b820191905f5260205f20905b8154815290600101906020018083116107b857829003601f168201915b505050505081526020016002820154815250509050806020015181604001519250925050915091565b60025481565b5f604051905090565b5f80fd5b5f80fd5b5f819050919050565b61082781610815565b8114610831575f80fd5b50565b5f813590506108428161081e565b92915050565b5f806040838503121561085e5761085d61080d565b5b5f61086b85828601610834565b925050602061087c85828601610834565b9150509250929050565b61088f81610815565b82525050565b5f81519050919050565b5f82825260208201905092915050565b8281835e5f83830152505050565b5f601f19601f8301169050919050565b5f6108d782610895565b6108e1818561089f565b93506108f18185602086016108af565b6108fa816108bd565b840191505092915050565b5f6080820190506109185f830187610886565b6109256020830186610886565b818103604083015261093781856108cd565b90506109466060830184610886565b95945050505050565b5f602082840312156109645761096361080d565b5b5f61097184828501610834565b91505092915050565b5f60608201905061098d5f830186610886565b818103602083015261099f81856108cd565b90506109ae6040830184610886565b949350505050565b5f80fd5b5f80fd5b7f4e487b71000000000000000000000000000000000000000000000000000000005f52604160045260245ffd5b6109f4826108bd565b810181811067ffffffffffffffff82111715610a1357610a126109be565b5b80604052505050565b5f610a25610804565b9050610a3182826109eb565b919050565b5f67ffffffffffffffff821115610a5057610a4f6109be565b5b610a59826108bd565b9050602081019050919050565b828183375f83830152505050565b5f610a86610a8184610a36565b610a1c565b905082815260208101848484011115610aa257610aa16109ba565b5b610aad848285610a66565b509392505050565b5f82601f830112610ac957610ac86109b6565b5b8135610ad9848260208601610a74565b91505092915050565b5f805f60608486031215610af957610af861080d565b5b5f610b0686828701610834565b9350506020610b1786828701610834565b925050604084013567ffffffffffffffff811115610b3857610b37610811565b5b610b4486828701610ab5565b9150509250925092565b5f81519050919050565b5f82825260208201905092915050565b5f819050602082019050919050565b610b8081610815565b82525050565b5f82825260208201905092915050565b5f610ba082610895565b610baa8185610b86565b9350610bba8185602086016108af565b610bc3816108bd565b840191505092915050565b5f608083015f830151610be35f860182610b77565b506020830151610bf66020860182610b77565b5060408301518482036040860152610c0e8282610b96565b9150506060830151610c236060860182610b77565b508091505092915050565b5f610c398383610bce565b905092915050565b5f602082019050919050565b5f610c5782610b4e565b610c618185610b58565b935083602082028501610c7385610b68565b805f5b85811015610cae5784840389528151610c8f8582610c2e565b9450610c9a83610c41565b925060208a01995050600181019050610c76565b50829750879550505050505092915050565b5f6020820190508181035f830152610cd88184610c4d565b905092915050565b5f8060408385031215610cf657610cf561080d565b5b5f83013567ffffffffffffffff811115610d1357610d12610811565b5b610d1f85828601610ab5565b9250506020610d3085828601610834565b9150509250929050565b5f6040820190508181035f830152610d5281856108cd565b9050610d616020830184610886565b9392505050565b5f602082019050610d7b5f830184610886565b92915050565b7f4e487b71000000000000000000000000000000000000000000000000000000005f52602260045260245ffd5b5f6002820490506001821680610dc557607f821691505b602082108103610dd857610dd7610d81565b5b50919050565b5f81905092915050565b7f696d706f727400000000000000000000000000000000000000000000000000005f82015250565b5f610e1c600683610dde565b9150610e2782610de8565b600682019050919050565b5f610e3c82610e10565b9150819050919050565b5f610e5082610895565b610e5a8185610dde565b9350610e6a8185602086016108af565b80840191505092915050565b5f610e818284610e46565b915081905092915050565b7f4e487b71000000000000000000000000000000000000000000000000000000005f52601160045260245ffd5b5f610ec382610815565b9150610ece83610815565b9250828201905080821115610ee657610ee5610e8c565b5b92915050565b7f6578706f727400000000000000000000000000000000000000000000000000005f82015250565b5f610f20600683610dde565b9150610f2b82610eec565b600682019050919050565b5f610f4082610f14565b9150819050919050565b7f496e73756666696369656e742073746f636b00000000000000000000000000005f82015250565b5f610f7e60128361089f565b9150610f8982610f4a565b602082019050919050565b5f6020820190508181035f830152610fab81610f72565b9050919050565b5f610fbc82610815565b9150610fc783610815565b9250828203905081811115610fdf57610fde610e8c565b5b92915050565b5f819050815f5260205f209050919050565b5f6020601f8301049050919050565b5f82821b905092915050565b5f600883026110417fffffffffffffffffffffffffffffffffffffffffffffffffffffffffffffffff82611006565b61104b8683611006565b95508019841693508086168417925050509392505050565b5f819050919050565b5f61108661108161107c84610815565b611063565b610815565b9050919050565b5f819050919050565b61109f8361106c565b6110b36110ab8261108d565b848454611012565b825550505050565b5f90565b6110c76110bb565b6110d2818484611096565b505050565b5b818110156110f5576110ea5f826110bf565b6001810190506110d8565b5050565b601f82111561113a5761110b81610fe5565b61111484610ff7565b81016020851015611123578190505b61113761112f85610ff7565b8301826110d7565b50505b505050565b5f82821c905092915050565b5f61115a5f198460080261113f565b1980831691505092915050565b5f611172838361114b565b9150826002028217905092915050565b61118b82610895565b67ffffffffffffffff8111156111a4576111a36109be565b5b6111ae8254610dae565b6111b98282856110f9565b5f60209050601f8311600181146111ea575f84156111d8578287015190505b6111e28582611167565b865550611249565b601f1984166111f886610fe5565b5f5b8281101561121f578489015182556001820191506020850194506020810190506111fa565b8683101561123c5784890151611238601f89168261114b565b8355505b6001600288020188555050505b505050505050565b5f815461125d81610dae565b611267818661089f565b9450600182165f81146112815760018114611297576112c9565b60ff1983168652811515602002860193506112c9565b6112a085610fe5565b5f5b838110156112c1578154818901526001820191506020810190506112a2565b808801955050505b50505092915050565b5f6060820190506112e55f830186610886565b81810360208301526112f78185611251565b90506113066040830184610886565b949350505050565b5f61131882610815565b91507fffffffffffffffffffffffffffffffffffffffffffffffffffffffffffffffff820361134a57611349610e8c565b5b60018201905091905056fea2646970667358221220d058acb217f449a02a4cb235b542e66ee6e849c5c20c2dc3c1993a5475657fbd64736f6c634300081a0033",
		"opcodes": "PUSH1 0x80 PUSH1 0x40 MSTORE CALLVALUE DUP1 ISZERO PUSH1 0xE JUMPI PUSH0 DUP1 REVERT JUMPDEST POP PUSH2 0x138B DUP1 PUSH2 0x1C PUSH0 CODECOPY PUSH0 RETURN INVALID PUSH1 0x80 PUSH1 0x40 MSTORE CALLVALUE DUP1 ISZERO PUSH2 0xF JUMPI PUSH0 DUP1 REVERT JUMPDEST POP PUSH1 0x4 CALLDATASIZE LT PUSH2 0x7B JUMPI PUSH0 CALLDATALOAD PUSH1 0xE0 SHR DUP1 PUSH4 0x9AB2DFA3 GT PUSH2 0x59 JUMPI DUP1 PUSH4 0x9AB2DFA3 EQ PUSH2 0x100 JUMPI DUP1 PUSH4 0xB15247D9 EQ PUSH2 0x130 JUMPI DUP1 PUSH4 0xB9DB15B4 EQ PUSH2 0x14C JUMPI DUP1 PUSH4 0xE0F6EF87 EQ PUSH2 0x17D JUMPI PUSH2 0x7B JUMP JUMPDEST DUP1 PUSH4 0x259132D4 EQ PUSH2 0x7F JUMPI DUP1 PUSH4 0x7ACC0B20 EQ PUSH2 0xB2 JUMPI DUP1 PUSH4 0x99AF9C03 EQ PUSH2 0xE4 JUMPI JUMPDEST PUSH0 DUP1 REVERT JUMPDEST PUSH2 0x99 PUSH1 0x4 DUP1 CALLDATASIZE SUB DUP2 ADD SWAP1 PUSH2 0x94 SWAP2 SWAP1 PUSH2 0x848 JUMP JUMPDEST PUSH2 0x19B JUMP JUMPDEST PUSH1 0x40 MLOAD PUSH2 0xA9 SWAP5 SWAP4 SWAP3 SWAP2 SWAP1 PUSH2 0x905 JUMP JUMPDEST PUSH1 0x40 MLOAD DUP1 SWAP2 SUB SWAP1 RETURN JUMPDEST PUSH2 0xCC PUSH1 0x4 DUP1 CALLDATASIZE SUB DUP2 ADD SWAP1 PUSH2 0xC7 SWAP2 SWAP1 PUSH2 0x94F JUMP JUMPDEST PUSH2 0x267 JUMP JUMPDEST PUSH1 0x40 MLOAD PUSH2 0xDB SWAP4 SWAP3 SWAP2 SWAP1 PUSH2 0x97A JUMP JUMPDEST PUSH1 0x40 MLOAD DUP1 SWAP2 SUB SWAP1 RETURN JUMPDEST PUSH2 0xFE PUSH1 0x4 DUP1 CALLDATASIZE SUB DUP2 ADD SWAP1 PUSH2 0xF9 SWAP2 SWAP1 PUSH2 0xAE2 JUMP JUMPDEST PUSH2 0x312 JUMP JUMPDEST STOP JUMPDEST PUSH2 0x11A PUSH1 0x4 DUP1 CALLDATASIZE SUB DUP2 ADD SWAP1 PUSH2 0x115 SWAP2 SWAP1 PUSH2 0x94F JUMP JUMPDEST PUSH2 0x55A JUMP JUMPDEST PUSH1 0x40 MLOAD PUSH2 0x127 SWAP2 SWAP1 PUSH2 0xCC0 JUMP JUMPDEST PUSH1 0x40 MLOAD DUP1 SWAP2 SUB SWAP1 RETURN JUMPDEST PUSH2 0x14A PUSH1 0x4 DUP1 CALLDATASIZE SUB DUP2 ADD SWAP1 PUSH2 0x145 SWAP2 SWAP1 PUSH2 0xCE0 JUMP JUMPDEST PUSH2 0x674 JUMP JUMPDEST STOP JUMPDEST PUSH2 0x166 PUSH1 0x4 DUP1 CALLDATASIZE SUB DUP2 ADD SWAP1 PUSH2 0x161 SWAP2 SWAP1 PUSH2 0x94F JUMP JUMPDEST PUSH2 0x726 JUMP JUMPDEST PUSH1 0x40 MLOAD PUSH2 0x174 SWAP3 SWAP2 SWAP1 PUSH2 0xD3A JUMP JUMPDEST PUSH1 0x40 MLOAD DUP1 SWAP2 SUB SWAP1 RETURN JUMPDEST PUSH2 0x185 PUSH2 0x7FE JUMP JUMPDEST PUSH1 0x40 MLOAD PUSH2 0x192 SWAP2 SWAP1 PUSH2 0xD68 JUMP JUMPDEST PUSH1 0x40 MLOAD DUP1 SWAP2 SUB SWAP1 RETURN JUMPDEST PUSH1 0x1 PUSH1 0x20 MSTORE DUP2 PUSH0 MSTORE PUSH1 0x40 PUSH0 KECCAK256 DUP2 DUP2 SLOAD DUP2 LT PUSH2 0x1B4 JUMPI PUSH0 DUP1 REVERT JUMPDEST SWAP1 PUSH0 MSTORE PUSH1 0x20 PUSH0 KECCAK256 SWAP1 PUSH1 0x4 MUL ADD PUSH0 SWAP2 POP SWAP2 POP POP DUP1 PUSH0 ADD SLOAD SWAP1 DUP1 PUSH1 0x1 ADD SLOAD SWAP1 DUP1 PUSH1 0x2 ADD DUP1 SLOAD PUSH2 0x1E0 SWAP1 PUSH2 0xDAE JUMP JUMPDEST DUP1 PUSH1 0x1F ADD PUSH1 0x20 DUP1 SWAP2 DIV MUL PUSH1 0x20 ADD PUSH1 0x40 MLOAD SWAP1 DUP2 ADD PUSH1 0x40 MSTORE DUP1 SWAP3 SWAP2 SWAP1 DUP2 DUP2 MSTORE PUSH1 0x20 ADD DUP3 DUP1 SLOAD PUSH2 0x20C SWAP1 PUSH2 0xDAE JUMP JUMPDEST DUP1 ISZERO PUSH2 0x257 JUMPI DUP1 PUSH1 0x1F LT PUSH2 0x22E JUMPI PUSH2 0x100 DUP1 DUP4 SLOAD DIV MUL DUP4 MSTORE SWAP2 PUSH1 0x20 ADD SWAP2 PUSH2 0x257 JUMP JUMPDEST DUP3 ADD SWAP2 SWAP1 PUSH0 MSTORE PUSH1 0x20 PUSH0 KECCAK256 SWAP1 JUMPDEST DUP2 SLOAD DUP2 MSTORE SWAP1 PUSH1 0x1 ADD SWAP1 PUSH1 0x20 ADD DUP1 DUP4 GT PUSH2 0x23A JUMPI DUP3 SWAP1 SUB PUSH1 0x1F AND DUP3 ADD SWAP2 JUMPDEST POP POP POP POP POP SWAP1 DUP1 PUSH1 0x3 ADD SLOAD SWAP1 POP DUP5 JUMP JUMPDEST PUSH0 PUSH1 0x20 MSTORE DUP1 PUSH0 MSTORE PUSH1 0x40 PUSH0 KECCAK256 PUSH0 SWAP2 POP SWAP1 POP DUP1 PUSH0 ADD SLOAD SWAP1 DUP1 PUSH1 0x1 ADD DUP1 SLOAD PUSH2 0x28B SWAP1 PUSH2 0xDAE JUMP JUMPDEST DUP1 PUSH1 0x1F ADD PUSH1 0x20 DUP1 SWAP2 DIV MUL PUSH1 0x20 ADD PUSH1 0x40 MLOAD SWAP1 DUP2 ADD PUSH1 0x40 MSTORE DUP1 SWAP3 SWAP2 SWAP1 DUP2 DUP2 MSTORE PUSH1 0x20 ADD DUP3 DUP1 SLOAD PUSH2 0x2B7 SWAP1 PUSH2 0xDAE JUMP JUMPDEST DUP1 ISZERO PUSH2 0x302 JUMPI DUP1 PUSH1 0x1F LT PUSH2 0x2D9 JUMPI PUSH2 0x100 DUP1 DUP4 SLOAD DIV MUL DUP4 MSTORE SWAP2 PUSH1 0x20 ADD SWAP2 PUSH2 0x302 JUMP JUMPDEST DUP3 ADD SWAP2 SWAP1 PUSH0 MSTORE PUSH1 0x20 PUSH0 KECCAK256 SWAP1 JUMPDEST DUP2 SLOAD DUP2 MSTORE SWAP1 PUSH1 0x1 ADD SWAP1 PUSH1 0x20 ADD DUP1 DUP4 GT PUSH2 0x2E5 JUMPI DUP3 SWAP1 SUB PUSH1 0x1F AND DUP3 ADD SWAP2 JUMPDEST POP POP POP POP POP SWAP1 DUP1 PUSH1 0x2 ADD SLOAD SWAP1 POP DUP4 JUMP JUMPDEST PUSH0 DUP1 PUSH0 DUP6 DUP2 MSTORE PUSH1 0x20 ADD SWAP1 DUP2 MSTORE PUSH1 0x20 ADD PUSH0 KECCAK256 SWAP1 POP PUSH1 0x40 MLOAD PUSH1 0x20 ADD PUSH2 0x334 SWAP1 PUSH2 0xE32 JUMP JUMPDEST PUSH1 0x40 MLOAD PUSH1 0x20 DUP2 DUP4 SUB SUB DUP2 MSTORE SWAP1 PUSH1 0x40 MSTORE DUP1 MLOAD SWAP1 PUSH1 0x20 ADD KECCAK256 DUP3 PUSH1 0x40 MLOAD PUSH1 0x20 ADD PUSH2 0x35B SWAP2 SWAP1 PUSH2 0xE76 JUMP JUMPDEST PUSH1 0x40 MLOAD PUSH1 0x20 DUP2 DUP4 SUB SUB DUP2 MSTORE SWAP1 PUSH1 0x40 MSTORE DUP1 MLOAD SWAP1 PUSH1 0x20 ADD KECCAK256 SUB PUSH2 0x395 JUMPI DUP3 DUP2 PUSH1 0x2 ADD PUSH0 DUP3 DUP3 SLOAD PUSH2 0x389 SWAP2 SWAP1 PUSH2 0xEB9 JUMP JUMPDEST SWAP3 POP POP DUP2 SWAP1 SSTORE POP PUSH2 0x449 JUMP JUMPDEST PUSH1 0x40 MLOAD PUSH1 0x20 ADD PUSH2 0x3A4 SWAP1 PUSH2 0xF36 JUMP JUMPDEST PUSH1 0x40 MLOAD PUSH1 0x20 DUP2 DUP4 SUB SUB DUP2 MSTORE SWAP1 PUSH1 0x40 MSTORE DUP1 MLOAD SWAP1 PUSH1 0x20 ADD KECCAK256 DUP3 PUSH1 0x40 MLOAD PUSH1 0x20 ADD PUSH2 0x3CB SWAP2 SWAP1 PUSH2 0xE76 JUMP JUMPDEST PUSH1 0x40 MLOAD PUSH1 0x20 DUP2 DUP4 SUB SUB DUP2 MSTORE SWAP1 PUSH1 0x40 MSTORE DUP1 MLOAD SWAP1 PUSH1 0x20 ADD KECCAK256 SUB PUSH2 0x448 JUMPI DUP3 DUP2 PUSH1 0x2 ADD SLOAD LT ISZERO PUSH2 0x42D JUMPI PUSH1 0x40 MLOAD PUSH32 0x8C379A000000000000000000000000000000000000000000000000000000000 DUP2 MSTORE PUSH1 0x4 ADD PUSH2 0x424 SWAP1 PUSH2 0xF94 JUMP JUMPDEST PUSH1 0x40 MLOAD DUP1 SWAP2 SUB SWAP1 REVERT JUMPDEST DUP3 DUP2 PUSH1 0x2 ADD PUSH0 DUP3 DUP3 SLOAD PUSH2 0x440 SWAP2 SWAP1 PUSH2 0xFB2 JUMP JUMPDEST SWAP3 POP POP DUP2 SWAP1 SSTORE POP JUMPDEST JUMPDEST PUSH1 0x1 PUSH0 DUP6 DUP2 MSTORE PUSH1 0x20 ADD SWAP1 DUP2 MSTORE PUSH1 0x20 ADD PUSH0 KECCAK256 PUSH1 0x40 MLOAD DUP1 PUSH1 0x80 ADD PUSH1 0x40 MSTORE DUP1 DUP7 DUP2 MSTORE PUSH1 0x20 ADD DUP6 DUP2 MSTORE PUSH1 0x20 ADD DUP5 DUP2 MSTORE PUSH1 0x20 ADD TIMESTAMP DUP2 MSTORE POP SWAP1 DUP1 PUSH1 0x1 DUP2 SLOAD ADD DUP1 DUP3 SSTORE DUP1 SWAP2 POP POP PUSH1 0x1 SWAP1 SUB SWAP1 PUSH0 MSTORE PUSH1 0x20 PUSH0 KECCAK256 SWAP1 PUSH1 0x4 MUL ADD PUSH0 SWAP1 SWAP2 SWAP1 SWAP2 SWAP1 SWAP2 POP PUSH0 DUP3 ADD MLOAD DUP2 PUSH0 ADD SSTORE PUSH1 0x20 DUP3 ADD MLOAD DUP2 PUSH1 0x1 ADD SSTORE PUSH1 0x40 DUP3 ADD MLOAD DUP2 PUSH1 0x2 ADD SWAP1 DUP2 PUSH2 0x4C8 SWAP2 SWAP1 PUSH2 0x1182 JUMP JUMPDEST POP PUSH1 0x60 DUP3 ADD MLOAD DUP2 PUSH1 0x3 ADD SSTORE POP POP PUSH32 0xF9B1D9170FBE32752353E00D62E5276B143166C75AA974030DDDFAC2895601FE DUP5 DUP3 PUSH1 0x1 ADD DUP4 PUSH1 0x2 ADD SLOAD PUSH1 0x40 MLOAD PUSH2 0x50F SWAP4 SWAP3 SWAP2 SWAP1 PUSH2 0x12D2 JUMP JUMPDEST PUSH1 0x40 MLOAD DUP1 SWAP2 SUB SWAP1 LOG1 PUSH32 0x268D9AEF58E041132C5BAA4FE6F6C996E361D5516700EC40FB69100FC654068F DUP5 DUP5 DUP5 TIMESTAMP PUSH1 0x40 MLOAD PUSH2 0x54C SWAP5 SWAP4 SWAP3 SWAP2 SWAP1 PUSH2 0x905 JUMP JUMPDEST PUSH1 0x40 MLOAD DUP1 SWAP2 SUB SWAP1 LOG1 POP POP POP POP JUMP JUMPDEST PUSH1 0x60 PUSH1 0x1 PUSH0 DUP4 DUP2 MSTORE PUSH1 0x20 ADD SWAP1 DUP2 MSTORE PUSH1 0x20 ADD PUSH0 KECCAK256 DUP1 SLOAD DUP1 PUSH1 0x20 MUL PUSH1 0x20 ADD PUSH1 0x40 MLOAD SWAP1 DUP2 ADD PUSH1 0x40 MSTORE DUP1 SWAP3 SWAP2 SWAP1 DUP2 DUP2 MSTORE PUSH1 0x20 ADD PUSH0 SWAP1 JUMPDEST DUP3 DUP3 LT ISZERO PUSH2 0x669 JUMPI DUP4 DUP3 SWAP1 PUSH0 MSTORE PUSH1 0x20 PUSH0 KECCAK256 SWAP1 PUSH1 0x4 MUL ADD PUSH1 0x40 MLOAD DUP1 PUSH1 0x80 ADD PUSH1 0x40 MSTORE SWAP1 DUP2 PUSH0 DUP3 ADD SLOAD DUP2 MSTORE PUSH1 0x20 ADD PUSH1 0x1 DUP3 ADD SLOAD DUP2 MSTORE PUSH1 0x20 ADD PUSH1 0x2 DUP3 ADD DUP1 SLOAD PUSH2 0x5D0 SWAP1 PUSH2 0xDAE JUMP JUMPDEST DUP1 PUSH1 0x1F ADD PUSH1 0x20 DUP1 SWAP2 DIV MUL PUSH1 0x20 ADD PUSH1 0x40 MLOAD SWAP1 DUP2 ADD PUSH1 0x40 MSTORE DUP1 SWAP3 SWAP2 SWAP1 DUP2 DUP2 MSTORE PUSH1 0x20 ADD DUP3 DUP1 SLOAD PUSH2 0x5FC SWAP1 PUSH2 0xDAE JUMP JUMPDEST DUP1 ISZERO PUSH2 0x647 JUMPI DUP1 PUSH1 0x1F LT PUSH2 0x61E JUMPI PUSH2 0x100 DUP1 DUP4 SLOAD DIV MUL DUP4 MSTORE SWAP2 PUSH1 0x20 ADD SWAP2 PUSH2 0x647 JUMP JUMPDEST DUP3 ADD SWAP2 SWAP1 PUSH0 MSTORE PUSH1 0x20 PUSH0 KECCAK256 SWAP1 JUMPDEST DUP2 SLOAD DUP2 MSTORE SWAP1 PUSH1 0x1 ADD SWAP1 PUSH1 0x20 ADD DUP1 DUP4 GT PUSH2 0x62A JUMPI DUP3 SWAP1 SUB PUSH1 0x1F AND DUP3 ADD SWAP2 JUMPDEST POP POP POP POP POP DUP2 MSTORE PUSH1 0x20 ADD PUSH1 0x3 DUP3 ADD SLOAD DUP2 MSTORE POP POP DUP2 MSTORE PUSH1 0x20 ADD SWAP1 PUSH1 0x1 ADD SWAP1 PUSH2 0x58C JUMP JUMPDEST POP POP POP POP SWAP1 POP SWAP2 SWAP1 POP JUMP JUMPDEST PUSH1 0x2 PUSH0 DUP2 SLOAD DUP1 SWAP3 SWAP2 SWAP1 PUSH2 0x686 SWAP1 PUSH2 0x130E JUMP JUMPDEST SWAP2 SWAP1 POP SSTORE POP PUSH1 0x40 MLOAD DUP1 PUSH1 0x60 ADD PUSH1 0x40 MSTORE DUP1 PUSH1 0x2 SLOAD DUP2 MSTORE PUSH1 0x20 ADD DUP4 DUP2 MSTORE PUSH1 0x20 ADD DUP3 DUP2 MSTORE POP PUSH0 DUP1 PUSH1 0x2 SLOAD DUP2 MSTORE PUSH1 0x20 ADD SWAP1 DUP2 MSTORE PUSH1 0x20 ADD PUSH0 KECCAK256 PUSH0 DUP3 ADD MLOAD DUP2 PUSH0 ADD SSTORE PUSH1 0x20 DUP3 ADD MLOAD DUP2 PUSH1 0x1 ADD SWAP1 DUP2 PUSH2 0x6D7 SWAP2 SWAP1 PUSH2 0x1182 JUMP JUMPDEST POP PUSH1 0x40 DUP3 ADD MLOAD DUP2 PUSH1 0x2 ADD SSTORE SWAP1 POP POP PUSH32 0xCCA07C742C5274E8B72111BA69566AA4442450BFC50BD897EA38D0170D1ACCFC PUSH1 0x2 SLOAD DUP4 DUP4 PUSH1 0x40 MLOAD PUSH2 0x71A SWAP4 SWAP3 SWAP2 SWAP1 PUSH2 0x97A JUMP JUMPDEST PUSH1 0x40 MLOAD DUP1 SWAP2 SUB SWAP1 LOG1 POP POP JUMP JUMPDEST PUSH1 0x60 PUSH0 DUP1 PUSH0 DUP1 DUP6 DUP2 MSTORE PUSH1 0x20 ADD SWAP1 DUP2 MSTORE PUSH1 0x20 ADD PUSH0 KECCAK256 PUSH1 0x40 MLOAD DUP1 PUSH1 0x60 ADD PUSH1 0x40 MSTORE SWAP1 DUP2 PUSH0 DUP3 ADD SLOAD DUP2 MSTORE PUSH1 0x20 ADD PUSH1 0x1 DUP3 ADD DUP1 SLOAD PUSH2 0x75E SWAP1 PUSH2 0xDAE JUMP JUMPDEST DUP1 PUSH1 0x1F ADD PUSH1 0x20 DUP1 SWAP2 DIV MUL PUSH1 0x20 ADD PUSH1 0x40 MLOAD SWAP1 DUP2 ADD PUSH1 0x40 MSTORE DUP1 SWAP3 SWAP2 SWAP1 DUP2 DUP2 MSTORE PUSH1 0x20 ADD DUP3 DUP1 SLOAD PUSH2 0x78A SWAP1 PUSH2 0xDAE JUMP JUMPDEST DUP1 ISZERO PUSH2 0x7D5 JUMPI DUP1 PUSH1 0x1F LT PUSH2 0x7AC JUMPI PUSH2 0x100 DUP1 DUP4 SLOAD DIV MUL DUP4 MSTORE SWAP2 PUSH1 0x20 ADD SWAP2 PUSH2 0x7D5 JUMP JUMPDEST DUP3 ADD SWAP2 SWAP1 PUSH0 MSTORE PUSH1 0x20 PUSH0 KECCAK256 SWAP1 JUMPDEST DUP2 SLOAD DUP2 MSTORE SWAP1 PUSH1 0x1 ADD SWAP1 PUSH1 0x20 ADD DUP1 DUP4 GT PUSH2 0x7B8 JUMPI DUP3 SWAP1 SUB PUSH1 0x1F AND DUP3 ADD SWAP2 JUMPDEST POP POP POP POP POP DUP2 MSTORE PUSH1 0x20 ADD PUSH1 0x2 DUP3 ADD SLOAD DUP2 MSTORE POP POP SWAP1 POP DUP1 PUSH1 0x20 ADD MLOAD DUP2 PUSH1 0x40 ADD MLOAD SWAP3 POP SWAP3 POP POP SWAP2 POP SWAP2 JUMP JUMPDEST PUSH1 0x2 SLOAD DUP2 JUMP JUMPDEST PUSH0 PUSH1 0x40 MLOAD SWAP1 POP SWAP1 JUMP JUMPDEST PUSH0 DUP1 REVERT JUMPDEST PUSH0 DUP1 REVERT JUMPDEST PUSH0 DUP2 SWAP1 POP SWAP2 SWAP1 POP JUMP JUMPDEST PUSH2 0x827 DUP2 PUSH2 0x815 JUMP JUMPDEST DUP2 EQ PUSH2 0x831 JUMPI PUSH0 DUP1 REVERT JUMPDEST POP JUMP JUMPDEST PUSH0 DUP2 CALLDATALOAD SWAP1 POP PUSH2 0x842 DUP2 PUSH2 0x81E JUMP JUMPDEST SWAP3 SWAP2 POP POP JUMP JUMPDEST PUSH0 DUP1 PUSH1 0x40 DUP4 DUP6 SUB SLT ISZERO PUSH2 0x85E JUMPI PUSH2 0x85D PUSH2 0x80D JUMP JUMPDEST JUMPDEST PUSH0 PUSH2 0x86B DUP6 DUP3 DUP7 ADD PUSH2 0x834 JUMP JUMPDEST SWAP3 POP POP PUSH1 0x20 PUSH2 0x87C DUP6 DUP3 DUP7 ADD PUSH2 0x834 JUMP JUMPDEST SWAP2 POP POP SWAP3 POP SWAP3 SWAP1 POP JUMP JUMPDEST PUSH2 0x88F DUP2 PUSH2 0x815 JUMP JUMPDEST DUP3 MSTORE POP POP JUMP JUMPDEST PUSH0 DUP2 MLOAD SWAP1 POP SWAP2 SWAP1 POP JUMP JUMPDEST PUSH0 DUP3 DUP3 MSTORE PUSH1 0x20 DUP3 ADD SWAP1 POP SWAP3 SWAP2 POP POP JUMP JUMPDEST DUP3 DUP2 DUP4 MCOPY PUSH0 DUP4 DUP4 ADD MSTORE POP POP POP JUMP JUMPDEST PUSH0 PUSH1 0x1F NOT PUSH1 0x1F DUP4 ADD AND SWAP1 POP SWAP2 SWAP1 POP JUMP JUMPDEST PUSH0 PUSH2 0x8D7 DUP3 PUSH2 0x895 JUMP JUMPDEST PUSH2 0x8E1 DUP2 DUP6 PUSH2 0x89F JUMP JUMPDEST SWAP4 POP PUSH2 0x8F1 DUP2 DUP6 PUSH1 0x20 DUP7 ADD PUSH2 0x8AF JUMP JUMPDEST PUSH2 0x8FA DUP2 PUSH2 0x8BD JUMP JUMPDEST DUP5 ADD SWAP2 POP POP SWAP3 SWAP2 POP POP JUMP JUMPDEST PUSH0 PUSH1 0x80 DUP3 ADD SWAP1 POP PUSH2 0x918 PUSH0 DUP4 ADD DUP8 PUSH2 0x886 JUMP JUMPDEST PUSH2 0x925 PUSH1 0x20 DUP4 ADD DUP7 PUSH2 0x886 JUMP JUMPDEST DUP2 DUP2 SUB PUSH1 0x40 DUP4 ADD MSTORE PUSH2 0x937 DUP2 DUP6 PUSH2 0x8CD JUMP JUMPDEST SWAP1 POP PUSH2 0x946 PUSH1 0x60 DUP4 ADD DUP5 PUSH2 0x886 JUMP JUMPDEST SWAP6 SWAP5 POP POP POP POP POP JUMP JUMPDEST PUSH0 PUSH1 0x20 DUP3 DUP5 SUB SLT ISZERO PUSH2 0x964 JUMPI PUSH2 0x963 PUSH2 0x80D JUMP JUMPDEST JUMPDEST PUSH0 PUSH2 0x971 DUP5 DUP3 DUP6 ADD PUSH2 0x834 JUMP JUMPDEST SWAP2 POP POP SWAP3 SWAP2 POP POP JUMP JUMPDEST PUSH0 PUSH1 0x60 DUP3 ADD SWAP1 POP PUSH2 0x98D PUSH0 DUP4 ADD DUP7 PUSH2 0x886 JUMP JUMPDEST DUP2 DUP2 SUB PUSH1 0x20 DUP4 ADD MSTORE PUSH2 0x99F DUP2 DUP6 PUSH2 0x8CD JUMP JUMPDEST SWAP1 POP PUSH2 0x9AE PUSH1 0x40 DUP4 ADD DUP5 PUSH2 0x886 JUMP JUMPDEST SWAP5 SWAP4 POP POP POP POP JUMP JUMPDEST PUSH0 DUP1 REVERT JUMPDEST PUSH0 DUP1 REVERT JUMPDEST PUSH32 0x4E487B7100000000000000000000000000000000000000000000000000000000 PUSH0 MSTORE PUSH1 0x41 PUSH1 0x4 MSTORE PUSH1 0x24 PUSH0 REVERT JUMPDEST PUSH2 0x9F4 DUP3 PUSH2 0x8BD JUMP JUMPDEST DUP2 ADD DUP2 DUP2 LT PUSH8 0xFFFFFFFFFFFFFFFF DUP3 GT OR ISZERO PUSH2 0xA13 JUMPI PUSH2 0xA12 PUSH2 0x9BE JUMP JUMPDEST JUMPDEST DUP1 PUSH1 0x40 MSTORE POP POP POP JUMP JUMPDEST PUSH0 PUSH2 0xA25 PUSH2 0x804 JUMP JUMPDEST SWAP1 POP PUSH2 0xA31 DUP3 DUP3 PUSH2 0x9EB JUMP JUMPDEST SWAP2 SWAP1 POP JUMP JUMPDEST PUSH0 PUSH8 0xFFFFFFFFFFFFFFFF DUP3 GT ISZERO PUSH2 0xA50 JUMPI PUSH2 0xA4F PUSH2 0x9BE JUMP JUMPDEST JUMPDEST PUSH2 0xA59 DUP3 PUSH2 0x8BD JUMP JUMPDEST SWAP1 POP PUSH1 0x20 DUP2 ADD SWAP1 POP SWAP2 SWAP1 POP JUMP JUMPDEST DUP3 DUP2 DUP4 CALLDATACOPY PUSH0 DUP4 DUP4 ADD MSTORE POP POP POP JUMP JUMPDEST PUSH0 PUSH2 0xA86 PUSH2 0xA81 DUP5 PUSH2 0xA36 JUMP JUMPDEST PUSH2 0xA1C JUMP JUMPDEST SWAP1 POP DUP3 DUP2 MSTORE PUSH1 0x20 DUP2 ADD DUP5 DUP5 DUP5 ADD GT ISZERO PUSH2 0xAA2 JUMPI PUSH2 0xAA1 PUSH2 0x9BA JUMP JUMPDEST JUMPDEST PUSH2 0xAAD DUP5 DUP3 DUP6 PUSH2 0xA66 JUMP JUMPDEST POP SWAP4 SWAP3 POP POP POP JUMP JUMPDEST PUSH0 DUP3 PUSH1 0x1F DUP4 ADD SLT PUSH2 0xAC9 JUMPI PUSH2 0xAC8 PUSH2 0x9B6 JUMP JUMPDEST JUMPDEST DUP2 CALLDATALOAD PUSH2 0xAD9 DUP5 DUP3 PUSH1 0x20 DUP7 ADD PUSH2 0xA74 JUMP JUMPDEST SWAP2 POP POP SWAP3 SWAP2 POP POP JUMP JUMPDEST PUSH0 DUP1 PUSH0 PUSH1 0x60 DUP5 DUP7 SUB SLT ISZERO PUSH2 0xAF9 JUMPI PUSH2 0xAF8 PUSH2 0x80D JUMP JUMPDEST JUMPDEST PUSH0 PUSH2 0xB06 DUP7 DUP3 DUP8 ADD PUSH2 0x834 JUMP JUMPDEST SWAP4 POP POP PUSH1 0x20 PUSH2 0xB17 DUP7 DUP3 DUP8 ADD PUSH2 0x834 JUMP JUMPDEST SWAP3 POP POP PUSH1 0x40 DUP5 ADD CALLDATALOAD PUSH8 0xFFFFFFFFFFFFFFFF DUP2 GT ISZERO PUSH2 0xB38 JUMPI PUSH2 0xB37 PUSH2 0x811 JUMP JUMPDEST JUMPDEST PUSH2 0xB44 DUP7 DUP3 DUP8 ADD PUSH2 0xAB5 JUMP JUMPDEST SWAP2 POP POP SWAP3 POP SWAP3 POP SWAP3 JUMP JUMPDEST PUSH0 DUP2 MLOAD SWAP1 POP SWAP2 SWAP1 POP JUMP JUMPDEST PUSH0 DUP3 DUP3 MSTORE PUSH1 0x20 DUP3 ADD SWAP1 POP SWAP3 SWAP2 POP POP JUMP JUMPDEST PUSH0 DUP2 SWAP1 POP PUSH1 0x20 DUP3 ADD SWAP1 POP SWAP2 SWAP1 POP JUMP JUMPDEST PUSH2 0xB80 DUP2 PUSH2 0x815 JUMP JUMPDEST DUP3 MSTORE POP POP JUMP JUMPDEST PUSH0 DUP3 DUP3 MSTORE PUSH1 0x20 DUP3 ADD SWAP1 POP SWAP3 SWAP2 POP POP JUMP JUMPDEST PUSH0 PUSH2 0xBA0 DUP3 PUSH2 0x895 JUMP JUMPDEST PUSH2 0xBAA DUP2 DUP6 PUSH2 0xB86 JUMP JUMPDEST SWAP4 POP PUSH2 0xBBA DUP2 DUP6 PUSH1 0x20 DUP7 ADD PUSH2 0x8AF JUMP JUMPDEST PUSH2 0xBC3 DUP2 PUSH2 0x8BD JUMP JUMPDEST DUP5 ADD SWAP2 POP POP SWAP3 SWAP2 POP POP JUMP JUMPDEST PUSH0 PUSH1 0x80 DUP4 ADD PUSH0 DUP4 ADD MLOAD PUSH2 0xBE3 PUSH0 DUP7 ADD DUP3 PUSH2 0xB77 JUMP JUMPDEST POP PUSH1 0x20 DUP4 ADD MLOAD PUSH2 0xBF6 PUSH1 0x20 DUP7 ADD DUP3 PUSH2 0xB77 JUMP JUMPDEST POP PUSH1 0x40 DUP4 ADD MLOAD DUP5 DUP3 SUB PUSH1 0x40 DUP7 ADD MSTORE PUSH2 0xC0E DUP3 DUP3 PUSH2 0xB96 JUMP JUMPDEST SWAP2 POP POP PUSH1 0x60 DUP4 ADD MLOAD PUSH2 0xC23 PUSH1 0x60 DUP7 ADD DUP3 PUSH2 0xB77 JUMP JUMPDEST POP DUP1 SWAP2 POP POP SWAP3 SWAP2 POP POP JUMP JUMPDEST PUSH0 PUSH2 0xC39 DUP4 DUP4 PUSH2 0xBCE JUMP JUMPDEST SWAP1 POP SWAP3 SWAP2 POP POP JUMP JUMPDEST PUSH0 PUSH1 0x20 DUP3 ADD SWAP1 POP SWAP2 SWAP1 POP JUMP JUMPDEST PUSH0 PUSH2 0xC57 DUP3 PUSH2 0xB4E JUMP JUMPDEST PUSH2 0xC61 DUP2 DUP6 PUSH2 0xB58 JUMP JUMPDEST SWAP4 POP DUP4 PUSH1 0x20 DUP3 MUL DUP6 ADD PUSH2 0xC73 DUP6 PUSH2 0xB68 JUMP JUMPDEST DUP1 PUSH0 JUMPDEST DUP6 DUP2 LT ISZERO PUSH2 0xCAE JUMPI DUP5 DUP5 SUB DUP10 MSTORE DUP2 MLOAD PUSH2 0xC8F DUP6 DUP3 PUSH2 0xC2E JUMP JUMPDEST SWAP5 POP PUSH2 0xC9A DUP4 PUSH2 0xC41 JUMP JUMPDEST SWAP3 POP PUSH1 0x20 DUP11 ADD SWAP10 POP POP PUSH1 0x1 DUP2 ADD SWAP1 POP PUSH2 0xC76 JUMP JUMPDEST POP DUP3 SWAP8 POP DUP8 SWAP6 POP POP POP POP POP POP SWAP3 SWAP2 POP POP JUMP JUMPDEST PUSH0 PUSH1 0x20 DUP3 ADD SWAP1 POP DUP2 DUP2 SUB PUSH0 DUP4 ADD MSTORE PUSH2 0xCD8 DUP2 DUP5 PUSH2 0xC4D JUMP JUMPDEST SWAP1 POP SWAP3 SWAP2 POP POP JUMP JUMPDEST PUSH0 DUP1 PUSH1 0x40 DUP4 DUP6 SUB SLT ISZERO PUSH2 0xCF6 JUMPI PUSH2 0xCF5 PUSH2 0x80D JUMP JUMPDEST JUMPDEST PUSH0 DUP4 ADD CALLDATALOAD PUSH8 0xFFFFFFFFFFFFFFFF DUP2 GT ISZERO PUSH2 0xD13 JUMPI PUSH2 0xD12 PUSH2 0x811 JUMP JUMPDEST JUMPDEST PUSH2 0xD1F DUP6 DUP3 DUP7 ADD PUSH2 0xAB5 JUMP JUMPDEST SWAP3 POP POP PUSH1 0x20 PUSH2 0xD30 DUP6 DUP3 DUP7 ADD PUSH2 0x834 JUMP JUMPDEST SWAP2 POP POP SWAP3 POP SWAP3 SWAP1 POP JUMP JUMPDEST PUSH0 PUSH1 0x40 DUP3 ADD SWAP1 POP DUP2 DUP2 SUB PUSH0 DUP4 ADD MSTORE PUSH2 0xD52 DUP2 DUP6 PUSH2 0x8CD JUMP JUMPDEST SWAP1 POP PUSH2 0xD61 PUSH1 0x20 DUP4 ADD DUP5 PUSH2 0x886 JUMP JUMPDEST SWAP4 SWAP3 POP POP POP JUMP JUMPDEST PUSH0 PUSH1 0x20 DUP3 ADD SWAP1 POP PUSH2 0xD7B PUSH0 DUP4 ADD DUP5 PUSH2 0x886 JUMP JUMPDEST SWAP3 SWAP2 POP POP JUMP JUMPDEST PUSH32 0x4E487B7100000000000000000000000000000000000000000000000000000000 PUSH0 MSTORE PUSH1 0x22 PUSH1 0x4 MSTORE PUSH1 0x24 PUSH0 REVERT JUMPDEST PUSH0 PUSH1 0x2 DUP3 DIV SWAP1 POP PUSH1 0x1 DUP3 AND DUP1 PUSH2 0xDC5 JUMPI PUSH1 0x7F DUP3 AND SWAP2 POP JUMPDEST PUSH1 0x20 DUP3 LT DUP2 SUB PUSH2 0xDD8 JUMPI PUSH2 0xDD7 PUSH2 0xD81 JUMP JUMPDEST JUMPDEST POP SWAP2 SWAP1 POP JUMP JUMPDEST PUSH0 DUP2 SWAP1 POP SWAP3 SWAP2 POP POP JUMP JUMPDEST PUSH32 0x696D706F72740000000000000000000000000000000000000000000000000000 PUSH0 DUP3 ADD MSTORE POP JUMP JUMPDEST PUSH0 PUSH2 0xE1C PUSH1 0x6 DUP4 PUSH2 0xDDE JUMP JUMPDEST SWAP2 POP PUSH2 0xE27 DUP3 PUSH2 0xDE8 JUMP JUMPDEST PUSH1 0x6 DUP3 ADD SWAP1 POP SWAP2 SWAP1 POP JUMP JUMPDEST PUSH0 PUSH2 0xE3C DUP3 PUSH2 0xE10 JUMP JUMPDEST SWAP2 POP DUP2 SWAP1 POP SWAP2 SWAP1 POP JUMP JUMPDEST PUSH0 PUSH2 0xE50 DUP3 PUSH2 0x895 JUMP JUMPDEST PUSH2 0xE5A DUP2 DUP6 PUSH2 0xDDE JUMP JUMPDEST SWAP4 POP PUSH2 0xE6A DUP2 DUP6 PUSH1 0x20 DUP7 ADD PUSH2 0x8AF JUMP JUMPDEST DUP1 DUP5 ADD SWAP2 POP POP SWAP3 SWAP2 POP POP JUMP JUMPDEST PUSH0 PUSH2 0xE81 DUP3 DUP5 PUSH2 0xE46 JUMP JUMPDEST SWAP2 POP DUP2 SWAP1 POP SWAP3 SWAP2 POP POP JUMP JUMPDEST PUSH32 0x4E487B7100000000000000000000000000000000000000000000000000000000 PUSH0 MSTORE PUSH1 0x11 PUSH1 0x4 MSTORE PUSH1 0x24 PUSH0 REVERT JUMPDEST PUSH0 PUSH2 0xEC3 DUP3 PUSH2 0x815 JUMP JUMPDEST SWAP2 POP PUSH2 0xECE DUP4 PUSH2 0x815 JUMP JUMPDEST SWAP3 POP DUP3 DUP3 ADD SWAP1 POP DUP1 DUP3 GT ISZERO PUSH2 0xEE6 JUMPI PUSH2 0xEE5 PUSH2 0xE8C JUMP JUMPDEST JUMPDEST SWAP3 SWAP2 POP POP JUMP JUMPDEST PUSH32 0x6578706F72740000000000000000000000000000000000000000000000000000 PUSH0 DUP3 ADD MSTORE POP JUMP JUMPDEST PUSH0 PUSH2 0xF20 PUSH1 0x6 DUP4 PUSH2 0xDDE JUMP JUMPDEST SWAP2 POP PUSH2 0xF2B DUP3 PUSH2 0xEEC JUMP JUMPDEST PUSH1 0x6 DUP3 ADD SWAP1 POP SWAP2 SWAP1 POP JUMP JUMPDEST PUSH0 PUSH2 0xF40 DUP3 PUSH2 0xF14 JUMP JUMPDEST SWAP2 POP DUP2 SWAP1 POP SWAP2 SWAP1 POP JUMP JUMPDEST PUSH32 0x496E73756666696369656E742073746F636B0000000000000000000000000000 PUSH0 DUP3 ADD MSTORE POP JUMP JUMPDEST PUSH0 PUSH2 0xF7E PUSH1 0x12 DUP4 PUSH2 0x89F JUMP JUMPDEST SWAP2 POP PUSH2 0xF89 DUP3 PUSH2 0xF4A JUMP JUMPDEST PUSH1 0x20 DUP3 ADD SWAP1 POP SWAP2 SWAP1 POP JUMP JUMPDEST PUSH0 PUSH1 0x20 DUP3 ADD SWAP1 POP DUP2 DUP2 SUB PUSH0 DUP4 ADD MSTORE PUSH2 0xFAB DUP2 PUSH2 0xF72 JUMP JUMPDEST SWAP1 POP SWAP2 SWAP1 POP JUMP JUMPDEST PUSH0 PUSH2 0xFBC DUP3 PUSH2 0x815 JUMP JUMPDEST SWAP2 POP PUSH2 0xFC7 DUP4 PUSH2 0x815 JUMP JUMPDEST SWAP3 POP DUP3 DUP3 SUB SWAP1 POP DUP2 DUP2 GT ISZERO PUSH2 0xFDF JUMPI PUSH2 0xFDE PUSH2 0xE8C JUMP JUMPDEST JUMPDEST SWAP3 SWAP2 POP POP JUMP JUMPDEST PUSH0 DUP2 SWAP1 POP DUP2 PUSH0 MSTORE PUSH1 0x20 PUSH0 KECCAK256 SWAP1 POP SWAP2 SWAP1 POP JUMP JUMPDEST PUSH0 PUSH1 0x20 PUSH1 0x1F DUP4 ADD DIV SWAP1 POP SWAP2 SWAP1 POP JUMP JUMPDEST PUSH0 DUP3 DUP3 SHL SWAP1 POP SWAP3 SWAP2 POP POP JUMP JUMPDEST PUSH0 PUSH1 0x8 DUP4 MUL PUSH2 0x1041 PUSH32 0xFFFFFFFFFFFFFFFFFFFFFFFFFFFFFFFFFFFFFFFFFFFFFFFFFFFFFFFFFFFFFFFF DUP3 PUSH2 0x1006 JUMP JUMPDEST PUSH2 0x104B DUP7 DUP4 PUSH2 0x1006 JUMP JUMPDEST SWAP6 POP DUP1 NOT DUP5 AND SWAP4 POP DUP1 DUP7 AND DUP5 OR SWAP3 POP POP POP SWAP4 SWAP3 POP POP POP JUMP JUMPDEST PUSH0 DUP2 SWAP1 POP SWAP2 SWAP1 POP JUMP JUMPDEST PUSH0 PUSH2 0x1086 PUSH2 0x1081 PUSH2 0x107C DUP5 PUSH2 0x815 JUMP JUMPDEST PUSH2 0x1063 JUMP JUMPDEST PUSH2 0x815 JUMP JUMPDEST SWAP1 POP SWAP2 SWAP1 POP JUMP JUMPDEST PUSH0 DUP2 SWAP1 POP SWAP2 SWAP1 POP JUMP JUMPDEST PUSH2 0x109F DUP4 PUSH2 0x106C JUMP JUMPDEST PUSH2 0x10B3 PUSH2 0x10AB DUP3 PUSH2 0x108D JUMP JUMPDEST DUP5 DUP5 SLOAD PUSH2 0x1012 JUMP JUMPDEST DUP3 SSTORE POP POP POP POP JUMP JUMPDEST PUSH0 SWAP1 JUMP JUMPDEST PUSH2 0x10C7 PUSH2 0x10BB JUMP JUMPDEST PUSH2 0x10D2 DUP2 DUP5 DUP5 PUSH2 0x1096 JUMP JUMPDEST POP POP POP JUMP JUMPDEST JUMPDEST DUP2 DUP2 LT ISZERO PUSH2 0x10F5 JUMPI PUSH2 0x10EA PUSH0 DUP3 PUSH2 0x10BF JUMP JUMPDEST PUSH1 0x1 DUP2 ADD SWAP1 POP PUSH2 0x10D8 JUMP JUMPDEST POP POP JUMP JUMPDEST PUSH1 0x1F DUP3 GT ISZERO PUSH2 0x113A JUMPI PUSH2 0x110B DUP2 PUSH2 0xFE5 JUMP JUMPDEST PUSH2 0x1114 DUP5 PUSH2 0xFF7 JUMP JUMPDEST DUP2 ADD PUSH1 0x20 DUP6 LT ISZERO PUSH2 0x1123 JUMPI DUP2 SWAP1 POP JUMPDEST PUSH2 0x1137 PUSH2 0x112F DUP6 PUSH2 0xFF7 JUMP JUMPDEST DUP4 ADD DUP3 PUSH2 0x10D7 JUMP JUMPDEST POP POP JUMPDEST POP POP POP JUMP JUMPDEST PUSH0 DUP3 DUP3 SHR SWAP1 POP SWAP3 SWAP2 POP POP JUMP JUMPDEST PUSH0 PUSH2 0x115A PUSH0 NOT DUP5 PUSH1 0x8 MUL PUSH2 0x113F JUMP JUMPDEST NOT DUP1 DUP4 AND SWAP2 POP POP SWAP3 SWAP2 POP POP JUMP JUMPDEST PUSH0 PUSH2 0x1172 DUP4 DUP4 PUSH2 0x114B JUMP JUMPDEST SWAP2 POP DUP3 PUSH1 0x2 MUL DUP3 OR SWAP1 POP SWAP3 SWAP2 POP POP JUMP JUMPDEST PUSH2 0x118B DUP3 PUSH2 0x895 JUMP JUMPDEST PUSH8 0xFFFFFFFFFFFFFFFF DUP2 GT ISZERO PUSH2 0x11A4 JUMPI PUSH2 0x11A3 PUSH2 0x9BE JUMP JUMPDEST JUMPDEST PUSH2 0x11AE DUP3 SLOAD PUSH2 0xDAE JUMP JUMPDEST PUSH2 0x11B9 DUP3 DUP3 DUP6 PUSH2 0x10F9 JUMP JUMPDEST PUSH0 PUSH1 0x20 SWAP1 POP PUSH1 0x1F DUP4 GT PUSH1 0x1 DUP2 EQ PUSH2 0x11EA JUMPI PUSH0 DUP5 ISZERO PUSH2 0x11D8 JUMPI DUP3 DUP8 ADD MLOAD SWAP1 POP JUMPDEST PUSH2 0x11E2 DUP6 DUP3 PUSH2 0x1167 JUMP JUMPDEST DUP7 SSTORE POP PUSH2 0x1249 JUMP JUMPDEST PUSH1 0x1F NOT DUP5 AND PUSH2 0x11F8 DUP7 PUSH2 0xFE5 JUMP JUMPDEST PUSH0 JUMPDEST DUP3 DUP2 LT ISZERO PUSH2 0x121F JUMPI DUP5 DUP10 ADD MLOAD DUP3 SSTORE PUSH1 0x1 DUP3 ADD SWAP2 POP PUSH1 0x20 DUP6 ADD SWAP5 POP PUSH1 0x20 DUP2 ADD SWAP1 POP PUSH2 0x11FA JUMP JUMPDEST DUP7 DUP4 LT ISZERO PUSH2 0x123C JUMPI DUP5 DUP10 ADD MLOAD PUSH2 0x1238 PUSH1 0x1F DUP10 AND DUP3 PUSH2 0x114B JUMP JUMPDEST DUP4 SSTORE POP JUMPDEST PUSH1 0x1 PUSH1 0x2 DUP9 MUL ADD DUP9 SSTORE POP POP POP JUMPDEST POP POP POP POP POP POP JUMP JUMPDEST PUSH0 DUP2 SLOAD PUSH2 0x125D DUP2 PUSH2 0xDAE JUMP JUMPDEST PUSH2 0x1267 DUP2 DUP7 PUSH2 0x89F JUMP JUMPDEST SWAP5 POP PUSH1 0x1 DUP3 AND PUSH0 DUP2 EQ PUSH2 0x1281 JUMPI PUSH1 0x1 DUP2 EQ PUSH2 0x1297 JUMPI PUSH2 0x12C9 JUMP JUMPDEST PUSH1 0xFF NOT DUP4 AND DUP7 MSTORE DUP2 ISZERO ISZERO PUSH1 0x20 MUL DUP7 ADD SWAP4 POP PUSH2 0x12C9 JUMP JUMPDEST PUSH2 0x12A0 DUP6 PUSH2 0xFE5 JUMP JUMPDEST PUSH0 JUMPDEST DUP4 DUP2 LT ISZERO PUSH2 0x12C1 JUMPI DUP2 SLOAD DUP2 DUP10 ADD MSTORE PUSH1 0x1 DUP3 ADD SWAP2 POP PUSH1 0x20 DUP2 ADD SWAP1 POP PUSH2 0x12A2 JUMP JUMPDEST DUP1 DUP9 ADD SWAP6 POP POP POP JUMPDEST POP POP POP SWAP3 SWAP2 POP POP JUMP JUMPDEST PUSH0 PUSH1 0x60 DUP3 ADD SWAP1 POP PUSH2 0x12E5 PUSH0 DUP4 ADD DUP7 PUSH2 0x886 JUMP JUMPDEST DUP2 DUP2 SUB PUSH1 0x20 DUP4 ADD MSTORE PUSH2 0x12F7 DUP2 DUP6 PUSH2 0x1251 JUMP JUMPDEST SWAP1 POP PUSH2 0x1306 PUSH1 0x40 DUP4 ADD DUP5 PUSH2 0x886 JUMP JUMPDEST SWAP5 SWAP4 POP POP POP POP JUMP JUMPDEST PUSH0 PUSH2 0x1318 DUP3 PUSH2 0x815 JUMP JUMPDEST SWAP2 POP PUSH32 0xFFFFFFFFFFFFFFFFFFFFFFFFFFFFFFFFFFFFFFFFFFFFFFFFFFFFFFFFFFFFFFFF DUP3 SUB PUSH2 0x134A JUMPI PUSH2 0x1349 PUSH2 0xE8C JUMP JUMPDEST JUMPDEST PUSH1 0x1 DUP3 ADD SWAP1 POP SWAP2 SWAP1 POP JUMP INVALID LOG2 PUSH5 0x6970667358 0x22 SLT KECCAK256 0xD0 PC 0xAC 0xB2 OR DELEGATECALL BLOBHASH LOG0 0x2A 0x4C 0xB2 CALLDATALOAD 0xB5 TIMESTAMP 0xE6 PUSH15 0xE6E849C5C20C2DC3C1993A5475657F 0xBD PUSH5 0x736F6C6343 STOP ADDMOD BYTE STOP CALLER "
	},
	"abi": [
		{
			"anonymous": false,
			"inputs": [
				{
					"indexed": false,
					"internalType": "uint256",
					"name": "productId",
					"type": "uint256"
				},
				{
					"indexed": false,
					"internalType": "string",
					"name": "name",
					"type": "string"
				},
				{
					"indexed": false,
					"internalType": "uint256",
					"name": "quantity",
					"type": "uint256"
				}
			],
			"name": "ProductAdded",
			"type": "event"
		},
		{
			"anonymous": false,
			"inputs": [
				{
					"indexed": false,
					"internalType": "uint256",
					"name": "productId",
					"type": "uint256"
				},
				{
					"indexed": false,
					"internalType": "string",
					"name": "name",
					"type": "string"
				},
				{
					"indexed": false,
					"internalType": "uint256",
					"name": "quantity",
					"type": "uint256"
				}
			],
			"name": "ProductUpdated",
			"type": "event"
		},
		{
			"anonymous": false,
			"inputs": [
				{
					"indexed": false,
					"internalType": "uint256",
					"name": "productId",
					"type": "uint256"
				},
				{
					"indexed": false,
					"internalType": "uint256",
					"name": "quantity",
					"type": "uint256"
				},
				{
					"indexed": false,
					"internalType": "string",
					"name": "action",
					"type": "string"
				},
				{
					"indexed": false,
					"internalType": "uint256",
					"name": "timestamp",
					"type": "uint256"
				}
			],
			"name": "TransactionRecorded",
			"type": "event"
		},
		{
			"inputs": [
				{
					"internalType": "string",
					"name": "name",
					"type": "string"
				},
				{
					"internalType": "uint256",
					"name": "quantity",
					"type": "uint256"
				}
			],
			"name": "addProduct",
			"outputs": [],
			"stateMutability": "nonpayable",
			"type": "function"
		},
		{
			"inputs": [
				{
					"internalType": "uint256",
					"name": "id",
					"type": "uint256"
				}
			],
			"name": "getProduct",
			"outputs": [
				{
					"internalType": "string",
					"name": "name",
					"type": "string"
				},
				{
					"internalType": "uint256",
					"name": "quantity",
					"type": "uint256"
				}
			],
			"stateMutability": "view",
			"type": "function"
		},
		{
			"inputs": [
				{
					"internalType": "uint256",
					"name": "id",
					"type": "uint256"
				}
			],
			"name": "getProductTransactions",
			"outputs": [
				{
					"components": [
						{
							"internalType": "uint256",
							"name": "productId",
							"type": "uint256"
						},
						{
							"internalType": "uint256",
							"name": "quantity",
							"type": "uint256"
						},
						{
							"internalType": "string",
							"name": "action",
							"type": "string"
						},
						{
							"internalType": "uint256",
							"name": "timestamp",
							"type": "uint256"
						}
					],
					"internalType": "struct SupplyChain.Transaction[]",
					"name": "",
					"type": "tuple[]"
				}
			],
			"stateMutability": "view",
			"type": "function"
		},
		{
			"inputs": [],
			"name": "productCount",
			"outputs": [
				{
					"internalType": "uint256",
					"name": "",
					"type": "uint256"
				}
			],
			"stateMutability": "view",
			"type": "function"
		},
		{
			"inputs": [
				{
					"internalType": "uint256",
					"name": "",
					"type": "uint256"
				},
				{
					"internalType": "uint256",
					"name": "",
					"type": "uint256"
				}
			],
			"name": "productTransactions",
			"outputs": [
				{
					"internalType": "uint256",
					"name": "productId",
					"type": "uint256"
				},
				{
					"internalType": "uint256",
					"name": "quantity",
					"type": "uint256"
				},
				{
					"internalType": "string",
					"name": "action",
					"type": "string"
				},
				{
					"internalType": "uint256",
					"name": "timestamp",
					"type": "uint256"
				}
			],
			"stateMutability": "view",
			"type": "function"
		},
		{
			"inputs": [
				{
					"internalType": "uint256",
					"name": "",
					"type": "uint256"
				}
			],
			"name": "products",
			"outputs": [
				{
					"internalType": "uint256",
					"name": "id",
					"type": "uint256"
				},
				{
					"internalType": "string",
					"name": "name",
					"type": "string"
				},
				{
					"internalType": "uint256",
					"name": "quantity",
					"type": "uint256"
				}
			],
			"stateMutability": "view",
			"type": "function"
		},
		{
			"inputs": [
				{
					"internalType": "uint256",
					"name": "id",
					"type": "uint256"
				},
				{
					"internalType": "uint256",
					"name": "quantity",
					"type": "uint256"
				},
				{
					"internalType": "string",
					"name": "action",
					"type": "string"
				}
			],
			"name": "updateProduct",
			"outputs": [],
			"stateMutability": "nonpayable",
			"type": "function"
		}
	],
	"storageLayout": {
		"storage": [
			{
				"astId": 22,
				"contract": "contracts/mysmartcontract.sol:SupplyChain",
				"label": "products",
				"offset": 0,
				"slot": "0",
				"type": "t_mapping(t_uint256,t_struct(Product)8_storage)"
			},
			{
				"astId": 28,
				"contract": "contracts/mysmartcontract.sol:SupplyChain",
				"label": "productTransactions",
				"offset": 0,
				"slot": "1",
				"type": "t_mapping(t_uint256,t_array(t_struct(Transaction)17_storage)dyn_storage)"
			},
			{
				"astId": 30,
				"contract": "contracts/mysmartcontract.sol:SupplyChain",
				"label": "productCount",
				"offset": 0,
				"slot": "2",
				"type": "t_uint256"
			}
		],
		"types": {
			"t_array(t_struct(Transaction)17_storage)dyn_storage": {
				"base": "t_struct(Transaction)17_storage",
				"encoding": "dynamic_array",
				"label": "struct SupplyChain.Transaction[]",
				"numberOfBytes": "32"
			},
			"t_mapping(t_uint256,t_array(t_struct(Transaction)17_storage)dyn_storage)": {
				"encoding": "mapping",
				"key": "t_uint256",
				"label": "mapping(uint256 => struct SupplyChain.Transaction[])",
				"numberOfBytes": "32",
				"value": "t_array(t_struct(Transaction)17_storage)dyn_storage"
			},
			"t_mapping(t_uint256,t_struct(Product)8_storage)": {
				"encoding": "mapping",
				"key": "t_uint256",
				"label": "mapping(uint256 => struct SupplyChain.Product)",
				"numberOfBytes": "32",
				"value": "t_struct(Product)8_storage"
			},
			"t_string_storage": {
				"encoding": "bytes",
				"label": "string",
				"numberOfBytes": "32"
			},
			"t_struct(Product)8_storage": {
				"encoding": "inplace",
				"label": "struct SupplyChain.Product",
				"members": [
					{
						"astId": 3,
						"contract": "contracts/mysmartcontract.sol:SupplyChain",
						"label": "id",
						"offset": 0,
						"slot": "0",
						"type": "t_uint256"
					},
					{
						"astId": 5,
						"contract": "contracts/mysmartcontract.sol:SupplyChain",
						"label": "name",
						"offset": 0,
						"slot": "1",
						"type": "t_string_storage"
					},
					{
						"astId": 7,
						"contract": "contracts/mysmartcontract.sol:SupplyChain",
						"label": "quantity",
						"offset": 0,
						"slot": "2",
						"type": "t_uint256"
					}
				],
				"numberOfBytes": "96"
			},
			"t_struct(Transaction)17_storage": {
				"encoding": "inplace",
				"label": "struct SupplyChain.Transaction",
				"members": [
					{
						"astId": 10,
						"contract": "contracts/mysmartcontract.sol:SupplyChain",
						"label": "productId",
						"offset": 0,
						"slot": "0",
						"type": "t_uint256"
					},
					{
						"astId": 12,
						"contract": "contracts/mysmartcontract.sol:SupplyChain",
						"label": "quantity",
						"offset": 0,
						"slot": "1",
						"type": "t_uint256"
					},
					{
						"astId": 14,
						"contract": "contracts/mysmartcontract.sol:SupplyChain",
						"label": "action",
						"offset": 0,
						"slot": "2",
						"type": "t_string_storage"
					},
					{
						"astId": 16,
						"contract": "contracts/mysmartcontract.sol:SupplyChain",
						"label": "timestamp",
						"offset": 0,
						"slot": "3",
						"type": "t_uint256"
					}
				],
				"numberOfBytes": "128"
			},
			"t_uint256": {
				"encoding": "inplace",
				"label": "uint256",
				"numberOfBytes": "32"
			}
		}
	},
	"web3Deploy": "var supplychainContract = new web3.eth.Contract([{\"anonymous\":false,\"inputs\":[{\"indexed\":false,\"internalType\":\"uint256\",\"name\":\"productId\",\"type\":\"uint256\"},{\"indexed\":false,\"internalType\":\"string\",\"name\":\"name\",\"type\":\"string\"},{\"indexed\":false,\"internalType\":\"uint256\",\"name\":\"quantity\",\"type\":\"uint256\"}],\"name\":\"ProductAdded\",\"type\":\"event\"},{\"anonymous\":false,\"inputs\":[{\"indexed\":false,\"internalType\":\"uint256\",\"name\":\"productId\",\"type\":\"uint256\"},{\"indexed\":false,\"internalType\":\"string\",\"name\":\"name\",\"type\":\"string\"},{\"indexed\":false,\"internalType\":\"uint256\",\"name\":\"quantity\",\"type\":\"uint256\"}],\"name\":\"ProductUpdated\",\"type\":\"event\"},{\"anonymous\":false,\"inputs\":[{\"indexed\":false,\"internalType\":\"uint256\",\"name\":\"productId\",\"type\":\"uint256\"},{\"indexed\":false,\"internalType\":\"uint256\",\"name\":\"quantity\",\"type\":\"uint256\"},{\"indexed\":false,\"internalType\":\"string\",\"name\":\"action\",\"type\":\"string\"},{\"indexed\":false,\"internalType\":\"uint256\",\"name\":\"timestamp\",\"type\":\"uint256\"}],\"name\":\"TransactionRecorded\",\"type\":\"event\"},{\"inputs\":[{\"internalType\":\"string\",\"name\":\"name\",\"type\":\"string\"},{\"internalType\":\"uint256\",\"name\":\"quantity\",\"type\":\"uint256\"}],\"name\":\"addProduct\",\"outputs\":[],\"stateMutability\":\"nonpayable\",\"type\":\"function\"},{\"inputs\":[{\"internalType\":\"uint256\",\"name\":\"id\",\"type\":\"uint256\"}],\"name\":\"getProduct\",\"outputs\":[{\"internalType\":\"string\",\"name\":\"name\",\"type\":\"string\"},{\"internalType\":\"uint256\",\"name\":\"quantity\",\"type\":\"uint256\"}],\"stateMutability\":\"view\",\"type\":\"function\"},{\"inputs\":[{\"internalType\":\"uint256\",\"name\":\"id\",\"type\":\"uint256\"}],\"name\":\"getProductTransactions\",\"outputs\":[{\"components\":[{\"internalType\":\"uint256\",\"name\":\"productId\",\"type\":\"uint256\"},{\"internalType\":\"uint256\",\"name\":\"quantity\",\"type\":\"uint256\"},{\"internalType\":\"string\",\"name\":\"action\",\"type\":\"string\"},{\"internalType\":\"uint256\",\"name\":\"timestamp\",\"type\":\"uint256\"}],\"internalType\":\"struct SupplyChain.Transaction[]\",\"name\":\"\",\"type\":\"tuple[]\"}],\"stateMutability\":\"view\",\"type\":\"function\"},{\"inputs\":[],\"name\":\"productCount\",\"outputs\":[{\"internalType\":\"uint256\",\"name\":\"\",\"type\":\"uint256\"}],\"stateMutability\":\"view\",\"type\":\"function\"},{\"inputs\":[{\"internalType\":\"uint256\",\"name\":\"\",\"type\":\"uint256\"},{\"internalType\":\"uint256\",\"name\":\"\",\"type\":\"uint256\"}],\"name\":\"productTransactions\",\"outputs\":[{\"internalType\":\"uint256\",\"name\":\"productId\",\"type\":\"uint256\"},{\"internalType\":\"uint256\",\"name\":\"quantity\",\"type\":\"uint256\"},{\"internalType\":\"string\",\"name\":\"action\",\"type\":\"string\"},{\"internalType\":\"uint256\",\"name\":\"timestamp\",\"type\":\"uint256\"}],\"stateMutability\":\"view\",\"type\":\"function\"},{\"inputs\":[{\"internalType\":\"uint256\",\"name\":\"\",\"type\":\"uint256\"}],\"name\":\"products\",\"outputs\":[{\"internalType\":\"uint256\",\"name\":\"id\",\"type\":\"uint256\"},{\"internalType\":\"string\",\"name\":\"name\",\"type\":\"string\"},{\"internalType\":\"uint256\",\"name\":\"quantity\",\"type\":\"uint256\"}],\"stateMutability\":\"view\",\"type\":\"function\"},{\"inputs\":[{\"internalType\":\"uint256\",\"name\":\"id\",\"type\":\"uint256\"},{\"internalType\":\"uint256\",\"name\":\"quantity\",\"type\":\"uint256\"},{\"internalType\":\"string\",\"name\":\"action\",\"type\":\"string\"}],\"name\":\"updateProduct\",\"outputs\":[],\"stateMutability\":\"nonpayable\",\"type\":\"function\"}]);\nvar supplychain = supplychainContract.deploy({\n     data: '0x6080604052348015600e575f80fd5b5061138b8061001c5f395ff3fe608060405234801561000f575f80fd5b506004361061007b575f3560e01c80639ab2dfa3116100595780639ab2dfa314610100578063b15247d914610130578063b9db15b41461014c578063e0f6ef871461017d5761007b565b8063259132d41461007f5780637acc0b20146100b257806399af9c03146100e4575b5f80fd5b61009960048036038101906100949190610848565b61019b565b6040516100a99493929190610905565b60405180910390f35b6100cc60048036038101906100c7919061094f565b610267565b6040516100db9392919061097a565b60405180910390f35b6100fe60048036038101906100f99190610ae2565b610312565b005b61011a6004803603810190610115919061094f565b61055a565b6040516101279190610cc0565b60405180910390f35b61014a60048036038101906101459190610ce0565b610674565b005b6101666004803603810190610161919061094f565b610726565b604051610174929190610d3a565b60405180910390f35b6101856107fe565b6040516101929190610d68565b60405180910390f35b6001602052815f5260405f2081815481106101b4575f80fd5b905f5260205f2090600402015f9150915050805f0154908060010154908060020180546101e090610dae565b80601f016020809104026020016040519081016040528092919081815260200182805461020c90610dae565b80156102575780601f1061022e57610100808354040283529160200191610257565b820191905f5260205f20905b81548152906001019060200180831161023a57829003601f168201915b5050505050908060030154905084565b5f602052805f5260405f205f91509050805f01549080600101805461028b90610dae565b80601f01602080910402602001604051908101604052809291908181526020018280546102b790610dae565b80156103025780601f106102d957610100808354040283529160200191610302565b820191905f5260205f20905b8154815290600101906020018083116102e557829003601f168201915b5050505050908060020154905083565b5f805f8581526020019081526020015f20905060405160200161033490610e32565b604051602081830303815290604052805190602001208260405160200161035b9190610e76565b60405160208183030381529060405280519060200120036103955782816002015f8282546103899190610eb9565b92505081905550610449565b6040516020016103a490610f36565b60405160208183030381529060405280519060200120826040516020016103cb9190610e76565b604051602081830303815290604052805190602001200361044857828160020154101561042d576040517f08c379a000000000000000000000000000000000000000000000000000000000815260040161042490610f94565b60405180910390fd5b82816002015f8282546104409190610fb2565b925050819055505b5b60015f8581526020019081526020015f20604051806080016040528086815260200185815260200184815260200142815250908060018154018082558091505060019003905f5260205f2090600402015f909190919091505f820151815f01556020820151816001015560408201518160020190816104c89190611182565b506060820151816003015550507ff9b1d9170fbe32752353e00d62e5276b143166c75aa974030dddfac2895601fe8482600101836002015460405161050f939291906112d2565b60405180910390a17f268d9aef58e041132c5baa4fe6f6c996e361d5516700ec40fb69100fc654068f8484844260405161054c9493929190610905565b60405180910390a150505050565b606060015f8381526020019081526020015f20805480602002602001604051908101604052809291908181526020015f905b82821015610669578382905f5260205f2090600402016040518060800160405290815f8201548152602001600182015481526020016002820180546105d090610dae565b80601f01602080910402602001604051908101604052809291908181526020018280546105fc90610dae565b80156106475780601f1061061e57610100808354040283529160200191610647565b820191905f5260205f20905b81548152906001019060200180831161062a57829003601f168201915b505050505081526020016003820154815250508152602001906001019061058c565b505050509050919050565b60025f8154809291906106869061130e565b919050555060405180606001604052806002548152602001838152602001828152505f8060025481526020019081526020015f205f820151815f015560208201518160010190816106d79190611182565b50604082015181600201559050507fcca07c742c5274e8b72111ba69566aa4442450bfc50bd897ea38d0170d1accfc600254838360405161071a9392919061097a565b60405180910390a15050565b60605f805f808581526020019081526020015f206040518060600160405290815f820154815260200160018201805461075e90610dae565b80601f016020809104026020016040519081016040528092919081815260200182805461078a90610dae565b80156107d55780601f106107ac576101008083540402835291602001916107d5565b820191905f5260205f20905b8154815290600101906020018083116107b857829003601f168201915b505050505081526020016002820154815250509050806020015181604001519250925050915091565b60025481565b5f604051905090565b5f80fd5b5f80fd5b5f819050919050565b61082781610815565b8114610831575f80fd5b50565b5f813590506108428161081e565b92915050565b5f806040838503121561085e5761085d61080d565b5b5f61086b85828601610834565b925050602061087c85828601610834565b9150509250929050565b61088f81610815565b82525050565b5f81519050919050565b5f82825260208201905092915050565b8281835e5f83830152505050565b5f601f19601f8301169050919050565b5f6108d782610895565b6108e1818561089f565b93506108f18185602086016108af565b6108fa816108bd565b840191505092915050565b5f6080820190506109185f830187610886565b6109256020830186610886565b818103604083015261093781856108cd565b90506109466060830184610886565b95945050505050565b5f602082840312156109645761096361080d565b5b5f61097184828501610834565b91505092915050565b5f60608201905061098d5f830186610886565b818103602083015261099f81856108cd565b90506109ae6040830184610886565b949350505050565b5f80fd5b5f80fd5b7f4e487b71000000000000000000000000000000000000000000000000000000005f52604160045260245ffd5b6109f4826108bd565b810181811067ffffffffffffffff82111715610a1357610a126109be565b5b80604052505050565b5f610a25610804565b9050610a3182826109eb565b919050565b5f67ffffffffffffffff821115610a5057610a4f6109be565b5b610a59826108bd565b9050602081019050919050565b828183375f83830152505050565b5f610a86610a8184610a36565b610a1c565b905082815260208101848484011115610aa257610aa16109ba565b5b610aad848285610a66565b509392505050565b5f82601f830112610ac957610ac86109b6565b5b8135610ad9848260208601610a74565b91505092915050565b5f805f60608486031215610af957610af861080d565b5b5f610b0686828701610834565b9350506020610b1786828701610834565b925050604084013567ffffffffffffffff811115610b3857610b37610811565b5b610b4486828701610ab5565b9150509250925092565b5f81519050919050565b5f82825260208201905092915050565b5f819050602082019050919050565b610b8081610815565b82525050565b5f82825260208201905092915050565b5f610ba082610895565b610baa8185610b86565b9350610bba8185602086016108af565b610bc3816108bd565b840191505092915050565b5f608083015f830151610be35f860182610b77565b506020830151610bf66020860182610b77565b5060408301518482036040860152610c0e8282610b96565b9150506060830151610c236060860182610b77565b508091505092915050565b5f610c398383610bce565b905092915050565b5f602082019050919050565b5f610c5782610b4e565b610c618185610b58565b935083602082028501610c7385610b68565b805f5b85811015610cae5784840389528151610c8f8582610c2e565b9450610c9a83610c41565b925060208a01995050600181019050610c76565b50829750879550505050505092915050565b5f6020820190508181035f830152610cd88184610c4d565b905092915050565b5f8060408385031215610cf657610cf561080d565b5b5f83013567ffffffffffffffff811115610d1357610d12610811565b5b610d1f85828601610ab5565b9250506020610d3085828601610834565b9150509250929050565b5f6040820190508181035f830152610d5281856108cd565b9050610d616020830184610886565b9392505050565b5f602082019050610d7b5f830184610886565b92915050565b7f4e487b71000000000000000000000000000000000000000000000000000000005f52602260045260245ffd5b5f6002820490506001821680610dc557607f821691505b602082108103610dd857610dd7610d81565b5b50919050565b5f81905092915050565b7f696d706f727400000000000000000000000000000000000000000000000000005f82015250565b5f610e1c600683610dde565b9150610e2782610de8565b600682019050919050565b5f610e3c82610e10565b9150819050919050565b5f610e5082610895565b610e5a8185610dde565b9350610e6a8185602086016108af565b80840191505092915050565b5f610e818284610e46565b915081905092915050565b7f4e487b71000000000000000000000000000000000000000000000000000000005f52601160045260245ffd5b5f610ec382610815565b9150610ece83610815565b9250828201905080821115610ee657610ee5610e8c565b5b92915050565b7f6578706f727400000000000000000000000000000000000000000000000000005f82015250565b5f610f20600683610dde565b9150610f2b82610eec565b600682019050919050565b5f610f4082610f14565b9150819050919050565b7f496e73756666696369656e742073746f636b00000000000000000000000000005f82015250565b5f610f7e60128361089f565b9150610f8982610f4a565b602082019050919050565b5f6020820190508181035f830152610fab81610f72565b9050919050565b5f610fbc82610815565b9150610fc783610815565b9250828203905081811115610fdf57610fde610e8c565b5b92915050565b5f819050815f5260205f209050919050565b5f6020601f8301049050919050565b5f82821b905092915050565b5f600883026110417fffffffffffffffffffffffffffffffffffffffffffffffffffffffffffffffff82611006565b61104b8683611006565b95508019841693508086168417925050509392505050565b5f819050919050565b5f61108661108161107c84610815565b611063565b610815565b9050919050565b5f819050919050565b61109f8361106c565b6110b36110ab8261108d565b848454611012565b825550505050565b5f90565b6110c76110bb565b6110d2818484611096565b505050565b5b818110156110f5576110ea5f826110bf565b6001810190506110d8565b5050565b601f82111561113a5761110b81610fe5565b61111484610ff7565b81016020851015611123578190505b61113761112f85610ff7565b8301826110d7565b50505b505050565b5f82821c905092915050565b5f61115a5f198460080261113f565b1980831691505092915050565b5f611172838361114b565b9150826002028217905092915050565b61118b82610895565b67ffffffffffffffff8111156111a4576111a36109be565b5b6111ae8254610dae565b6111b98282856110f9565b5f60209050601f8311600181146111ea575f84156111d8578287015190505b6111e28582611167565b865550611249565b601f1984166111f886610fe5565b5f5b8281101561121f578489015182556001820191506020850194506020810190506111fa565b8683101561123c5784890151611238601f89168261114b565b8355505b6001600288020188555050505b505050505050565b5f815461125d81610dae565b611267818661089f565b9450600182165f81146112815760018114611297576112c9565b60ff1983168652811515602002860193506112c9565b6112a085610fe5565b5f5b838110156112c1578154818901526001820191506020810190506112a2565b808801955050505b50505092915050565b5f6060820190506112e55f830186610886565b81810360208301526112f78185611251565b90506113066040830184610886565b949350505050565b5f61131882610815565b91507fffffffffffffffffffffffffffffffffffffffffffffffffffffffffffffffff820361134a57611349610e8c565b5b60018201905091905056fea2646970667358221220d058acb217f449a02a4cb235b542e66ee6e849c5c20c2dc3c1993a5475657fbd64736f6c634300081a0033', \n     arguments: [\n     ]\n}).send({\n     from: web3.eth.accounts[0], \n     gas: '4700000'\n   }, function (e, contract){\n    console.log(e, contract);\n    if (typeof contract.address !== 'undefined') {\n         console.log('Contract mined! address: ' + contract.address + ' transactionHash: ' + contract.transactionHash);\n    }\n })",
	"functionHashes": {
		"b15247d9": "addProduct(string,uint256)",
		"b9db15b4": "getProduct(uint256)",
		"9ab2dfa3": "getProductTransactions(uint256)",
		"e0f6ef87": "productCount()",
		"259132d4": "productTransactions(uint256,uint256)",
		"7acc0b20": "products(uint256)",
		"99af9c03": "updateProduct(uint256,uint256,string)"
	},
	"gasEstimates": {
		"Creation": {
			"codeDepositCost": "1000600",
			"executionCost": "1039",
			"totalCost": "1001639"
		},
		"External": {
			"addProduct(string,uint256)": "infinite",
			"getProduct(uint256)": "infinite",
			"getProductTransactions(uint256)": "infinite",
			"productCount()": "2491",
			"productTransactions(uint256,uint256)": "infinite",
			"products(uint256)": "infinite",
			"updateProduct(uint256,uint256,string)": "infinite"
		}
	},
	"devdoc": {
		"kind": "dev",
		"methods": {},
		"version": 1
	},
	"userdoc": {
		"kind": "user",
		"methods": {},
		"version": 1
	},
	"Runtime Bytecode": {
		"immutableReferences": {},
		"linkReferences": {},
		"object": "608060405234801561000f575f80fd5b506004361061007b575f3560e01c80639ab2dfa3116100595780639ab2dfa314610100578063b15247d914610130578063b9db15b41461014c578063e0f6ef871461017d5761007b565b8063259132d41461007f5780637acc0b20146100b257806399af9c03146100e4575b5f80fd5b61009960048036038101906100949190610848565b61019b565b6040516100a99493929190610905565b60405180910390f35b6100cc60048036038101906100c7919061094f565b610267565b6040516100db9392919061097a565b60405180910390f35b6100fe60048036038101906100f99190610ae2565b610312565b005b61011a6004803603810190610115919061094f565b61055a565b6040516101279190610cc0565b60405180910390f35b61014a60048036038101906101459190610ce0565b610674565b005b6101666004803603810190610161919061094f565b610726565b604051610174929190610d3a565b60405180910390f35b6101856107fe565b6040516101929190610d68565b60405180910390f35b6001602052815f5260405f2081815481106101b4575f80fd5b905f5260205f2090600402015f9150915050805f0154908060010154908060020180546101e090610dae565b80601f016020809104026020016040519081016040528092919081815260200182805461020c90610dae565b80156102575780601f1061022e57610100808354040283529160200191610257565b820191905f5260205f20905b81548152906001019060200180831161023a57829003601f168201915b5050505050908060030154905084565b5f602052805f5260405f205f91509050805f01549080600101805461028b90610dae565b80601f01602080910402602001604051908101604052809291908181526020018280546102b790610dae565b80156103025780601f106102d957610100808354040283529160200191610302565b820191905f5260205f20905b8154815290600101906020018083116102e557829003601f168201915b5050505050908060020154905083565b5f805f8581526020019081526020015f20905060405160200161033490610e32565b604051602081830303815290604052805190602001208260405160200161035b9190610e76565b60405160208183030381529060405280519060200120036103955782816002015f8282546103899190610eb9565b92505081905550610449565b6040516020016103a490610f36565b60405160208183030381529060405280519060200120826040516020016103cb9190610e76565b604051602081830303815290604052805190602001200361044857828160020154101561042d576040517f08c379a000000000000000000000000000000000000000000000000000000000815260040161042490610f94565b60405180910390fd5b82816002015f8282546104409190610fb2565b925050819055505b5b60015f8581526020019081526020015f20604051806080016040528086815260200185815260200184815260200142815250908060018154018082558091505060019003905f5260205f2090600402015f909190919091505f820151815f01556020820151816001015560408201518160020190816104c89190611182565b506060820151816003015550507ff9b1d9170fbe32752353e00d62e5276b143166c75aa974030dddfac2895601fe8482600101836002015460405161050f939291906112d2565b60405180910390a17f268d9aef58e041132c5baa4fe6f6c996e361d5516700ec40fb69100fc654068f8484844260405161054c9493929190610905565b60405180910390a150505050565b606060015f8381526020019081526020015f20805480602002602001604051908101604052809291908181526020015f905b82821015610669578382905f5260205f2090600402016040518060800160405290815f8201548152602001600182015481526020016002820180546105d090610dae565b80601f01602080910402602001604051908101604052809291908181526020018280546105fc90610dae565b80156106475780601f1061061e57610100808354040283529160200191610647565b820191905f5260205f20905b81548152906001019060200180831161062a57829003601f168201915b505050505081526020016003820154815250508152602001906001019061058c565b505050509050919050565b60025f8154809291906106869061130e565b919050555060405180606001604052806002548152602001838152602001828152505f8060025481526020019081526020015f205f820151815f015560208201518160010190816106d79190611182565b50604082015181600201559050507fcca07c742c5274e8b72111ba69566aa4442450bfc50bd897ea38d0170d1accfc600254838360405161071a9392919061097a565b60405180910390a15050565b60605f805f808581526020019081526020015f206040518060600160405290815f820154815260200160018201805461075e90610dae565b80601f016020809104026020016040519081016040528092919081815260200182805461078a90610dae565b80156107d55780601f106107ac576101008083540402835291602001916107d5565b820191905f5260205f20905b8154815290600101906020018083116107b857829003601f168201915b505050505081526020016002820154815250509050806020015181604001519250925050915091565b60025481565b5f604051905090565b5f80fd5b5f80fd5b5f819050919050565b61082781610815565b8114610831575f80fd5b50565b5f813590506108428161081e565b92915050565b5f806040838503121561085e5761085d61080d565b5b5f61086b85828601610834565b925050602061087c85828601610834565b9150509250929050565b61088f81610815565b82525050565b5f81519050919050565b5f82825260208201905092915050565b8281835e5f83830152505050565b5f601f19601f8301169050919050565b5f6108d782610895565b6108e1818561089f565b93506108f18185602086016108af565b6108fa816108bd565b840191505092915050565b5f6080820190506109185f830187610886565b6109256020830186610886565b818103604083015261093781856108cd565b90506109466060830184610886565b95945050505050565b5f602082840312156109645761096361080d565b5b5f61097184828501610834565b91505092915050565b5f60608201905061098d5f830186610886565b818103602083015261099f81856108cd565b90506109ae6040830184610886565b949350505050565b5f80fd5b5f80fd5b7f4e487b71000000000000000000000000000000000000000000000000000000005f52604160045260245ffd5b6109f4826108bd565b810181811067ffffffffffffffff82111715610a1357610a126109be565b5b80604052505050565b5f610a25610804565b9050610a3182826109eb565b919050565b5f67ffffffffffffffff821115610a5057610a4f6109be565b5b610a59826108bd565b9050602081019050919050565b828183375f83830152505050565b5f610a86610a8184610a36565b610a1c565b905082815260208101848484011115610aa257610aa16109ba565b5b610aad848285610a66565b509392505050565b5f82601f830112610ac957610ac86109b6565b5b8135610ad9848260208601610a74565b91505092915050565b5f805f60608486031215610af957610af861080d565b5b5f610b0686828701610834565b9350506020610b1786828701610834565b925050604084013567ffffffffffffffff811115610b3857610b37610811565b5b610b4486828701610ab5565b9150509250925092565b5f81519050919050565b5f82825260208201905092915050565b5f819050602082019050919050565b610b8081610815565b82525050565b5f82825260208201905092915050565b5f610ba082610895565b610baa8185610b86565b9350610bba8185602086016108af565b610bc3816108bd565b840191505092915050565b5f608083015f830151610be35f860182610b77565b506020830151610bf66020860182610b77565b5060408301518482036040860152610c0e8282610b96565b9150506060830151610c236060860182610b77565b508091505092915050565b5f610c398383610bce565b905092915050565b5f602082019050919050565b5f610c5782610b4e565b610c618185610b58565b935083602082028501610c7385610b68565b805f5b85811015610cae5784840389528151610c8f8582610c2e565b9450610c9a83610c41565b925060208a01995050600181019050610c76565b50829750879550505050505092915050565b5f6020820190508181035f830152610cd88184610c4d565b905092915050565b5f8060408385031215610cf657610cf561080d565b5b5f83013567ffffffffffffffff811115610d1357610d12610811565b5b610d1f85828601610ab5565b9250506020610d3085828601610834565b9150509250929050565b5f6040820190508181035f830152610d5281856108cd565b9050610d616020830184610886565b9392505050565b5f602082019050610d7b5f830184610886565b92915050565b7f4e487b71000000000000000000000000000000000000000000000000000000005f52602260045260245ffd5b5f6002820490506001821680610dc557607f821691505b602082108103610dd857610dd7610d81565b5b50919050565b5f81905092915050565b7f696d706f727400000000000000000000000000000000000000000000000000005f82015250565b5f610e1c600683610dde565b9150610e2782610de8565b600682019050919050565b5f610e3c82610e10565b9150819050919050565b5f610e5082610895565b610e5a8185610dde565b9350610e6a8185602086016108af565b80840191505092915050565b5f610e818284610e46565b915081905092915050565b7f4e487b71000000000000000000000000000000000000000000000000000000005f52601160045260245ffd5b5f610ec382610815565b9150610ece83610815565b9250828201905080821115610ee657610ee5610e8c565b5b92915050565b7f6578706f727400000000000000000000000000000000000000000000000000005f82015250565b5f610f20600683610dde565b9150610f2b82610eec565b600682019050919050565b5f610f4082610f14565b9150819050919050565b7f496e73756666696369656e742073746f636b00000000000000000000000000005f82015250565b5f610f7e60128361089f565b9150610f8982610f4a565b602082019050919050565b5f6020820190508181035f830152610fab81610f72565b9050919050565b5f610fbc82610815565b9150610fc783610815565b9250828203905081811115610fdf57610fde610e8c565b5b92915050565b5f819050815f5260205f209050919050565b5f6020601f8301049050919050565b5f82821b905092915050565b5f600883026110417fffffffffffffffffffffffffffffffffffffffffffffffffffffffffffffffff82611006565b61104b8683611006565b95508019841693508086168417925050509392505050565b5f819050919050565b5f61108661108161107c84610815565b611063565b610815565b9050919050565b5f819050919050565b61109f8361106c565b6110b36110ab8261108d565b848454611012565b825550505050565b5f90565b6110c76110bb565b6110d2818484611096565b505050565b5b818110156110f5576110ea5f826110bf565b6001810190506110d8565b5050565b601f82111561113a5761110b81610fe5565b61111484610ff7565b81016020851015611123578190505b61113761112f85610ff7565b8301826110d7565b50505b505050565b5f82821c905092915050565b5f61115a5f198460080261113f565b1980831691505092915050565b5f611172838361114b565b9150826002028217905092915050565b61118b82610895565b67ffffffffffffffff8111156111a4576111a36109be565b5b6111ae8254610dae565b6111b98282856110f9565b5f60209050601f8311600181146111ea575f84156111d8578287015190505b6111e28582611167565b865550611249565b601f1984166111f886610fe5565b5f5b8281101561121f578489015182556001820191506020850194506020810190506111fa565b8683101561123c5784890151611238601f89168261114b565b8355505b6001600288020188555050505b505050505050565b5f815461125d81610dae565b611267818661089f565b9450600182165f81146112815760018114611297576112c9565b60ff1983168652811515602002860193506112c9565b6112a085610fe5565b5f5b838110156112c1578154818901526001820191506020810190506112a2565b808801955050505b50505092915050565b5f6060820190506112e55f830186610886565b81810360208301526112f78185611251565b90506113066040830184610886565b949350505050565b5f61131882610815565b91507fffffffffffffffffffffffffffffffffffffffffffffffffffffffffffffffff820361134a57611349610e8c565b5b60018201905091905056fea2646970667358221220d058acb217f449a02a4cb235b542e66ee6e849c5c20c2dc3c1993a5475657fbd64736f6c634300081a0033",
		"opcodes": "PUSH1 0x80 PUSH1 0x40 MSTORE CALLVALUE DUP1 ISZERO PUSH2 0xF JUMPI PUSH0 DUP1 REVERT JUMPDEST POP PUSH1 0x4 CALLDATASIZE LT PUSH2 0x7B JUMPI PUSH0 CALLDATALOAD PUSH1 0xE0 SHR DUP1 PUSH4 0x9AB2DFA3 GT PUSH2 0x59 JUMPI DUP1 PUSH4 0x9AB2DFA3 EQ PUSH2 0x100 JUMPI DUP1 PUSH4 0xB15247D9 EQ PUSH2 0x130 JUMPI DUP1 PUSH4 0xB9DB15B4 EQ PUSH2 0x14C JUMPI DUP1 PUSH4 0xE0F6EF87 EQ PUSH2 0x17D JUMPI PUSH2 0x7B JUMP JUMPDEST DUP1 PUSH4 0x259132D4 EQ PUSH2 0x7F JUMPI DUP1 PUSH4 0x7ACC0B20 EQ PUSH2 0xB2 JUMPI DUP1 PUSH4 0x99AF9C03 EQ PUSH2 0xE4 JUMPI JUMPDEST PUSH0 DUP1 REVERT JUMPDEST PUSH2 0x99 PUSH1 0x4 DUP1 CALLDATASIZE SUB DUP2 ADD SWAP1 PUSH2 0x94 SWAP2 SWAP1 PUSH2 0x848 JUMP JUMPDEST PUSH2 0x19B JUMP JUMPDEST PUSH1 0x40 MLOAD PUSH2 0xA9 SWAP5 SWAP4 SWAP3 SWAP2 SWAP1 PUSH2 0x905 JUMP JUMPDEST PUSH1 0x40 MLOAD DUP1 SWAP2 SUB SWAP1 RETURN JUMPDEST PUSH2 0xCC PUSH1 0x4 DUP1 CALLDATASIZE SUB DUP2 ADD SWAP1 PUSH2 0xC7 SWAP2 SWAP1 PUSH2 0x94F JUMP JUMPDEST PUSH2 0x267 JUMP JUMPDEST PUSH1 0x40 MLOAD PUSH2 0xDB SWAP4 SWAP3 SWAP2 SWAP1 PUSH2 0x97A JUMP JUMPDEST PUSH1 0x40 MLOAD DUP1 SWAP2 SUB SWAP1 RETURN JUMPDEST PUSH2 0xFE PUSH1 0x4 DUP1 CALLDATASIZE SUB DUP2 ADD SWAP1 PUSH2 0xF9 SWAP2 SWAP1 PUSH2 0xAE2 JUMP JUMPDEST PUSH2 0x312 JUMP JUMPDEST STOP JUMPDEST PUSH2 0x11A PUSH1 0x4 DUP1 CALLDATASIZE SUB DUP2 ADD SWAP1 PUSH2 0x115 SWAP2 SWAP1 PUSH2 0x94F JUMP JUMPDEST PUSH2 0x55A JUMP JUMPDEST PUSH1 0x40 MLOAD PUSH2 0x127 SWAP2 SWAP1 PUSH2 0xCC0 JUMP JUMPDEST PUSH1 0x40 MLOAD DUP1 SWAP2 SUB SWAP1 RETURN JUMPDEST PUSH2 0x14A PUSH1 0x4 DUP1 CALLDATASIZE SUB DUP2 ADD SWAP1 PUSH2 0x145 SWAP2 SWAP1 PUSH2 0xCE0 JUMP JUMPDEST PUSH2 0x674 JUMP JUMPDEST STOP JUMPDEST PUSH2 0x166 PUSH1 0x4 DUP1 CALLDATASIZE SUB DUP2 ADD SWAP1 PUSH2 0x161 SWAP2 SWAP1 PUSH2 0x94F JUMP JUMPDEST PUSH2 0x726 JUMP JUMPDEST PUSH1 0x40 MLOAD PUSH2 0x174 SWAP3 SWAP2 SWAP1 PUSH2 0xD3A JUMP JUMPDEST PUSH1 0x40 MLOAD DUP1 SWAP2 SUB SWAP1 RETURN JUMPDEST PUSH2 0x185 PUSH2 0x7FE JUMP JUMPDEST PUSH1 0x40 MLOAD PUSH2 0x192 SWAP2 SWAP1 PUSH2 0xD68 JUMP JUMPDEST PUSH1 0x40 MLOAD DUP1 SWAP2 SUB SWAP1 RETURN JUMPDEST PUSH1 0x1 PUSH1 0x20 MSTORE DUP2 PUSH0 MSTORE PUSH1 0x40 PUSH0 KECCAK256 DUP2 DUP2 SLOAD DUP2 LT PUSH2 0x1B4 JUMPI PUSH0 DUP1 REVERT JUMPDEST SWAP1 PUSH0 MSTORE PUSH1 0x20 PUSH0 KECCAK256 SWAP1 PUSH1 0x4 MUL ADD PUSH0 SWAP2 POP SWAP2 POP POP DUP1 PUSH0 ADD SLOAD SWAP1 DUP1 PUSH1 0x1 ADD SLOAD SWAP1 DUP1 PUSH1 0x2 ADD DUP1 SLOAD PUSH2 0x1E0 SWAP1 PUSH2 0xDAE JUMP JUMPDEST DUP1 PUSH1 0x1F ADD PUSH1 0x20 DUP1 SWAP2 DIV MUL PUSH1 0x20 ADD PUSH1 0x40 MLOAD SWAP1 DUP2 ADD PUSH1 0x40 MSTORE DUP1 SWAP3 SWAP2 SWAP1 DUP2 DUP2 MSTORE PUSH1 0x20 ADD DUP3 DUP1 SLOAD PUSH2 0x20C SWAP1 PUSH2 0xDAE JUMP JUMPDEST DUP1 ISZERO PUSH2 0x257 JUMPI DUP1 PUSH1 0x1F LT PUSH2 0x22E JUMPI PUSH2 0x100 DUP1 DUP4 SLOAD DIV MUL DUP4 MSTORE SWAP2 PUSH1 0x20 ADD SWAP2 PUSH2 0x257 JUMP JUMPDEST DUP3 ADD SWAP2 SWAP1 PUSH0 MSTORE PUSH1 0x20 PUSH0 KECCAK256 SWAP1 JUMPDEST DUP2 SLOAD DUP2 MSTORE SWAP1 PUSH1 0x1 ADD SWAP1 PUSH1 0x20 ADD DUP1 DUP4 GT PUSH2 0x23A JUMPI DUP3 SWAP1 SUB PUSH1 0x1F AND DUP3 ADD SWAP2 JUMPDEST POP POP POP POP POP SWAP1 DUP1 PUSH1 0x3 ADD SLOAD SWAP1 POP DUP5 JUMP JUMPDEST PUSH0 PUSH1 0x20 MSTORE DUP1 PUSH0 MSTORE PUSH1 0x40 PUSH0 KECCAK256 PUSH0 SWAP2 POP SWAP1 POP DUP1 PUSH0 ADD SLOAD SWAP1 DUP1 PUSH1 0x1 ADD DUP1 SLOAD PUSH2 0x28B SWAP1 PUSH2 0xDAE JUMP JUMPDEST DUP1 PUSH1 0x1F ADD PUSH1 0x20 DUP1 SWAP2 DIV MUL PUSH1 0x20 ADD PUSH1 0x40 MLOAD SWAP1 DUP2 ADD PUSH1 0x40 MSTORE DUP1 SWAP3 SWAP2 SWAP1 DUP2 DUP2 MSTORE PUSH1 0x20 ADD DUP3 DUP1 SLOAD PUSH2 0x2B7 SWAP1 PUSH2 0xDAE JUMP JUMPDEST DUP1 ISZERO PUSH2 0x302 JUMPI DUP1 PUSH1 0x1F LT PUSH2 0x2D9 JUMPI PUSH2 0x100 DUP1 DUP4 SLOAD DIV MUL DUP4 MSTORE SWAP2 PUSH1 0x20 ADD SWAP2 PUSH2 0x302 JUMP JUMPDEST DUP3 ADD SWAP2 SWAP1 PUSH0 MSTORE PUSH1 0x20 PUSH0 KECCAK256 SWAP1 JUMPDEST DUP2 SLOAD DUP2 MSTORE SWAP1 PUSH1 0x1 ADD SWAP1 PUSH1 0x20 ADD DUP1 DUP4 GT PUSH2 0x2E5 JUMPI DUP3 SWAP1 SUB PUSH1 0x1F AND DUP3 ADD SWAP2 JUMPDEST POP POP POP POP POP SWAP1 DUP1 PUSH1 0x2 ADD SLOAD SWAP1 POP DUP4 JUMP JUMPDEST PUSH0 DUP1 PUSH0 DUP6 DUP2 MSTORE PUSH1 0x20 ADD SWAP1 DUP2 MSTORE PUSH1 0x20 ADD PUSH0 KECCAK256 SWAP1 POP PUSH1 0x40 MLOAD PUSH1 0x20 ADD PUSH2 0x334 SWAP1 PUSH2 0xE32 JUMP JUMPDEST PUSH1 0x40 MLOAD PUSH1 0x20 DUP2 DUP4 SUB SUB DUP2 MSTORE SWAP1 PUSH1 0x40 MSTORE DUP1 MLOAD SWAP1 PUSH1 0x20 ADD KECCAK256 DUP3 PUSH1 0x40 MLOAD PUSH1 0x20 ADD PUSH2 0x35B SWAP2 SWAP1 PUSH2 0xE76 JUMP JUMPDEST PUSH1 0x40 MLOAD PUSH1 0x20 DUP2 DUP4 SUB SUB DUP2 MSTORE SWAP1 PUSH1 0x40 MSTORE DUP1 MLOAD SWAP1 PUSH1 0x20 ADD KECCAK256 SUB PUSH2 0x395 JUMPI DUP3 DUP2 PUSH1 0x2 ADD PUSH0 DUP3 DUP3 SLOAD PUSH2 0x389 SWAP2 SWAP1 PUSH2 0xEB9 JUMP JUMPDEST SWAP3 POP POP DUP2 SWAP1 SSTORE POP PUSH2 0x449 JUMP JUMPDEST PUSH1 0x40 MLOAD PUSH1 0x20 ADD PUSH2 0x3A4 SWAP1 PUSH2 0xF36 JUMP JUMPDEST PUSH1 0x40 MLOAD PUSH1 0x20 DUP2 DUP4 SUB SUB DUP2 MSTORE SWAP1 PUSH1 0x40 MSTORE DUP1 MLOAD SWAP1 PUSH1 0x20 ADD KECCAK256 DUP3 PUSH1 0x40 MLOAD PUSH1 0x20 ADD PUSH2 0x3CB SWAP2 SWAP1 PUSH2 0xE76 JUMP JUMPDEST PUSH1 0x40 MLOAD PUSH1 0x20 DUP2 DUP4 SUB SUB DUP2 MSTORE SWAP1 PUSH1 0x40 MSTORE DUP1 MLOAD SWAP1 PUSH1 0x20 ADD KECCAK256 SUB PUSH2 0x448 JUMPI DUP3 DUP2 PUSH1 0x2 ADD SLOAD LT ISZERO PUSH2 0x42D JUMPI PUSH1 0x40 MLOAD PUSH32 0x8C379A000000000000000000000000000000000000000000000000000000000 DUP2 MSTORE PUSH1 0x4 ADD PUSH2 0x424 SWAP1 PUSH2 0xF94 JUMP JUMPDEST PUSH1 0x40 MLOAD DUP1 SWAP2 SUB SWAP1 REVERT JUMPDEST DUP3 DUP2 PUSH1 0x2 ADD PUSH0 DUP3 DUP3 SLOAD PUSH2 0x440 SWAP2 SWAP1 PUSH2 0xFB2 JUMP JUMPDEST SWAP3 POP POP DUP2 SWAP1 SSTORE POP JUMPDEST JUMPDEST PUSH1 0x1 PUSH0 DUP6 DUP2 MSTORE PUSH1 0x20 ADD SWAP1 DUP2 MSTORE PUSH1 0x20 ADD PUSH0 KECCAK256 PUSH1 0x40 MLOAD DUP1 PUSH1 0x80 ADD PUSH1 0x40 MSTORE DUP1 DUP7 DUP2 MSTORE PUSH1 0x20 ADD DUP6 DUP2 MSTORE PUSH1 0x20 ADD DUP5 DUP2 MSTORE PUSH1 0x20 ADD TIMESTAMP DUP2 MSTORE POP SWAP1 DUP1 PUSH1 0x1 DUP2 SLOAD ADD DUP1 DUP3 SSTORE DUP1 SWAP2 POP POP PUSH1 0x1 SWAP1 SUB SWAP1 PUSH0 MSTORE PUSH1 0x20 PUSH0 KECCAK256 SWAP1 PUSH1 0x4 MUL ADD PUSH0 SWAP1 SWAP2 SWAP1 SWAP2 SWAP1 SWAP2 POP PUSH0 DUP3 ADD MLOAD DUP2 PUSH0 ADD SSTORE PUSH1 0x20 DUP3 ADD MLOAD DUP2 PUSH1 0x1 ADD SSTORE PUSH1 0x40 DUP3 ADD MLOAD DUP2 PUSH1 0x2 ADD SWAP1 DUP2 PUSH2 0x4C8 SWAP2 SWAP1 PUSH2 0x1182 JUMP JUMPDEST POP PUSH1 0x60 DUP3 ADD MLOAD DUP2 PUSH1 0x3 ADD SSTORE POP POP PUSH32 0xF9B1D9170FBE32752353E00D62E5276B143166C75AA974030DDDFAC2895601FE DUP5 DUP3 PUSH1 0x1 ADD DUP4 PUSH1 0x2 ADD SLOAD PUSH1 0x40 MLOAD PUSH2 0x50F SWAP4 SWAP3 SWAP2 SWAP1 PUSH2 0x12D2 JUMP JUMPDEST PUSH1 0x40 MLOAD DUP1 SWAP2 SUB SWAP1 LOG1 PUSH32 0x268D9AEF58E041132C5BAA4FE6F6C996E361D5516700EC40FB69100FC654068F DUP5 DUP5 DUP5 TIMESTAMP PUSH1 0x40 MLOAD PUSH2 0x54C SWAP5 SWAP4 SWAP3 SWAP2 SWAP1 PUSH2 0x905 JUMP JUMPDEST PUSH1 0x40 MLOAD DUP1 SWAP2 SUB SWAP1 LOG1 POP POP POP POP JUMP JUMPDEST PUSH1 0x60 PUSH1 0x1 PUSH0 DUP4 DUP2 MSTORE PUSH1 0x20 ADD SWAP1 DUP2 MSTORE PUSH1 0x20 ADD PUSH0 KECCAK256 DUP1 SLOAD DUP1 PUSH1 0x20 MUL PUSH1 0x20 ADD PUSH1 0x40 MLOAD SWAP1 DUP2 ADD PUSH1 0x40 MSTORE DUP1 SWAP3 SWAP2 SWAP1 DUP2 DUP2 MSTORE PUSH1 0x20 ADD PUSH0 SWAP1 JUMPDEST DUP3 DUP3 LT ISZERO PUSH2 0x669 JUMPI DUP4 DUP3 SWAP1 PUSH0 MSTORE PUSH1 0x20 PUSH0 KECCAK256 SWAP1 PUSH1 0x4 MUL ADD PUSH1 0x40 MLOAD DUP1 PUSH1 0x80 ADD PUSH1 0x40 MSTORE SWAP1 DUP2 PUSH0 DUP3 ADD SLOAD DUP2 MSTORE PUSH1 0x20 ADD PUSH1 0x1 DUP3 ADD SLOAD DUP2 MSTORE PUSH1 0x20 ADD PUSH1 0x2 DUP3 ADD DUP1 SLOAD PUSH2 0x5D0 SWAP1 PUSH2 0xDAE JUMP JUMPDEST DUP1 PUSH1 0x1F ADD PUSH1 0x20 DUP1 SWAP2 DIV MUL PUSH1 0x20 ADD PUSH1 0x40 MLOAD SWAP1 DUP2 ADD PUSH1 0x40 MSTORE DUP1 SWAP3 SWAP2 SWAP1 DUP2 DUP2 MSTORE PUSH1 0x20 ADD DUP3 DUP1 SLOAD PUSH2 0x5FC SWAP1 PUSH2 0xDAE JUMP JUMPDEST DUP1 ISZERO PUSH2 0x647 JUMPI DUP1 PUSH1 0x1F LT PUSH2 0x61E JUMPI PUSH2 0x100 DUP1 DUP4 SLOAD DIV MUL DUP4 MSTORE SWAP2 PUSH1 0x20 ADD SWAP2 PUSH2 0x647 JUMP JUMPDEST DUP3 ADD SWAP2 SWAP1 PUSH0 MSTORE PUSH1 0x20 PUSH0 KECCAK256 SWAP1 JUMPDEST DUP2 SLOAD DUP2 MSTORE SWAP1 PUSH1 0x1 ADD SWAP1 PUSH1 0x20 ADD DUP1 DUP4 GT PUSH2 0x62A JUMPI DUP3 SWAP1 SUB PUSH1 0x1F AND DUP3 ADD SWAP2 JUMPDEST POP POP POP POP POP DUP2 MSTORE PUSH1 0x20 ADD PUSH1 0x3 DUP3 ADD SLOAD DUP2 MSTORE POP POP DUP2 MSTORE PUSH1 0x20 ADD SWAP1 PUSH1 0x1 ADD SWAP1 PUSH2 0x58C JUMP JUMPDEST POP POP POP POP SWAP1 POP SWAP2 SWAP1 POP JUMP JUMPDEST PUSH1 0x2 PUSH0 DUP2 SLOAD DUP1 SWAP3 SWAP2 SWAP1 PUSH2 0x686 SWAP1 PUSH2 0x130E JUMP JUMPDEST SWAP2 SWAP1 POP SSTORE POP PUSH1 0x40 MLOAD DUP1 PUSH1 0x60 ADD PUSH1 0x40 MSTORE DUP1 PUSH1 0x2 SLOAD DUP2 MSTORE PUSH1 0x20 ADD DUP4 DUP2 MSTORE PUSH1 0x20 ADD DUP3 DUP2 MSTORE POP PUSH0 DUP1 PUSH1 0x2 SLOAD DUP2 MSTORE PUSH1 0x20 ADD SWAP1 DUP2 MSTORE PUSH1 0x20 ADD PUSH0 KECCAK256 PUSH0 DUP3 ADD MLOAD DUP2 PUSH0 ADD SSTORE PUSH1 0x20 DUP3 ADD MLOAD DUP2 PUSH1 0x1 ADD SWAP1 DUP2 PUSH2 0x6D7 SWAP2 SWAP1 PUSH2 0x1182 JUMP JUMPDEST POP PUSH1 0x40 DUP3 ADD MLOAD DUP2 PUSH1 0x2 ADD SSTORE SWAP1 POP POP PUSH32 0xCCA07C742C5274E8B72111BA69566AA4442450BFC50BD897EA38D0170D1ACCFC PUSH1 0x2 SLOAD DUP4 DUP4 PUSH1 0x40 MLOAD PUSH2 0x71A SWAP4 SWAP3 SWAP2 SWAP1 PUSH2 0x97A JUMP JUMPDEST PUSH1 0x40 MLOAD DUP1 SWAP2 SUB SWAP1 LOG1 POP POP JUMP JUMPDEST PUSH1 0x60 PUSH0 DUP1 PUSH0 DUP1 DUP6 DUP2 MSTORE PUSH1 0x20 ADD SWAP1 DUP2 MSTORE PUSH1 0x20 ADD PUSH0 KECCAK256 PUSH1 0x40 MLOAD DUP1 PUSH1 0x60 ADD PUSH1 0x40 MSTORE SWAP1 DUP2 PUSH0 DUP3 ADD SLOAD DUP2 MSTORE PUSH1 0x20 ADD PUSH1 0x1 DUP3 ADD DUP1 SLOAD PUSH2 0x75E SWAP1 PUSH2 0xDAE JUMP JUMPDEST DUP1 PUSH1 0x1F ADD PUSH1 0x20 DUP1 SWAP2 DIV MUL PUSH1 0x20 ADD PUSH1 0x40 MLOAD SWAP1 DUP2 ADD PUSH1 0x40 MSTORE DUP1 SWAP3 SWAP2 SWAP1 DUP2 DUP2 MSTORE PUSH1 0x20 ADD DUP3 DUP1 SLOAD PUSH2 0x78A SWAP1 PUSH2 0xDAE JUMP JUMPDEST DUP1 ISZERO PUSH2 0x7D5 JUMPI DUP1 PUSH1 0x1F LT PUSH2 0x7AC JUMPI PUSH2 0x100 DUP1 DUP4 SLOAD DIV MUL DUP4 MSTORE SWAP2 PUSH1 0x20 ADD SWAP2 PUSH2 0x7D5 JUMP JUMPDEST DUP3 ADD SWAP2 SWAP1 PUSH0 MSTORE PUSH1 0x20 PUSH0 KECCAK256 SWAP1 JUMPDEST DUP2 SLOAD DUP2 MSTORE SWAP1 PUSH1 0x1 ADD SWAP1 PUSH1 0x20 ADD DUP1 DUP4 GT PUSH2 0x7B8 JUMPI DUP3 SWAP1 SUB PUSH1 0x1F AND DUP3 ADD SWAP2 JUMPDEST POP POP POP POP POP DUP2 MSTORE PUSH1 0x20 ADD PUSH1 0x2 DUP3 ADD SLOAD DUP2 MSTORE POP POP SWAP1 POP DUP1 PUSH1 0x20 ADD MLOAD DUP2 PUSH1 0x40 ADD MLOAD SWAP3 POP SWAP3 POP POP SWAP2 POP SWAP2 JUMP JUMPDEST PUSH1 0x2 SLOAD DUP2 JUMP JUMPDEST PUSH0 PUSH1 0x40 MLOAD SWAP1 POP SWAP1 JUMP JUMPDEST PUSH0 DUP1 REVERT JUMPDEST PUSH0 DUP1 REVERT JUMPDEST PUSH0 DUP2 SWAP1 POP SWAP2 SWAP1 POP JUMP JUMPDEST PUSH2 0x827 DUP2 PUSH2 0x815 JUMP JUMPDEST DUP2 EQ PUSH2 0x831 JUMPI PUSH0 DUP1 REVERT JUMPDEST POP JUMP JUMPDEST PUSH0 DUP2 CALLDATALOAD SWAP1 POP PUSH2 0x842 DUP2 PUSH2 0x81E JUMP JUMPDEST SWAP3 SWAP2 POP POP JUMP JUMPDEST PUSH0 DUP1 PUSH1 0x40 DUP4 DUP6 SUB SLT ISZERO PUSH2 0x85E JUMPI PUSH2 0x85D PUSH2 0x80D JUMP JUMPDEST JUMPDEST PUSH0 PUSH2 0x86B DUP6 DUP3 DUP7 ADD PUSH2 0x834 JUMP JUMPDEST SWAP3 POP POP PUSH1 0x20 PUSH2 0x87C DUP6 DUP3 DUP7 ADD PUSH2 0x834 JUMP JUMPDEST SWAP2 POP POP SWAP3 POP SWAP3 SWAP1 POP JUMP JUMPDEST PUSH2 0x88F DUP2 PUSH2 0x815 JUMP JUMPDEST DUP3 MSTORE POP POP JUMP JUMPDEST PUSH0 DUP2 MLOAD SWAP1 POP SWAP2 SWAP1 POP JUMP JUMPDEST PUSH0 DUP3 DUP3 MSTORE PUSH1 0x20 DUP3 ADD SWAP1 POP SWAP3 SWAP2 POP POP JUMP JUMPDEST DUP3 DUP2 DUP4 MCOPY PUSH0 DUP4 DUP4 ADD MSTORE POP POP POP JUMP JUMPDEST PUSH0 PUSH1 0x1F NOT PUSH1 0x1F DUP4 ADD AND SWAP1 POP SWAP2 SWAP1 POP JUMP JUMPDEST PUSH0 PUSH2 0x8D7 DUP3 PUSH2 0x895 JUMP JUMPDEST PUSH2 0x8E1 DUP2 DUP6 PUSH2 0x89F JUMP JUMPDEST SWAP4 POP PUSH2 0x8F1 DUP2 DUP6 PUSH1 0x20 DUP7 ADD PUSH2 0x8AF JUMP JUMPDEST PUSH2 0x8FA DUP2 PUSH2 0x8BD JUMP JUMPDEST DUP5 ADD SWAP2 POP POP SWAP3 SWAP2 POP POP JUMP JUMPDEST PUSH0 PUSH1 0x80 DUP3 ADD SWAP1 POP PUSH2 0x918 PUSH0 DUP4 ADD DUP8 PUSH2 0x886 JUMP JUMPDEST PUSH2 0x925 PUSH1 0x20 DUP4 ADD DUP7 PUSH2 0x886 JUMP JUMPDEST DUP2 DUP2 SUB PUSH1 0x40 DUP4 ADD MSTORE PUSH2 0x937 DUP2 DUP6 PUSH2 0x8CD JUMP JUMPDEST SWAP1 POP PUSH2 0x946 PUSH1 0x60 DUP4 ADD DUP5 PUSH2 0x886 JUMP JUMPDEST SWAP6 SWAP5 POP POP POP POP POP JUMP JUMPDEST PUSH0 PUSH1 0x20 DUP3 DUP5 SUB SLT ISZERO PUSH2 0x964 JUMPI PUSH2 0x963 PUSH2 0x80D JUMP JUMPDEST JUMPDEST PUSH0 PUSH2 0x971 DUP5 DUP3 DUP6 ADD PUSH2 0x834 JUMP JUMPDEST SWAP2 POP POP SWAP3 SWAP2 POP POP JUMP JUMPDEST PUSH0 PUSH1 0x60 DUP3 ADD SWAP1 POP PUSH2 0x98D PUSH0 DUP4 ADD DUP7 PUSH2 0x886 JUMP JUMPDEST DUP2 DUP2 SUB PUSH1 0x20 DUP4 ADD MSTORE PUSH2 0x99F DUP2 DUP6 PUSH2 0x8CD JUMP JUMPDEST SWAP1 POP PUSH2 0x9AE PUSH1 0x40 DUP4 ADD DUP5 PUSH2 0x886 JUMP JUMPDEST SWAP5 SWAP4 POP POP POP POP JUMP JUMPDEST PUSH0 DUP1 REVERT JUMPDEST PUSH0 DUP1 REVERT JUMPDEST PUSH32 0x4E487B7100000000000000000000000000000000000000000000000000000000 PUSH0 MSTORE PUSH1 0x41 PUSH1 0x4 MSTORE PUSH1 0x24 PUSH0 REVERT JUMPDEST PUSH2 0x9F4 DUP3 PUSH2 0x8BD JUMP JUMPDEST DUP2 ADD DUP2 DUP2 LT PUSH8 0xFFFFFFFFFFFFFFFF DUP3 GT OR ISZERO PUSH2 0xA13 JUMPI PUSH2 0xA12 PUSH2 0x9BE JUMP JUMPDEST JUMPDEST DUP1 PUSH1 0x40 MSTORE POP POP POP JUMP JUMPDEST PUSH0 PUSH2 0xA25 PUSH2 0x804 JUMP JUMPDEST SWAP1 POP PUSH2 0xA31 DUP3 DUP3 PUSH2 0x9EB JUMP JUMPDEST SWAP2 SWAP1 POP JUMP JUMPDEST PUSH0 PUSH8 0xFFFFFFFFFFFFFFFF DUP3 GT ISZERO PUSH2 0xA50 JUMPI PUSH2 0xA4F PUSH2 0x9BE JUMP JUMPDEST JUMPDEST PUSH2 0xA59 DUP3 PUSH2 0x8BD JUMP JUMPDEST SWAP1 POP PUSH1 0x20 DUP2 ADD SWAP1 POP SWAP2 SWAP1 POP JUMP JUMPDEST DUP3 DUP2 DUP4 CALLDATACOPY PUSH0 DUP4 DUP4 ADD MSTORE POP POP POP JUMP JUMPDEST PUSH0 PUSH2 0xA86 PUSH2 0xA81 DUP5 PUSH2 0xA36 JUMP JUMPDEST PUSH2 0xA1C JUMP JUMPDEST SWAP1 POP DUP3 DUP2 MSTORE PUSH1 0x20 DUP2 ADD DUP5 DUP5 DUP5 ADD GT ISZERO PUSH2 0xAA2 JUMPI PUSH2 0xAA1 PUSH2 0x9BA JUMP JUMPDEST JUMPDEST PUSH2 0xAAD DUP5 DUP3 DUP6 PUSH2 0xA66 JUMP JUMPDEST POP SWAP4 SWAP3 POP POP POP JUMP JUMPDEST PUSH0 DUP3 PUSH1 0x1F DUP4 ADD SLT PUSH2 0xAC9 JUMPI PUSH2 0xAC8 PUSH2 0x9B6 JUMP JUMPDEST JUMPDEST DUP2 CALLDATALOAD PUSH2 0xAD9 DUP5 DUP3 PUSH1 0x20 DUP7 ADD PUSH2 0xA74 JUMP JUMPDEST SWAP2 POP POP SWAP3 SWAP2 POP POP JUMP JUMPDEST PUSH0 DUP1 PUSH0 PUSH1 0x60 DUP5 DUP7 SUB SLT ISZERO PUSH2 0xAF9 JUMPI PUSH2 0xAF8 PUSH2 0x80D JUMP JUMPDEST JUMPDEST PUSH0 PUSH2 0xB06 DUP7 DUP3 DUP8 ADD PUSH2 0x834 JUMP JUMPDEST SWAP4 POP POP PUSH1 0x20 PUSH2 0xB17 DUP7 DUP3 DUP8 ADD PUSH2 0x834 JUMP JUMPDEST SWAP3 POP POP PUSH1 0x40 DUP5 ADD CALLDATALOAD PUSH8 0xFFFFFFFFFFFFFFFF DUP2 GT ISZERO PUSH2 0xB38 JUMPI PUSH2 0xB37 PUSH2 0x811 JUMP JUMPDEST JUMPDEST PUSH2 0xB44 DUP7 DUP3 DUP8 ADD PUSH2 0xAB5 JUMP JUMPDEST SWAP2 POP POP SWAP3 POP SWAP3 POP SWAP3 JUMP JUMPDEST PUSH0 DUP2 MLOAD SWAP1 POP SWAP2 SWAP1 POP JUMP JUMPDEST PUSH0 DUP3 DUP3 MSTORE PUSH1 0x20 DUP3 ADD SWAP1 POP SWAP3 SWAP2 POP POP JUMP JUMPDEST PUSH0 DUP2 SWAP1 POP PUSH1 0x20 DUP3 ADD SWAP1 POP SWAP2 SWAP1 POP JUMP JUMPDEST PUSH2 0xB80 DUP2 PUSH2 0x815 JUMP JUMPDEST DUP3 MSTORE POP POP JUMP JUMPDEST PUSH0 DUP3 DUP3 MSTORE PUSH1 0x20 DUP3 ADD SWAP1 POP SWAP3 SWAP2 POP POP JUMP JUMPDEST PUSH0 PUSH2 0xBA0 DUP3 PUSH2 0x895 JUMP JUMPDEST PUSH2 0xBAA DUP2 DUP6 PUSH2 0xB86 JUMP JUMPDEST SWAP4 POP PUSH2 0xBBA DUP2 DUP6 PUSH1 0x20 DUP7 ADD PUSH2 0x8AF JUMP JUMPDEST PUSH2 0xBC3 DUP2 PUSH2 0x8BD JUMP JUMPDEST DUP5 ADD SWAP2 POP POP SWAP3 SWAP2 POP POP JUMP JUMPDEST PUSH0 PUSH1 0x80 DUP4 ADD PUSH0 DUP4 ADD MLOAD PUSH2 0xBE3 PUSH0 DUP7 ADD DUP3 PUSH2 0xB77 JUMP JUMPDEST POP PUSH1 0x20 DUP4 ADD MLOAD PUSH2 0xBF6 PUSH1 0x20 DUP7 ADD DUP3 PUSH2 0xB77 JUMP JUMPDEST POP PUSH1 0x40 DUP4 ADD MLOAD DUP5 DUP3 SUB PUSH1 0x40 DUP7 ADD MSTORE PUSH2 0xC0E DUP3 DUP3 PUSH2 0xB96 JUMP JUMPDEST SWAP2 POP POP PUSH1 0x60 DUP4 ADD MLOAD PUSH2 0xC23 PUSH1 0x60 DUP7 ADD DUP3 PUSH2 0xB77 JUMP JUMPDEST POP DUP1 SWAP2 POP POP SWAP3 SWAP2 POP POP JUMP JUMPDEST PUSH0 PUSH2 0xC39 DUP4 DUP4 PUSH2 0xBCE JUMP JUMPDEST SWAP1 POP SWAP3 SWAP2 POP POP JUMP JUMPDEST PUSH0 PUSH1 0x20 DUP3 ADD SWAP1 POP SWAP2 SWAP1 POP JUMP JUMPDEST PUSH0 PUSH2 0xC57 DUP3 PUSH2 0xB4E JUMP JUMPDEST PUSH2 0xC61 DUP2 DUP6 PUSH2 0xB58 JUMP JUMPDEST SWAP4 POP DUP4 PUSH1 0x20 DUP3 MUL DUP6 ADD PUSH2 0xC73 DUP6 PUSH2 0xB68 JUMP JUMPDEST DUP1 PUSH0 JUMPDEST DUP6 DUP2 LT ISZERO PUSH2 0xCAE JUMPI DUP5 DUP5 SUB DUP10 MSTORE DUP2 MLOAD PUSH2 0xC8F DUP6 DUP3 PUSH2 0xC2E JUMP JUMPDEST SWAP5 POP PUSH2 0xC9A DUP4 PUSH2 0xC41 JUMP JUMPDEST SWAP3 POP PUSH1 0x20 DUP11 ADD SWAP10 POP POP PUSH1 0x1 DUP2 ADD SWAP1 POP PUSH2 0xC76 JUMP JUMPDEST POP DUP3 SWAP8 POP DUP8 SWAP6 POP POP POP POP POP POP SWAP3 SWAP2 POP POP JUMP JUMPDEST PUSH0 PUSH1 0x20 DUP3 ADD SWAP1 POP DUP2 DUP2 SUB PUSH0 DUP4 ADD MSTORE PUSH2 0xCD8 DUP2 DUP5 PUSH2 0xC4D JUMP JUMPDEST SWAP1 POP SWAP3 SWAP2 POP POP JUMP JUMPDEST PUSH0 DUP1 PUSH1 0x40 DUP4 DUP6 SUB SLT ISZERO PUSH2 0xCF6 JUMPI PUSH2 0xCF5 PUSH2 0x80D JUMP JUMPDEST JUMPDEST PUSH0 DUP4 ADD CALLDATALOAD PUSH8 0xFFFFFFFFFFFFFFFF DUP2 GT ISZERO PUSH2 0xD13 JUMPI PUSH2 0xD12 PUSH2 0x811 JUMP JUMPDEST JUMPDEST PUSH2 0xD1F DUP6 DUP3 DUP7 ADD PUSH2 0xAB5 JUMP JUMPDEST SWAP3 POP POP PUSH1 0x20 PUSH2 0xD30 DUP6 DUP3 DUP7 ADD PUSH2 0x834 JUMP JUMPDEST SWAP2 POP POP SWAP3 POP SWAP3 SWAP1 POP JUMP JUMPDEST PUSH0 PUSH1 0x40 DUP3 ADD SWAP1 POP DUP2 DUP2 SUB PUSH0 DUP4 ADD MSTORE PUSH2 0xD52 DUP2 DUP6 PUSH2 0x8CD JUMP JUMPDEST SWAP1 POP PUSH2 0xD61 PUSH1 0x20 DUP4 ADD DUP5 PUSH2 0x886 JUMP JUMPDEST SWAP4 SWAP3 POP POP POP JUMP JUMPDEST PUSH0 PUSH1 0x20 DUP3 ADD SWAP1 POP PUSH2 0xD7B PUSH0 DUP4 ADD DUP5 PUSH2 0x886 JUMP JUMPDEST SWAP3 SWAP2 POP POP JUMP JUMPDEST PUSH32 0x4E487B7100000000000000000000000000000000000000000000000000000000 PUSH0 MSTORE PUSH1 0x22 PUSH1 0x4 MSTORE PUSH1 0x24 PUSH0 REVERT JUMPDEST PUSH0 PUSH1 0x2 DUP3 DIV SWAP1 POP PUSH1 0x1 DUP3 AND DUP1 PUSH2 0xDC5 JUMPI PUSH1 0x7F DUP3 AND SWAP2 POP JUMPDEST PUSH1 0x20 DUP3 LT DUP2 SUB PUSH2 0xDD8 JUMPI PUSH2 0xDD7 PUSH2 0xD81 JUMP JUMPDEST JUMPDEST POP SWAP2 SWAP1 POP JUMP JUMPDEST PUSH0 DUP2 SWAP1 POP SWAP3 SWAP2 POP POP JUMP JUMPDEST PUSH32 0x696D706F72740000000000000000000000000000000000000000000000000000 PUSH0 DUP3 ADD MSTORE POP JUMP JUMPDEST PUSH0 PUSH2 0xE1C PUSH1 0x6 DUP4 PUSH2 0xDDE JUMP JUMPDEST SWAP2 POP PUSH2 0xE27 DUP3 PUSH2 0xDE8 JUMP JUMPDEST PUSH1 0x6 DUP3 ADD SWAP1 POP SWAP2 SWAP1 POP JUMP JUMPDEST PUSH0 PUSH2 0xE3C DUP3 PUSH2 0xE10 JUMP JUMPDEST SWAP2 POP DUP2 SWAP1 POP SWAP2 SWAP1 POP JUMP JUMPDEST PUSH0 PUSH2 0xE50 DUP3 PUSH2 0x895 JUMP JUMPDEST PUSH2 0xE5A DUP2 DUP6 PUSH2 0xDDE JUMP JUMPDEST SWAP4 POP PUSH2 0xE6A DUP2 DUP6 PUSH1 0x20 DUP7 ADD PUSH2 0x8AF JUMP JUMPDEST DUP1 DUP5 ADD SWAP2 POP POP SWAP3 SWAP2 POP POP JUMP JUMPDEST PUSH0 PUSH2 0xE81 DUP3 DUP5 PUSH2 0xE46 JUMP JUMPDEST SWAP2 POP DUP2 SWAP1 POP SWAP3 SWAP2 POP POP JUMP JUMPDEST PUSH32 0x4E487B7100000000000000000000000000000000000000000000000000000000 PUSH0 MSTORE PUSH1 0x11 PUSH1 0x4 MSTORE PUSH1 0x24 PUSH0 REVERT JUMPDEST PUSH0 PUSH2 0xEC3 DUP3 PUSH2 0x815 JUMP JUMPDEST SWAP2 POP PUSH2 0xECE DUP4 PUSH2 0x815 JUMP JUMPDEST SWAP3 POP DUP3 DUP3 ADD SWAP1 POP DUP1 DUP3 GT ISZERO PUSH2 0xEE6 JUMPI PUSH2 0xEE5 PUSH2 0xE8C JUMP JUMPDEST JUMPDEST SWAP3 SWAP2 POP POP JUMP JUMPDEST PUSH32 0x6578706F72740000000000000000000000000000000000000000000000000000 PUSH0 DUP3 ADD MSTORE POP JUMP JUMPDEST PUSH0 PUSH2 0xF20 PUSH1 0x6 DUP4 PUSH2 0xDDE JUMP JUMPDEST SWAP2 POP PUSH2 0xF2B DUP3 PUSH2 0xEEC JUMP JUMPDEST PUSH1 0x6 DUP3 ADD SWAP1 POP SWAP2 SWAP1 POP JUMP JUMPDEST PUSH0 PUSH2 0xF40 DUP3 PUSH2 0xF14 JUMP JUMPDEST SWAP2 POP DUP2 SWAP1 POP SWAP2 SWAP1 POP JUMP JUMPDEST PUSH32 0x496E73756666696369656E742073746F636B0000000000000000000000000000 PUSH0 DUP3 ADD MSTORE POP JUMP JUMPDEST PUSH0 PUSH2 0xF7E PUSH1 0x12 DUP4 PUSH2 0x89F JUMP JUMPDEST SWAP2 POP PUSH2 0xF89 DUP3 PUSH2 0xF4A JUMP JUMPDEST PUSH1 0x20 DUP3 ADD SWAP1 POP SWAP2 SWAP1 POP JUMP JUMPDEST PUSH0 PUSH1 0x20 DUP3 ADD SWAP1 POP DUP2 DUP2 SUB PUSH0 DUP4 ADD MSTORE PUSH2 0xFAB DUP2 PUSH2 0xF72 JUMP JUMPDEST SWAP1 POP SWAP2 SWAP1 POP JUMP JUMPDEST PUSH0 PUSH2 0xFBC DUP3 PUSH2 0x815 JUMP JUMPDEST SWAP2 POP PUSH2 0xFC7 DUP4 PUSH2 0x815 JUMP JUMPDEST SWAP3 POP DUP3 DUP3 SUB SWAP1 POP DUP2 DUP2 GT ISZERO PUSH2 0xFDF JUMPI PUSH2 0xFDE PUSH2 0xE8C JUMP JUMPDEST JUMPDEST SWAP3 SWAP2 POP POP JUMP JUMPDEST PUSH0 DUP2 SWAP1 POP DUP2 PUSH0 MSTORE PUSH1 0x20 PUSH0 KECCAK256 SWAP1 POP SWAP2 SWAP1 POP JUMP JUMPDEST PUSH0 PUSH1 0x20 PUSH1 0x1F DUP4 ADD DIV SWAP1 POP SWAP2 SWAP1 POP JUMP JUMPDEST PUSH0 DUP3 DUP3 SHL SWAP1 POP SWAP3 SWAP2 POP POP JUMP JUMPDEST PUSH0 PUSH1 0x8 DUP4 MUL PUSH2 0x1041 PUSH32 0xFFFFFFFFFFFFFFFFFFFFFFFFFFFFFFFFFFFFFFFFFFFFFFFFFFFFFFFFFFFFFFFF DUP3 PUSH2 0x1006 JUMP JUMPDEST PUSH2 0x104B DUP7 DUP4 PUSH2 0x1006 JUMP JUMPDEST SWAP6 POP DUP1 NOT DUP5 AND SWAP4 POP DUP1 DUP7 AND DUP5 OR SWAP3 POP POP POP SWAP4 SWAP3 POP POP POP JUMP JUMPDEST PUSH0 DUP2 SWAP1 POP SWAP2 SWAP1 POP JUMP JUMPDEST PUSH0 PUSH2 0x1086 PUSH2 0x1081 PUSH2 0x107C DUP5 PUSH2 0x815 JUMP JUMPDEST PUSH2 0x1063 JUMP JUMPDEST PUSH2 0x815 JUMP JUMPDEST SWAP1 POP SWAP2 SWAP1 POP JUMP JUMPDEST PUSH0 DUP2 SWAP1 POP SWAP2 SWAP1 POP JUMP JUMPDEST PUSH2 0x109F DUP4 PUSH2 0x106C JUMP JUMPDEST PUSH2 0x10B3 PUSH2 0x10AB DUP3 PUSH2 0x108D JUMP JUMPDEST DUP5 DUP5 SLOAD PUSH2 0x1012 JUMP JUMPDEST DUP3 SSTORE POP POP POP POP JUMP JUMPDEST PUSH0 SWAP1 JUMP JUMPDEST PUSH2 0x10C7 PUSH2 0x10BB JUMP JUMPDEST PUSH2 0x10D2 DUP2 DUP5 DUP5 PUSH2 0x1096 JUMP JUMPDEST POP POP POP JUMP JUMPDEST JUMPDEST DUP2 DUP2 LT ISZERO PUSH2 0x10F5 JUMPI PUSH2 0x10EA PUSH0 DUP3 PUSH2 0x10BF JUMP JUMPDEST PUSH1 0x1 DUP2 ADD SWAP1 POP PUSH2 0x10D8 JUMP JUMPDEST POP POP JUMP JUMPDEST PUSH1 0x1F DUP3 GT ISZERO PUSH2 0x113A JUMPI PUSH2 0x110B DUP2 PUSH2 0xFE5 JUMP JUMPDEST PUSH2 0x1114 DUP5 PUSH2 0xFF7 JUMP JUMPDEST DUP2 ADD PUSH1 0x20 DUP6 LT ISZERO PUSH2 0x1123 JUMPI DUP2 SWAP1 POP JUMPDEST PUSH2 0x1137 PUSH2 0x112F DUP6 PUSH2 0xFF7 JUMP JUMPDEST DUP4 ADD DUP3 PUSH2 0x10D7 JUMP JUMPDEST POP POP JUMPDEST POP POP POP JUMP JUMPDEST PUSH0 DUP3 DUP3 SHR SWAP1 POP SWAP3 SWAP2 POP POP JUMP JUMPDEST PUSH0 PUSH2 0x115A PUSH0 NOT DUP5 PUSH1 0x8 MUL PUSH2 0x113F JUMP JUMPDEST NOT DUP1 DUP4 AND SWAP2 POP POP SWAP3 SWAP2 POP POP JUMP JUMPDEST PUSH0 PUSH2 0x1172 DUP4 DUP4 PUSH2 0x114B JUMP JUMPDEST SWAP2 POP DUP3 PUSH1 0x2 MUL DUP3 OR SWAP1 POP SWAP3 SWAP2 POP POP JUMP JUMPDEST PUSH2 0x118B DUP3 PUSH2 0x895 JUMP JUMPDEST PUSH8 0xFFFFFFFFFFFFFFFF DUP2 GT ISZERO PUSH2 0x11A4 JUMPI PUSH2 0x11A3 PUSH2 0x9BE JUMP JUMPDEST JUMPDEST PUSH2 0x11AE DUP3 SLOAD PUSH2 0xDAE JUMP JUMPDEST PUSH2 0x11B9 DUP3 DUP3 DUP6 PUSH2 0x10F9 JUMP JUMPDEST PUSH0 PUSH1 0x20 SWAP1 POP PUSH1 0x1F DUP4 GT PUSH1 0x1 DUP2 EQ PUSH2 0x11EA JUMPI PUSH0 DUP5 ISZERO PUSH2 0x11D8 JUMPI DUP3 DUP8 ADD MLOAD SWAP1 POP JUMPDEST PUSH2 0x11E2 DUP6 DUP3 PUSH2 0x1167 JUMP JUMPDEST DUP7 SSTORE POP PUSH2 0x1249 JUMP JUMPDEST PUSH1 0x1F NOT DUP5 AND PUSH2 0x11F8 DUP7 PUSH2 0xFE5 JUMP JUMPDEST PUSH0 JUMPDEST DUP3 DUP2 LT ISZERO PUSH2 0x121F JUMPI DUP5 DUP10 ADD MLOAD DUP3 SSTORE PUSH1 0x1 DUP3 ADD SWAP2 POP PUSH1 0x20 DUP6 ADD SWAP5 POP PUSH1 0x20 DUP2 ADD SWAP1 POP PUSH2 0x11FA JUMP JUMPDEST DUP7 DUP4 LT ISZERO PUSH2 0x123C JUMPI DUP5 DUP10 ADD MLOAD PUSH2 0x1238 PUSH1 0x1F DUP10 AND DUP3 PUSH2 0x114B JUMP JUMPDEST DUP4 SSTORE POP JUMPDEST PUSH1 0x1 PUSH1 0x2 DUP9 MUL ADD DUP9 SSTORE POP POP POP JUMPDEST POP POP POP POP POP POP JUMP JUMPDEST PUSH0 DUP2 SLOAD PUSH2 0x125D DUP2 PUSH2 0xDAE JUMP JUMPDEST PUSH2 0x1267 DUP2 DUP7 PUSH2 0x89F JUMP JUMPDEST SWAP5 POP PUSH1 0x1 DUP3 AND PUSH0 DUP2 EQ PUSH2 0x1281 JUMPI PUSH1 0x1 DUP2 EQ PUSH2 0x1297 JUMPI PUSH2 0x12C9 JUMP JUMPDEST PUSH1 0xFF NOT DUP4 AND DUP7 MSTORE DUP2 ISZERO ISZERO PUSH1 0x20 MUL DUP7 ADD SWAP4 POP PUSH2 0x12C9 JUMP JUMPDEST PUSH2 0x12A0 DUP6 PUSH2 0xFE5 JUMP JUMPDEST PUSH0 JUMPDEST DUP4 DUP2 LT ISZERO PUSH2 0x12C1 JUMPI DUP2 SLOAD DUP2 DUP10 ADD MSTORE PUSH1 0x1 DUP3 ADD SWAP2 POP PUSH1 0x20 DUP2 ADD SWAP1 POP PUSH2 0x12A2 JUMP JUMPDEST DUP1 DUP9 ADD SWAP6 POP POP POP JUMPDEST POP POP POP SWAP3 SWAP2 POP POP JUMP JUMPDEST PUSH0 PUSH1 0x60 DUP3 ADD SWAP1 POP PUSH2 0x12E5 PUSH0 DUP4 ADD DUP7 PUSH2 0x886 JUMP JUMPDEST DUP2 DUP2 SUB PUSH1 0x20 DUP4 ADD MSTORE PUSH2 0x12F7 DUP2 DUP6 PUSH2 0x1251 JUMP JUMPDEST SWAP1 POP PUSH2 0x1306 PUSH1 0x40 DUP4 ADD DUP5 PUSH2 0x886 JUMP JUMPDEST SWAP5 SWAP4 POP POP POP POP JUMP JUMPDEST PUSH0 PUSH2 0x1318 DUP3 PUSH2 0x815 JUMP JUMPDEST SWAP2 POP PUSH32 0xFFFFFFFFFFFFFFFFFFFFFFFFFFFFFFFFFFFFFFFFFFFFFFFFFFFFFFFFFFFFFFFF DUP3 SUB PUSH2 0x134A JUMPI PUSH2 0x1349 PUSH2 0xE8C JUMP JUMPDEST JUMPDEST PUSH1 0x1 DUP3 ADD SWAP1 POP SWAP2 SWAP1 POP JUMP INVALID LOG2 PUSH5 0x6970667358 0x22 SLT KECCAK256 0xD0 PC 0xAC 0xB2 OR DELEGATECALL BLOBHASH LOG0 0x2A 0x4C 0xB2 CALLDATALOAD 0xB5 TIMESTAMP 0xE6 PUSH15 0xE6E849C5C20C2DC3C1993A5475657F 0xBD PUSH5 0x736F6C6343 STOP ADDMOD BYTE STOP CALLER "
	},
	"Assembly": ".code\n  PUSH 80\t\t\tcontract SupplyChain {\\r\\n    ...\n  PUSH 40\t\t\tcontract SupplyChain {\\r\\n    ...\n  MSTORE \t\t\tcontract SupplyChain {\\r\\n    ...\n  CALLVALUE \t\t\tcontract SupplyChain {\\r\\n    ...\n  DUP1 \t\t\tcontract SupplyChain {\\r\\n    ...\n  ISZERO \t\t\tcontract SupplyChain {\\r\\n    ...\n  PUSH [tag] 1\t\t\tcontract SupplyChain {\\r\\n    ...\n  JUMPI \t\t\tcontract SupplyChain {\\r\\n    ...\n  PUSH 0\t\t\tcontract SupplyChain {\\r\\n    ...\n  DUP1 \t\t\tcontract SupplyChain {\\r\\n    ...\n  REVERT \t\t\tcontract SupplyChain {\\r\\n    ...\ntag 1\t\t\tcontract SupplyChain {\\r\\n    ...\n  JUMPDEST \t\t\tcontract SupplyChain {\\r\\n    ...\n  POP \t\t\tcontract SupplyChain {\\r\\n    ...\n  PUSH #[$] 0000000000000000000000000000000000000000000000000000000000000000\t\t\tcontract SupplyChain {\\r\\n    ...\n  DUP1 \t\t\tcontract SupplyChain {\\r\\n    ...\n  PUSH [$] 0000000000000000000000000000000000000000000000000000000000000000\t\t\tcontract SupplyChain {\\r\\n    ...\n  PUSH 0\t\t\tcontract SupplyChain {\\r\\n    ...\n  CODECOPY \t\t\tcontract SupplyChain {\\r\\n    ...\n  PUSH 0\t\t\tcontract SupplyChain {\\r\\n    ...\n  RETURN \t\t\tcontract SupplyChain {\\r\\n    ...\n.data\n  0:\n    .code\n      PUSH 80\t\t\tcontract SupplyChain {\\r\\n    ...\n      PUSH 40\t\t\tcontract SupplyChain {\\r\\n    ...\n      MSTORE \t\t\tcontract SupplyChain {\\r\\n    ...\n      CALLVALUE \t\t\tcontract SupplyChain {\\r\\n    ...\n      DUP1 \t\t\tcontract SupplyChain {\\r\\n    ...\n      ISZERO \t\t\tcontract SupplyChain {\\r\\n    ...\n      PUSH [tag] 1\t\t\tcontract SupplyChain {\\r\\n    ...\n      JUMPI \t\t\tcontract SupplyChain {\\r\\n    ...\n      PUSH 0\t\t\tcontract SupplyChain {\\r\\n    ...\n      DUP1 \t\t\tcontract SupplyChain {\\r\\n    ...\n      REVERT \t\t\tcontract SupplyChain {\\r\\n    ...\n    tag 1\t\t\tcontract SupplyChain {\\r\\n    ...\n      JUMPDEST \t\t\tcontract SupplyChain {\\r\\n    ...\n      POP \t\t\tcontract SupplyChain {\\r\\n    ...\n      PUSH 4\t\t\tcontract SupplyChain {\\r\\n    ...\n      CALLDATASIZE \t\t\tcontract SupplyChain {\\r\\n    ...\n      LT \t\t\tcontract SupplyChain {\\r\\n    ...\n      PUSH [tag] 2\t\t\tcontract SupplyChain {\\r\\n    ...\n      JUMPI \t\t\tcontract SupplyChain {\\r\\n    ...\n      PUSH 0\t\t\tcontract SupplyChain {\\r\\n    ...\n      CALLDATALOAD \t\t\tcontract SupplyChain {\\r\\n    ...\n      PUSH E0\t\t\tcontract SupplyChain {\\r\\n    ...\n      SHR \t\t\tcontract SupplyChain {\\r\\n    ...\n      DUP1 \t\t\tcontract SupplyChain {\\r\\n    ...\n      PUSH 9AB2DFA3\t\t\tcontract SupplyChain {\\r\\n    ...\n      GT \t\t\tcontract SupplyChain {\\r\\n    ...\n      PUSH [tag] 10\t\t\tcontract SupplyChain {\\r\\n    ...\n      JUMPI \t\t\tcontract SupplyChain {\\r\\n    ...\n      DUP1 \t\t\tcontract SupplyChain {\\r\\n    ...\n      PUSH 9AB2DFA3\t\t\tcontract SupplyChain {\\r\\n    ...\n      EQ \t\t\tcontract SupplyChain {\\r\\n    ...\n      PUSH [tag] 6\t\t\tcontract SupplyChain {\\r\\n    ...\n      JUMPI \t\t\tcontract SupplyChain {\\r\\n    ...\n      DUP1 \t\t\tcontract SupplyChain {\\r\\n    ...\n      PUSH B15247D9\t\t\tcontract SupplyChain {\\r\\n    ...\n      EQ \t\t\tcontract SupplyChain {\\r\\n    ...\n      PUSH [tag] 7\t\t\tcontract SupplyChain {\\r\\n    ...\n      JUMPI \t\t\tcontract SupplyChain {\\r\\n    ...\n      DUP1 \t\t\tcontract SupplyChain {\\r\\n    ...\n      PUSH B9DB15B4\t\t\tcontract SupplyChain {\\r\\n    ...\n      EQ \t\t\tcontract SupplyChain {\\r\\n    ...\n      PUSH [tag] 8\t\t\tcontract SupplyChain {\\r\\n    ...\n      JUMPI \t\t\tcontract SupplyChain {\\r\\n    ...\n      DUP1 \t\t\tcontract SupplyChain {\\r\\n    ...\n      PUSH E0F6EF87\t\t\tcontract SupplyChain {\\r\\n    ...\n      EQ \t\t\tcontract SupplyChain {\\r\\n    ...\n      PUSH [tag] 9\t\t\tcontract SupplyChain {\\r\\n    ...\n      JUMPI \t\t\tcontract SupplyChain {\\r\\n    ...\n      PUSH [tag] 2\t\t\tcontract SupplyChain {\\r\\n    ...\n      JUMP \t\t\tcontract SupplyChain {\\r\\n    ...\n    tag 10\t\t\tcontract SupplyChain {\\r\\n    ...\n      JUMPDEST \t\t\tcontract SupplyChain {\\r\\n    ...\n      DUP1 \t\t\tcontract SupplyChain {\\r\\n    ...\n      PUSH 259132D4\t\t\tcontract SupplyChain {\\r\\n    ...\n      EQ \t\t\tcontract SupplyChain {\\r\\n    ...\n      PUSH [tag] 3\t\t\tcontract SupplyChain {\\r\\n    ...\n      JUMPI \t\t\tcontract SupplyChain {\\r\\n    ...\n      DUP1 \t\t\tcontract SupplyChain {\\r\\n    ...\n      PUSH 7ACC0B20\t\t\tcontract SupplyChain {\\r\\n    ...\n      EQ \t\t\tcontract SupplyChain {\\r\\n    ...\n      PUSH [tag] 4\t\t\tcontract SupplyChain {\\r\\n    ...\n      JUMPI \t\t\tcontract SupplyChain {\\r\\n    ...\n      DUP1 \t\t\tcontract SupplyChain {\\r\\n    ...\n      PUSH 99AF9C03\t\t\tcontract SupplyChain {\\r\\n    ...\n      EQ \t\t\tcontract SupplyChain {\\r\\n    ...\n      PUSH [tag] 5\t\t\tcontract SupplyChain {\\r\\n    ...\n      JUMPI \t\t\tcontract SupplyChain {\\r\\n    ...\n    tag 2\t\t\tcontract SupplyChain {\\r\\n    ...\n      JUMPDEST \t\t\tcontract SupplyChain {\\r\\n    ...\n      PUSH 0\t\t\tcontract SupplyChain {\\r\\n    ...\n      DUP1 \t\t\tcontract SupplyChain {\\r\\n    ...\n      REVERT \t\t\tcontract SupplyChain {\\r\\n    ...\n    tag 3\t\t\tmapping(uint => Transaction[])...\n      JUMPDEST \t\t\tmapping(uint => Transaction[])...\n      PUSH [tag] 11\t\t\tmapping(uint => Transaction[])...\n      PUSH 4\t\t\tmapping(uint => Transaction[])...\n      DUP1 \t\t\tmapping(uint => Transaction[])...\n      CALLDATASIZE \t\t\tmapping(uint => Transaction[])...\n      SUB \t\t\tmapping(uint => Transaction[])...\n      DUP2 \t\t\tmapping(uint => Transaction[])...\n      ADD \t\t\tmapping(uint => Transaction[])...\n      SWAP1 \t\t\tmapping(uint => Transaction[])...\n      PUSH [tag] 12\t\t\tmapping(uint => Transaction[])...\n      SWAP2 \t\t\tmapping(uint => Transaction[])...\n      SWAP1 \t\t\tmapping(uint => Transaction[])...\n      PUSH [tag] 13\t\t\tmapping(uint => Transaction[])...\n      JUMP \t\t\tmapping(uint => Transaction[])...\n    tag 12\t\t\tmapping(uint => Transaction[])...\n      JUMPDEST \t\t\tmapping(uint => Transaction[])...\n      PUSH [tag] 14\t\t\tmapping(uint => Transaction[])...\n      JUMP \t\t\tmapping(uint => Transaction[])...\n    tag 11\t\t\tmapping(uint => Transaction[])...\n      JUMPDEST \t\t\tmapping(uint => Transaction[])...\n      PUSH 40\t\t\tmapping(uint => Transaction[])...\n      MLOAD \t\t\tmapping(uint => Transaction[])...\n      PUSH [tag] 15\t\t\tmapping(uint => Transaction[])...\n      SWAP5 \t\t\tmapping(uint => Transaction[])...\n      SWAP4 \t\t\tmapping(uint => Transaction[])...\n      SWAP3 \t\t\tmapping(uint => Transaction[])...\n      SWAP2 \t\t\tmapping(uint => Transaction[])...\n      SWAP1 \t\t\tmapping(uint => Transaction[])...\n      PUSH [tag] 16\t\t\tmapping(uint => Transaction[])...\n      JUMP \t\t\tmapping(uint => Transaction[])...\n    tag 15\t\t\tmapping(uint => Transaction[])...\n      JUMPDEST \t\t\tmapping(uint => Transaction[])...\n      PUSH 40\t\t\tmapping(uint => Transaction[])...\n      MLOAD \t\t\tmapping(uint => Transaction[])...\n      DUP1 \t\t\tmapping(uint => Transaction[])...\n      SWAP2 \t\t\tmapping(uint => Transaction[])...\n      SUB \t\t\tmapping(uint => Transaction[])...\n      SWAP1 \t\t\tmapping(uint => Transaction[])...\n      RETURN \t\t\tmapping(uint => Transaction[])...\n    tag 4\t\t\tmapping(uint => Product) publi...\n      JUMPDEST \t\t\tmapping(uint => Product) publi...\n      PUSH [tag] 17\t\t\tmapping(uint => Product) publi...\n      PUSH 4\t\t\tmapping(uint => Product) publi...\n      DUP1 \t\t\tmapping(uint => Product) publi...\n      CALLDATASIZE \t\t\tmapping(uint => Product) publi...\n      SUB \t\t\tmapping(uint => Product) publi...\n      DUP2 \t\t\tmapping(uint => Product) publi...\n      ADD \t\t\tmapping(uint => Product) publi...\n      SWAP1 \t\t\tmapping(uint => Product) publi...\n      PUSH [tag] 18\t\t\tmapping(uint => Product) publi...\n      SWAP2 \t\t\tmapping(uint => Product) publi...\n      SWAP1 \t\t\tmapping(uint => Product) publi...\n      PUSH [tag] 19\t\t\tmapping(uint => Product) publi...\n      JUMP \t\t\tmapping(uint => Product) publi...\n    tag 18\t\t\tmapping(uint => Product) publi...\n      JUMPDEST \t\t\tmapping(uint => Product) publi...\n      PUSH [tag] 20\t\t\tmapping(uint => Product) publi...\n      JUMP \t\t\tmapping(uint => Product) publi...\n    tag 17\t\t\tmapping(uint => Product) publi...\n      JUMPDEST \t\t\tmapping(uint => Product) publi...\n      PUSH 40\t\t\tmapping(uint => Product) publi...\n      MLOAD \t\t\tmapping(uint => Product) publi...\n      PUSH [tag] 21\t\t\tmapping(uint => Product) publi...\n      SWAP4 \t\t\tmapping(uint => Product) publi...\n      SWAP3 \t\t\tmapping(uint => Product) publi...\n      SWAP2 \t\t\tmapping(uint => Product) publi...\n      SWAP1 \t\t\tmapping(uint => Product) publi...\n      PUSH [tag] 22\t\t\tmapping(uint => Product) publi...\n      JUMP \t\t\tmapping(uint => Product) publi...\n    tag 21\t\t\tmapping(uint => Product) publi...\n      JUMPDEST \t\t\tmapping(uint => Product) publi...\n      PUSH 40\t\t\tmapping(uint => Product) publi...\n      MLOAD \t\t\tmapping(uint => Product) publi...\n      DUP1 \t\t\tmapping(uint => Product) publi...\n      SWAP2 \t\t\tmapping(uint => Product) publi...\n      SUB \t\t\tmapping(uint => Product) publi...\n      SWAP1 \t\t\tmapping(uint => Product) publi...\n      RETURN \t\t\tmapping(uint => Product) publi...\n    tag 5\t\t\tfunction updateProduct(uint id...\n      JUMPDEST \t\t\tfunction updateProduct(uint id...\n      PUSH [tag] 23\t\t\tfunction updateProduct(uint id...\n      PUSH 4\t\t\tfunction updateProduct(uint id...\n      DUP1 \t\t\tfunction updateProduct(uint id...\n      CALLDATASIZE \t\t\tfunction updateProduct(uint id...\n      SUB \t\t\tfunction updateProduct(uint id...\n      DUP2 \t\t\tfunction updateProduct(uint id...\n      ADD \t\t\tfunction updateProduct(uint id...\n      SWAP1 \t\t\tfunction updateProduct(uint id...\n      PUSH [tag] 24\t\t\tfunction updateProduct(uint id...\n      SWAP2 \t\t\tfunction updateProduct(uint id...\n      SWAP1 \t\t\tfunction updateProduct(uint id...\n      PUSH [tag] 25\t\t\tfunction updateProduct(uint id...\n      JUMP \t\t\tfunction updateProduct(uint id...\n    tag 24\t\t\tfunction updateProduct(uint id...\n      JUMPDEST \t\t\tfunction updateProduct(uint id...\n      PUSH [tag] 26\t\t\tfunction updateProduct(uint id...\n      JUMP \t\t\tfunction updateProduct(uint id...\n    tag 23\t\t\tfunction updateProduct(uint id...\n      JUMPDEST \t\t\tfunction updateProduct(uint id...\n      STOP \t\t\tfunction updateProduct(uint id...\n    tag 6\t\t\tgetProductTransactions(uint id...\n      JUMPDEST \t\t\tgetProductTransactions(uint id...\n      PUSH [tag] 27\t\t\tgetProductTransactions(uint id...\n      PUSH 4\t\t\tgetProductTransactions(uint id...\n      DUP1 \t\t\tgetProductTransactions(uint id...\n      CALLDATASIZE \t\t\tgetProductTransactions(uint id...\n      SUB \t\t\tgetProductTransactions(uint id...\n      DUP2 \t\t\tgetProductTransactions(uint id...\n      ADD \t\t\tgetProductTransactions(uint id...\n      SWAP1 \t\t\tgetProductTransactions(uint id...\n      PUSH [tag] 28\t\t\tgetProductTransactions(uint id...\n      SWAP2 \t\t\tgetProductTransactions(uint id...\n      SWAP1 \t\t\tgetProductTransactions(uint id...\n      PUSH [tag] 19\t\t\tgetProductTransactions(uint id...\n      JUMP \t\t\tgetProductTransactions(uint id...\n    tag 28\t\t\tgetProductTransactions(uint id...\n      JUMPDEST \t\t\tgetProductTransactions(uint id...\n      PUSH [tag] 29\t\t\tgetProductTransactions(uint id...\n      JUMP \t\t\tgetProductTransactions(uint id...\n    tag 27\t\t\tgetProductTransactions(uint id...\n      JUMPDEST \t\t\tgetProductTransactions(uint id...\n      PUSH 40\t\t\tgetProductTransactions(uint id...\n      MLOAD \t\t\tgetProductTransactions(uint id...\n      PUSH [tag] 30\t\t\tgetProductTransactions(uint id...\n      SWAP2 \t\t\tgetProductTransactions(uint id...\n      SWAP1 \t\t\tgetProductTransactions(uint id...\n      PUSH [tag] 31\t\t\tgetProductTransactions(uint id...\n      JUMP \t\t\tgetProductTransactions(uint id...\n    tag 30\t\t\tgetProductTransactions(uint id...\n      JUMPDEST \t\t\tgetProductTransactions(uint id...\n      PUSH 40\t\t\tgetProductTransactions(uint id...\n      MLOAD \t\t\tgetProductTransactions(uint id...\n      DUP1 \t\t\tgetProductTransactions(uint id...\n      SWAP2 \t\t\tgetProductTransactions(uint id...\n      SUB \t\t\tgetProductTransactions(uint id...\n      SWAP1 \t\t\tgetProductTransactions(uint id...\n      RETURN \t\t\tgetProductTransactions(uint id...\n    tag 7\t\t\tfunction addProduct(string mem...\n      JUMPDEST \t\t\tfunction addProduct(string mem...\n      PUSH [tag] 32\t\t\tfunction addProduct(string mem...\n      PUSH 4\t\t\tfunction addProduct(string mem...\n      DUP1 \t\t\tfunction addProduct(string mem...\n      CALLDATASIZE \t\t\tfunction addProduct(string mem...\n      SUB \t\t\tfunction addProduct(string mem...\n      DUP2 \t\t\tfunction addProduct(string mem...\n      ADD \t\t\tfunction addProduct(string mem...\n      SWAP1 \t\t\tfunction addProduct(string mem...\n      PUSH [tag] 33\t\t\tfunction addProduct(string mem...\n      SWAP2 \t\t\tfunction addProduct(string mem...\n      SWAP1 \t\t\tfunction addProduct(string mem...\n      PUSH [tag] 34\t\t\tfunction addProduct(string mem...\n      JUMP \t\t\tfunction addProduct(string mem...\n    tag 33\t\t\tfunction addProduct(string mem...\n      JUMPDEST \t\t\tfunction addProduct(string mem...\n      PUSH [tag] 35\t\t\tfunction addProduct(string mem...\n      JUMP \t\t\tfunction addProduct(string mem...\n    tag 32\t\t\tfunction addProduct(string mem...\n      JUMPDEST \t\t\tfunction addProduct(string mem...\n      STOP \t\t\tfunction addProduct(string mem...\n    tag 8\t\t\tgetProduct(uint id) public vie...\n      JUMPDEST \t\t\tgetProduct(uint id) public vie...\n      PUSH [tag] 36\t\t\tgetProduct(uint id) public vie...\n      PUSH 4\t\t\tgetProduct(uint id) public vie...\n      DUP1 \t\t\tgetProduct(uint id) public vie...\n      CALLDATASIZE \t\t\tgetProduct(uint id) public vie...\n      SUB \t\t\tgetProduct(uint id) public vie...\n      DUP2 \t\t\tgetProduct(uint id) public vie...\n      ADD \t\t\tgetProduct(uint id) public vie...\n      SWAP1 \t\t\tgetProduct(uint id) public vie...\n      PUSH [tag] 37\t\t\tgetProduct(uint id) public vie...\n      SWAP2 \t\t\tgetProduct(uint id) public vie...\n      SWAP1 \t\t\tgetProduct(uint id) public vie...\n      PUSH [tag] 19\t\t\tgetProduct(uint id) public vie...\n      JUMP \t\t\tgetProduct(uint id) public vie...\n    tag 37\t\t\tgetProduct(uint id) public vie...\n      JUMPDEST \t\t\tgetProduct(uint id) public vie...\n      PUSH [tag] 38\t\t\tgetProduct(uint id) public vie...\n      JUMP \t\t\tgetProduct(uint id) public vie...\n    tag 36\t\t\tgetProduct(uint id) public vie...\n      JUMPDEST \t\t\tgetProduct(uint id) public vie...\n      PUSH 40\t\t\tgetProduct(uint id) public vie...\n      MLOAD \t\t\tgetProduct(uint id) public vie...\n      PUSH [tag] 39\t\t\tgetProduct(uint id) public vie...\n      SWAP3 \t\t\tgetProduct(uint id) public vie...\n      SWAP2 \t\t\tgetProduct(uint id) public vie...\n      SWAP1 \t\t\tgetProduct(uint id) public vie...\n      PUSH [tag] 40\t\t\tgetProduct(uint id) public vie...\n      JUMP \t\t\tgetProduct(uint id) public vie...\n    tag 39\t\t\tgetProduct(uint id) public vie...\n      JUMPDEST \t\t\tgetProduct(uint id) public vie...\n      PUSH 40\t\t\tgetProduct(uint id) public vie...\n      MLOAD \t\t\tgetProduct(uint id) public vie...\n      DUP1 \t\t\tgetProduct(uint id) public vie...\n      SWAP2 \t\t\tgetProduct(uint id) public vie...\n      SUB \t\t\tgetProduct(uint id) public vie...\n      SWAP1 \t\t\tgetProduct(uint id) public vie...\n      RETURN \t\t\tgetProduct(uint id) public vie...\n    tag 9\t\t\tuint public productCount\n      JUMPDEST \t\t\tuint public productCount\n      PUSH [tag] 41\t\t\tuint public productCount\n      PUSH [tag] 42\t\t\tuint public productCount\n      JUMP \t\t\tuint public productCount\n    tag 41\t\t\tuint public productCount\n      JUMPDEST \t\t\tuint public productCount\n      PUSH 40\t\t\tuint public productCount\n      MLOAD \t\t\tuint public productCount\n      PUSH [tag] 43\t\t\tuint public productCount\n      SWAP2 \t\t\tuint public productCount\n      SWAP1 \t\t\tuint public productCount\n      PUSH [tag] 44\t\t\tuint public productCount\n      JUMP \t\t\tuint public productCount\n    tag 43\t\t\tuint public productCount\n      JUMPDEST \t\t\tuint public productCount\n      PUSH 40\t\t\tuint public productCount\n      MLOAD \t\t\tuint public productCount\n      DUP1 \t\t\tuint public productCount\n      SWAP2 \t\t\tuint public productCount\n      SUB \t\t\tuint public productCount\n      SWAP1 \t\t\tuint public productCount\n      RETURN \t\t\tuint public productCount\n    tag 14\t\t\tmapping(uint => Transaction[])...\n      JUMPDEST \t\t\tmapping(uint => Transaction[])...\n      PUSH 1\t\t\tmapping(uint => Transaction[])...\n      PUSH 20\t\t\tmapping(uint => Transaction[])...\n      MSTORE \t\t\tmapping(uint => Transaction[])...\n      DUP2 \t\t\tmapping(uint => Transaction[])...\n      PUSH 0\t\t\tmapping(uint => Transaction[])...\n      MSTORE \t\t\tmapping(uint => Transaction[])...\n      PUSH 40\t\t\tmapping(uint => Transaction[])...\n      PUSH 0\t\t\tmapping(uint => Transaction[])...\n      KECCAK256 \t\t\tmapping(uint => Transaction[])...\n      DUP2 \t\t\tmapping(uint => Transaction[])...\n      DUP2 \t\t\tmapping(uint => Transaction[])...\n      SLOAD \t\t\tmapping(uint => Transaction[])...\n      DUP2 \t\t\tmapping(uint => Transaction[])...\n      LT \t\t\tmapping(uint => Transaction[])...\n      PUSH [tag] 45\t\t\tmapping(uint => Transaction[])...\n      JUMPI \t\t\tmapping(uint => Transaction[])...\n      PUSH 0\t\t\tmapping(uint => Transaction[])...\n      DUP1 \t\t\tmapping(uint => Transaction[])...\n      REVERT \t\t\tmapping(uint => Transaction[])...\n    tag 45\t\t\tmapping(uint => Transaction[])...\n      JUMPDEST \t\t\tmapping(uint => Transaction[])...\n      SWAP1 \t\t\tmapping(uint => Transaction[])...\n      PUSH 0\t\t\tmapping(uint => Transaction[])...\n      MSTORE \t\t\tmapping(uint => Transaction[])...\n      PUSH 20\t\t\tmapping(uint => Transaction[])...\n      PUSH 0\t\t\tmapping(uint => Transaction[])...\n      KECCAK256 \t\t\tmapping(uint => Transaction[])...\n      SWAP1 \t\t\tmapping(uint => Transaction[])...\n      PUSH 4\t\t\tmapping(uint => Transaction[])...\n      MUL \t\t\tmapping(uint => Transaction[])...\n      ADD \t\t\tmapping(uint => Transaction[])...\n      PUSH 0\t\t\tmapping(uint => Transaction[])...\n      SWAP2 \t\t\tmapping(uint => Transaction[])...\n      POP \t\t\tmapping(uint => Transaction[])...\n      SWAP2 \t\t\tmapping(uint => Transaction[])...\n      POP \t\t\tmapping(uint => Transaction[])...\n      POP \t\t\tmapping(uint => Transaction[])...\n      DUP1 \t\t\tmapping(uint => Transaction[])...\n      PUSH 0\t\t\tmapping(uint => Transaction[])...\n      ADD \t\t\tmapping(uint => Transaction[])...\n      SLOAD \t\t\tmapping(uint => Transaction[])...\n      SWAP1 \t\t\tmapping(uint => Transaction[])...\n      DUP1 \t\t\tmapping(uint => Transaction[])...\n      PUSH 1\t\t\tmapping(uint => Transaction[])...\n      ADD \t\t\tmapping(uint => Transaction[])...\n      SLOAD \t\t\tmapping(uint => Transaction[])...\n      SWAP1 \t\t\tmapping(uint => Transaction[])...\n      DUP1 \t\t\tmapping(uint => Transaction[])...\n      PUSH 2\t\t\tmapping(uint => Transaction[])...\n      ADD \t\t\tmapping(uint => Transaction[])...\n      DUP1 \t\t\tmapping(uint => Transaction[])...\n      SLOAD \t\t\tmapping(uint => Transaction[])...\n      PUSH [tag] 47\t\t\tmapping(uint => Transaction[])...\n      SWAP1 \t\t\tmapping(uint => Transaction[])...\n      PUSH [tag] 48\t\t\tmapping(uint => Transaction[])...\n      JUMP \t\t\tmapping(uint => Transaction[])...\n    tag 47\t\t\tmapping(uint => Transaction[])...\n      JUMPDEST \t\t\tmapping(uint => Transaction[])...\n      DUP1 \t\t\tmapping(uint => Transaction[])...\n      PUSH 1F\t\t\tmapping(uint => Transaction[])...\n      ADD \t\t\tmapping(uint => Transaction[])...\n      PUSH 20\t\t\tmapping(uint => Transaction[])...\n      DUP1 \t\t\tmapping(uint => Transaction[])...\n      SWAP2 \t\t\tmapping(uint => Transaction[])...\n      DIV \t\t\tmapping(uint => Transaction[])...\n      MUL \t\t\tmapping(uint => Transaction[])...\n      PUSH 20\t\t\tmapping(uint => Transaction[])...\n      ADD \t\t\tmapping(uint => Transaction[])...\n      PUSH 40\t\t\tmapping(uint => Transaction[])...\n      MLOAD \t\t\tmapping(uint => Transaction[])...\n      SWAP1 \t\t\tmapping(uint => Transaction[])...\n      DUP2 \t\t\tmapping(uint => Transaction[])...\n      ADD \t\t\tmapping(uint => Transaction[])...\n      PUSH 40\t\t\tmapping(uint => Transaction[])...\n      MSTORE \t\t\tmapping(uint => Transaction[])...\n      DUP1 \t\t\tmapping(uint => Transaction[])...\n      SWAP3 \t\t\tmapping(uint => Transaction[])...\n      SWAP2 \t\t\tmapping(uint => Transaction[])...\n      SWAP1 \t\t\tmapping(uint => Transaction[])...\n      DUP2 \t\t\tmapping(uint => Transaction[])...\n      DUP2 \t\t\tmapping(uint => Transaction[])...\n      MSTORE \t\t\tmapping(uint => Transaction[])...\n      PUSH 20\t\t\tmapping(uint => Transaction[])...\n      ADD \t\t\tmapping(uint => Transaction[])...\n      DUP3 \t\t\tmapping(uint => Transaction[])...\n      DUP1 \t\t\tmapping(uint => Transaction[])...\n      SLOAD \t\t\tmapping(uint => Transaction[])...\n      PUSH [tag] 49\t\t\tmapping(uint => Transaction[])...\n      SWAP1 \t\t\tmapping(uint => Transaction[])...\n      PUSH [tag] 48\t\t\tmapping(uint => Transaction[])...\n      JUMP \t\t\tmapping(uint => Transaction[])...\n    tag 49\t\t\tmapping(uint => Transaction[])...\n      JUMPDEST \t\t\tmapping(uint => Transaction[])...\n      DUP1 \t\t\tmapping(uint => Transaction[])...\n      ISZERO \t\t\tmapping(uint => Transaction[])...\n      PUSH [tag] 50\t\t\tmapping(uint => Transaction[])...\n      JUMPI \t\t\tmapping(uint => Transaction[])...\n      DUP1 \t\t\tmapping(uint => Transaction[])...\n      PUSH 1F\t\t\tmapping(uint => Transaction[])...\n      LT \t\t\tmapping(uint => Transaction[])...\n      PUSH [tag] 51\t\t\tmapping(uint => Transaction[])...\n      JUMPI \t\t\tmapping(uint => Transaction[])...\n      PUSH 100\t\t\tmapping(uint => Transaction[])...\n      DUP1 \t\t\tmapping(uint => Transaction[])...\n      DUP4 \t\t\tmapping(uint => Transaction[])...\n      SLOAD \t\t\tmapping(uint => Transaction[])...\n      DIV \t\t\tmapping(uint => Transaction[])...\n      MUL \t\t\tmapping(uint => Transaction[])...\n      DUP4 \t\t\tmapping(uint => Transaction[])...\n      MSTORE \t\t\tmapping(uint => Transaction[])...\n      SWAP2 \t\t\tmapping(uint => Transaction[])...\n      PUSH 20\t\t\tmapping(uint => Transaction[])...\n      ADD \t\t\tmapping(uint => Transaction[])...\n      SWAP2 \t\t\tmapping(uint => Transaction[])...\n      PUSH [tag] 50\t\t\tmapping(uint => Transaction[])...\n      JUMP \t\t\tmapping(uint => Transaction[])...\n    tag 51\t\t\tmapping(uint => Transaction[])...\n      JUMPDEST \t\t\tmapping(uint => Transaction[])...\n      DUP3 \t\t\tmapping(uint => Transaction[])...\n      ADD \t\t\tmapping(uint => Transaction[])...\n      SWAP2 \t\t\tmapping(uint => Transaction[])...\n      SWAP1 \t\t\tmapping(uint => Transaction[])...\n      PUSH 0\t\t\tmapping(uint => Transaction[])...\n      MSTORE \t\t\tmapping(uint => Transaction[])...\n      PUSH 20\t\t\tmapping(uint => Transaction[])...\n      PUSH 0\t\t\tmapping(uint => Transaction[])...\n      KECCAK256 \t\t\tmapping(uint => Transaction[])...\n      SWAP1 \t\t\tmapping(uint => Transaction[])...\n    tag 52\t\t\tmapping(uint => Transaction[])...\n      JUMPDEST \t\t\tmapping(uint => Transaction[])...\n      DUP2 \t\t\tmapping(uint => Transaction[])...\n      SLOAD \t\t\tmapping(uint => Transaction[])...\n      DUP2 \t\t\tmapping(uint => Transaction[])...\n      MSTORE \t\t\tmapping(uint => Transaction[])...\n      SWAP1 \t\t\tmapping(uint => Transaction[])...\n      PUSH 1\t\t\tmapping(uint => Transaction[])...\n      ADD \t\t\tmapping(uint => Transaction[])...\n      SWAP1 \t\t\tmapping(uint => Transaction[])...\n      PUSH 20\t\t\tmapping(uint => Transaction[])...\n      ADD \t\t\tmapping(uint => Transaction[])...\n      DUP1 \t\t\tmapping(uint => Transaction[])...\n      DUP4 \t\t\tmapping(uint => Transaction[])...\n      GT \t\t\tmapping(uint => Transaction[])...\n      PUSH [tag] 52\t\t\tmapping(uint => Transaction[])...\n      JUMPI \t\t\tmapping(uint => Transaction[])...\n      DUP3 \t\t\tmapping(uint => Transaction[])...\n      SWAP1 \t\t\tmapping(uint => Transaction[])...\n      SUB \t\t\tmapping(uint => Transaction[])...\n      PUSH 1F\t\t\tmapping(uint => Transaction[])...\n      AND \t\t\tmapping(uint => Transaction[])...\n      DUP3 \t\t\tmapping(uint => Transaction[])...\n      ADD \t\t\tmapping(uint => Transaction[])...\n      SWAP2 \t\t\tmapping(uint => Transaction[])...\n    tag 50\t\t\tmapping(uint => Transaction[])...\n      JUMPDEST \t\t\tmapping(uint => Transaction[])...\n      POP \t\t\tmapping(uint => Transaction[])...\n      POP \t\t\tmapping(uint => Transaction[])...\n      POP \t\t\tmapping(uint => Transaction[])...\n      POP \t\t\tmapping(uint => Transaction[])...\n      POP \t\t\tmapping(uint => Transaction[])...\n      SWAP1 \t\t\tmapping(uint => Transaction[])...\n      DUP1 \t\t\tmapping(uint => Transaction[])...\n      PUSH 3\t\t\tmapping(uint => Transaction[])...\n      ADD \t\t\tmapping(uint => Transaction[])...\n      SLOAD \t\t\tmapping(uint => Transaction[])...\n      SWAP1 \t\t\tmapping(uint => Transaction[])...\n      POP \t\t\tmapping(uint => Transaction[])...\n      DUP5 \t\t\tmapping(uint => Transaction[])...\n      JUMP \t\t\tmapping(uint => Transaction[])...\n    tag 20\t\t\tmapping(uint => Product) publi...\n      JUMPDEST \t\t\tmapping(uint => Product) publi...\n      PUSH 0\t\t\tmapping(uint => Product) publi...\n      PUSH 20\t\t\tmapping(uint => Product) publi...\n      MSTORE \t\t\tmapping(uint => Product) publi...\n      DUP1 \t\t\tmapping(uint => Product) publi...\n      PUSH 0\t\t\tmapping(uint => Product) publi...\n      MSTORE \t\t\tmapping(uint => Product) publi...\n      PUSH 40\t\t\tmapping(uint => Product) publi...\n      PUSH 0\t\t\tmapping(uint => Product) publi...\n      KECCAK256 \t\t\tmapping(uint => Product) publi...\n      PUSH 0\t\t\tmapping(uint => Product) publi...\n      SWAP2 \t\t\tmapping(uint => Product) publi...\n      POP \t\t\tmapping(uint => Product) publi...\n      SWAP1 \t\t\tmapping(uint => Product) publi...\n      POP \t\t\tmapping(uint => Product) publi...\n      DUP1 \t\t\tmapping(uint => Product) publi...\n      PUSH 0\t\t\tmapping(uint => Product) publi...\n      ADD \t\t\tmapping(uint => Product) publi...\n      SLOAD \t\t\tmapping(uint => Product) publi...\n      SWAP1 \t\t\tmapping(uint => Product) publi...\n      DUP1 \t\t\tmapping(uint => Product) publi...\n      PUSH 1\t\t\tmapping(uint => Product) publi...\n      ADD \t\t\tmapping(uint => Product) publi...\n      DUP1 \t\t\tmapping(uint => Product) publi...\n      SLOAD \t\t\tmapping(uint => Product) publi...\n      PUSH [tag] 53\t\t\tmapping(uint => Product) publi...\n      SWAP1 \t\t\tmapping(uint => Product) publi...\n      PUSH [tag] 48\t\t\tmapping(uint => Product) publi...\n      JUMP \t\t\tmapping(uint => Product) publi...\n    tag 53\t\t\tmapping(uint => Product) publi...\n      JUMPDEST \t\t\tmapping(uint => Product) publi...\n      DUP1 \t\t\tmapping(uint => Product) publi...\n      PUSH 1F\t\t\tmapping(uint => Product) publi...\n      ADD \t\t\tmapping(uint => Product) publi...\n      PUSH 20\t\t\tmapping(uint => Product) publi...\n      DUP1 \t\t\tmapping(uint => Product) publi...\n      SWAP2 \t\t\tmapping(uint => Product) publi...\n      DIV \t\t\tmapping(uint => Product) publi...\n      MUL \t\t\tmapping(uint => Product) publi...\n      PUSH 20\t\t\tmapping(uint => Product) publi...\n      ADD \t\t\tmapping(uint => Product) publi...\n      PUSH 40\t\t\tmapping(uint => Product) publi...\n      MLOAD \t\t\tmapping(uint => Product) publi...\n      SWAP1 \t\t\tmapping(uint => Product) publi...\n      DUP2 \t\t\tmapping(uint => Product) publi...\n      ADD \t\t\tmapping(uint => Product) publi...\n      PUSH 40\t\t\tmapping(uint => Product) publi...\n      MSTORE \t\t\tmapping(uint => Product) publi...\n      DUP1 \t\t\tmapping(uint => Product) publi...\n      SWAP3 \t\t\tmapping(uint => Product) publi...\n      SWAP2 \t\t\tmapping(uint => Product) publi...\n      SWAP1 \t\t\tmapping(uint => Product) publi...\n      DUP2 \t\t\tmapping(uint => Product) publi...\n      DUP2 \t\t\tmapping(uint => Product) publi...\n      MSTORE \t\t\tmapping(uint => Product) publi...\n      PUSH 20\t\t\tmapping(uint => Product) publi...\n      ADD \t\t\tmapping(uint => Product) publi...\n      DUP3 \t\t\tmapping(uint => Product) publi...\n      DUP1 \t\t\tmapping(uint => Product) publi...\n      SLOAD \t\t\tmapping(uint => Product) publi...\n      PUSH [tag] 54\t\t\tmapping(uint => Product) publi...\n      SWAP1 \t\t\tmapping(uint => Product) publi...\n      PUSH [tag] 48\t\t\tmapping(uint => Product) publi...\n      JUMP \t\t\tmapping(uint => Product) publi...\n    tag 54\t\t\tmapping(uint => Product) publi...\n      JUMPDEST \t\t\tmapping(uint => Product) publi...\n      DUP1 \t\t\tmapping(uint => Product) publi...\n      ISZERO \t\t\tmapping(uint => Product) publi...\n      PUSH [tag] 55\t\t\tmapping(uint => Product) publi...\n      JUMPI \t\t\tmapping(uint => Product) publi...\n      DUP1 \t\t\tmapping(uint => Product) publi...\n      PUSH 1F\t\t\tmapping(uint => Product) publi...\n      LT \t\t\tmapping(uint => Product) publi...\n      PUSH [tag] 56\t\t\tmapping(uint => Product) publi...\n      JUMPI \t\t\tmapping(uint => Product) publi...\n      PUSH 100\t\t\tmapping(uint => Product) publi...\n      DUP1 \t\t\tmapping(uint => Product) publi...\n      DUP4 \t\t\tmapping(uint => Product) publi...\n      SLOAD \t\t\tmapping(uint => Product) publi...\n      DIV \t\t\tmapping(uint => Product) publi...\n      MUL \t\t\tmapping(uint => Product) publi...\n      DUP4 \t\t\tmapping(uint => Product) publi...\n      MSTORE \t\t\tmapping(uint => Product) publi...\n      SWAP2 \t\t\tmapping(uint => Product) publi...\n      PUSH 20\t\t\tmapping(uint => Product) publi...\n      ADD \t\t\tmapping(uint => Product) publi...\n      SWAP2 \t\t\tmapping(uint => Product) publi...\n      PUSH [tag] 55\t\t\tmapping(uint => Product) publi...\n      JUMP \t\t\tmapping(uint => Product) publi...\n    tag 56\t\t\tmapping(uint => Product) publi...\n      JUMPDEST \t\t\tmapping(uint => Product) publi...\n      DUP3 \t\t\tmapping(uint => Product) publi...\n      ADD \t\t\tmapping(uint => Product) publi...\n      SWAP2 \t\t\tmapping(uint => Product) publi...\n      SWAP1 \t\t\tmapping(uint => Product) publi...\n      PUSH 0\t\t\tmapping(uint => Product) publi...\n      MSTORE \t\t\tmapping(uint => Product) publi...\n      PUSH 20\t\t\tmapping(uint => Product) publi...\n      PUSH 0\t\t\tmapping(uint => Product) publi...\n      KECCAK256 \t\t\tmapping(uint => Product) publi...\n      SWAP1 \t\t\tmapping(uint => Product) publi...\n    tag 57\t\t\tmapping(uint => Product) publi...\n      JUMPDEST \t\t\tmapping(uint => Product) publi...\n      DUP2 \t\t\tmapping(uint => Product) publi...\n      SLOAD \t\t\tmapping(uint => Product) publi...\n      DUP2 \t\t\tmapping(uint => Product) publi...\n      MSTORE \t\t\tmapping(uint => Product) publi...\n      SWAP1 \t\t\tmapping(uint => Product) publi...\n      PUSH 1\t\t\tmapping(uint => Product) publi...\n      ADD \t\t\tmapping(uint => Product) publi...\n      SWAP1 \t\t\tmapping(uint => Product) publi...\n      PUSH 20\t\t\tmapping(uint => Product) publi...\n      ADD \t\t\tmapping(uint => Product) publi...\n      DUP1 \t\t\tmapping(uint => Product) publi...\n      DUP4 \t\t\tmapping(uint => Product) publi...\n      GT \t\t\tmapping(uint => Product) publi...\n      PUSH [tag] 57\t\t\tmapping(uint => Product) publi...\n      JUMPI \t\t\tmapping(uint => Product) publi...\n      DUP3 \t\t\tmapping(uint => Product) publi...\n      SWAP1 \t\t\tmapping(uint => Product) publi...\n      SUB \t\t\tmapping(uint => Product) publi...\n      PUSH 1F\t\t\tmapping(uint => Product) publi...\n      AND \t\t\tmapping(uint => Product) publi...\n      DUP3 \t\t\tmapping(uint => Product) publi...\n      ADD \t\t\tmapping(uint => Product) publi...\n      SWAP2 \t\t\tmapping(uint => Product) publi...\n    tag 55\t\t\tmapping(uint => Product) publi...\n      JUMPDEST \t\t\tmapping(uint => Product) publi...\n      POP \t\t\tmapping(uint => Product) publi...\n      POP \t\t\tmapping(uint => Product) publi...\n      POP \t\t\tmapping(uint => Product) publi...\n      POP \t\t\tmapping(uint => Product) publi...\n      POP \t\t\tmapping(uint => Product) publi...\n      SWAP1 \t\t\tmapping(uint => Product) publi...\n      DUP1 \t\t\tmapping(uint => Product) publi...\n      PUSH 2\t\t\tmapping(uint => Product) publi...\n      ADD \t\t\tmapping(uint => Product) publi...\n      SLOAD \t\t\tmapping(uint => Product) publi...\n      SWAP1 \t\t\tmapping(uint => Product) publi...\n      POP \t\t\tmapping(uint => Product) publi...\n      DUP4 \t\t\tmapping(uint => Product) publi...\n      JUMP \t\t\tmapping(uint => Product) publi...\n    tag 26\t\t\tfunction updateProduct(uint id...\n      JUMPDEST \t\t\tfunction updateProduct(uint id...\n      PUSH 0\t\t\tProduct storage product\n      DUP1 \t\t\tproducts\n      PUSH 0\t\t\tproducts[id]\n      DUP6 \t\t\tid\n      DUP2 \t\t\tproducts[id]\n      MSTORE \t\t\tproducts[id]\n      PUSH 20\t\t\tproducts[id]\n      ADD \t\t\tproducts[id]\n      SWAP1 \t\t\tproducts[id]\n      DUP2 \t\t\tproducts[id]\n      MSTORE \t\t\tproducts[id]\n      PUSH 20\t\t\tproducts[id]\n      ADD \t\t\tproducts[id]\n      PUSH 0\t\t\tproducts[id]\n      KECCAK256 \t\t\tproducts[id]\n      SWAP1 \t\t\tProduct storage product = prod...\n      POP \t\t\tProduct storage product = prod...\n      PUSH 40\t\t\tabi.encodePacked(\"import\")\n      MLOAD \t\t\tabi.encodePacked(\"import\")\n      PUSH 20\t\t\tabi.encodePacked(\"import\")\n      ADD \t\t\tabi.encodePacked(\"import\")\n      PUSH [tag] 59\t\t\tabi.encodePacked(\"import\")\n      SWAP1 \t\t\tabi.encodePacked(\"import\")\n      PUSH [tag] 60\t\t\tabi.encodePacked(\"import\")\n      JUMP \t\t\tabi.encodePacked(\"import\")\n    tag 59\t\t\tabi.encodePacked(\"import\")\n      JUMPDEST \t\t\tabi.encodePacked(\"import\")\n      PUSH 40\t\t\tabi.encodePacked(\"import\")\n      MLOAD \t\t\tabi.encodePacked(\"import\")\n      PUSH 20\t\t\tabi.encodePacked(\"import\")\n      DUP2 \t\t\tabi.encodePacked(\"import\")\n      DUP4 \t\t\tabi.encodePacked(\"import\")\n      SUB \t\t\tabi.encodePacked(\"import\")\n      SUB \t\t\tabi.encodePacked(\"import\")\n      DUP2 \t\t\tabi.encodePacked(\"import\")\n      MSTORE \t\t\tabi.encodePacked(\"import\")\n      SWAP1 \t\t\tabi.encodePacked(\"import\")\n      PUSH 40\t\t\tabi.encodePacked(\"import\")\n      MSTORE \t\t\tabi.encodePacked(\"import\")\n      DUP1 \t\t\tkeccak256(abi.encodePacked(\"im...\n      MLOAD \t\t\tkeccak256(abi.encodePacked(\"im...\n      SWAP1 \t\t\tkeccak256(abi.encodePacked(\"im...\n      PUSH 20\t\t\tkeccak256(abi.encodePacked(\"im...\n      ADD \t\t\tkeccak256(abi.encodePacked(\"im...\n      KECCAK256 \t\t\tkeccak256(abi.encodePacked(\"im...\n      DUP3 \t\t\taction\n      PUSH 40\t\t\tabi.encodePacked(action)\n      MLOAD \t\t\tabi.encodePacked(action)\n      PUSH 20\t\t\tabi.encodePacked(action)\n      ADD \t\t\tabi.encodePacked(action)\n      PUSH [tag] 61\t\t\tabi.encodePacked(action)\n      SWAP2 \t\t\tabi.encodePacked(action)\n      SWAP1 \t\t\tabi.encodePacked(action)\n      PUSH [tag] 62\t\t\tabi.encodePacked(action)\n      JUMP \t\t\tabi.encodePacked(action)\n    tag 61\t\t\tabi.encodePacked(action)\n      JUMPDEST \t\t\tabi.encodePacked(action)\n      PUSH 40\t\t\tabi.encodePacked(action)\n      MLOAD \t\t\tabi.encodePacked(action)\n      PUSH 20\t\t\tabi.encodePacked(action)\n      DUP2 \t\t\tabi.encodePacked(action)\n      DUP4 \t\t\tabi.encodePacked(action)\n      SUB \t\t\tabi.encodePacked(action)\n      SUB \t\t\tabi.encodePacked(action)\n      DUP2 \t\t\tabi.encodePacked(action)\n      MSTORE \t\t\tabi.encodePacked(action)\n      SWAP1 \t\t\tabi.encodePacked(action)\n      PUSH 40\t\t\tabi.encodePacked(action)\n      MSTORE \t\t\tabi.encodePacked(action)\n      DUP1 \t\t\tkeccak256(abi.encodePacked(act...\n      MLOAD \t\t\tkeccak256(abi.encodePacked(act...\n      SWAP1 \t\t\tkeccak256(abi.encodePacked(act...\n      PUSH 20\t\t\tkeccak256(abi.encodePacked(act...\n      ADD \t\t\tkeccak256(abi.encodePacked(act...\n      KECCAK256 \t\t\tkeccak256(abi.encodePacked(act...\n      SUB \t\t\tkeccak256(abi.encodePacked(act...\n      PUSH [tag] 63\t\t\tif (keccak256(abi.encodePacked...\n      JUMPI \t\t\tif (keccak256(abi.encodePacked...\n      DUP3 \t\t\tquantity\n      DUP2 \t\t\tproduct\n      PUSH 2\t\t\tproduct.quantity\n      ADD \t\t\tproduct.quantity\n      PUSH 0\t\t\tproduct.quantity\n      DUP3 \t\t\tproduct.quantity += quantity\n      DUP3 \t\t\tproduct.quantity += quantity\n      SLOAD \t\t\tproduct.quantity += quantity\n      PUSH [tag] 64\t\t\tproduct.quantity += quantity\n      SWAP2 \t\t\tproduct.quantity += quantity\n      SWAP1 \t\t\tproduct.quantity += quantity\n      PUSH [tag] 65\t\t\tproduct.quantity += quantity\n      JUMP \t\t\tproduct.quantity += quantity\n    tag 64\t\t\tproduct.quantity += quantity\n      JUMPDEST \t\t\tproduct.quantity += quantity\n      SWAP3 \t\t\tproduct.quantity += quantity\n      POP \t\t\tproduct.quantity += quantity\n      POP \t\t\tproduct.quantity += quantity\n      DUP2 \t\t\tproduct.quantity += quantity\n      SWAP1 \t\t\tproduct.quantity += quantity\n      SSTORE \t\t\tproduct.quantity += quantity\n      POP \t\t\tproduct.quantity += quantity\n      PUSH [tag] 66\t\t\tif (keccak256(abi.encodePacked...\n      JUMP \t\t\tif (keccak256(abi.encodePacked...\n    tag 63\t\t\tif (keccak256(abi.encodePacked...\n      JUMPDEST \t\t\tif (keccak256(abi.encodePacked...\n      PUSH 40\t\t\tabi.encodePacked(\"export\")\n      MLOAD \t\t\tabi.encodePacked(\"export\")\n      PUSH 20\t\t\tabi.encodePacked(\"export\")\n      ADD \t\t\tabi.encodePacked(\"export\")\n      PUSH [tag] 67\t\t\tabi.encodePacked(\"export\")\n      SWAP1 \t\t\tabi.encodePacked(\"export\")\n      PUSH [tag] 68\t\t\tabi.encodePacked(\"export\")\n      JUMP \t\t\tabi.encodePacked(\"export\")\n    tag 67\t\t\tabi.encodePacked(\"export\")\n      JUMPDEST \t\t\tabi.encodePacked(\"export\")\n      PUSH 40\t\t\tabi.encodePacked(\"export\")\n      MLOAD \t\t\tabi.encodePacked(\"export\")\n      PUSH 20\t\t\tabi.encodePacked(\"export\")\n      DUP2 \t\t\tabi.encodePacked(\"export\")\n      DUP4 \t\t\tabi.encodePacked(\"export\")\n      SUB \t\t\tabi.encodePacked(\"export\")\n      SUB \t\t\tabi.encodePacked(\"export\")\n      DUP2 \t\t\tabi.encodePacked(\"export\")\n      MSTORE \t\t\tabi.encodePacked(\"export\")\n      SWAP1 \t\t\tabi.encodePacked(\"export\")\n      PUSH 40\t\t\tabi.encodePacked(\"export\")\n      MSTORE \t\t\tabi.encodePacked(\"export\")\n      DUP1 \t\t\tkeccak256(abi.encodePacked(\"ex...\n      MLOAD \t\t\tkeccak256(abi.encodePacked(\"ex...\n      SWAP1 \t\t\tkeccak256(abi.encodePacked(\"ex...\n      PUSH 20\t\t\tkeccak256(abi.encodePacked(\"ex...\n      ADD \t\t\tkeccak256(abi.encodePacked(\"ex...\n      KECCAK256 \t\t\tkeccak256(abi.encodePacked(\"ex...\n      DUP3 \t\t\taction\n      PUSH 40\t\t\tabi.encodePacked(action)\n      MLOAD \t\t\tabi.encodePacked(action)\n      PUSH 20\t\t\tabi.encodePacked(action)\n      ADD \t\t\tabi.encodePacked(action)\n      PUSH [tag] 69\t\t\tabi.encodePacked(action)\n      SWAP2 \t\t\tabi.encodePacked(action)\n      SWAP1 \t\t\tabi.encodePacked(action)\n      PUSH [tag] 62\t\t\tabi.encodePacked(action)\n      JUMP \t\t\tabi.encodePacked(action)\n    tag 69\t\t\tabi.encodePacked(action)\n      JUMPDEST \t\t\tabi.encodePacked(action)\n      PUSH 40\t\t\tabi.encodePacked(action)\n      MLOAD \t\t\tabi.encodePacked(action)\n      PUSH 20\t\t\tabi.encodePacked(action)\n      DUP2 \t\t\tabi.encodePacked(action)\n      DUP4 \t\t\tabi.encodePacked(action)\n      SUB \t\t\tabi.encodePacked(action)\n      SUB \t\t\tabi.encodePacked(action)\n      DUP2 \t\t\tabi.encodePacked(action)\n      MSTORE \t\t\tabi.encodePacked(action)\n      SWAP1 \t\t\tabi.encodePacked(action)\n      PUSH 40\t\t\tabi.encodePacked(action)\n      MSTORE \t\t\tabi.encodePacked(action)\n      DUP1 \t\t\tkeccak256(abi.encodePacked(act...\n      MLOAD \t\t\tkeccak256(abi.encodePacked(act...\n      SWAP1 \t\t\tkeccak256(abi.encodePacked(act...\n      PUSH 20\t\t\tkeccak256(abi.encodePacked(act...\n      ADD \t\t\tkeccak256(abi.encodePacked(act...\n      KECCAK256 \t\t\tkeccak256(abi.encodePacked(act...\n      SUB \t\t\tkeccak256(abi.encodePacked(act...\n      PUSH [tag] 70\t\t\tif (keccak256(abi.encodePacked...\n      JUMPI \t\t\tif (keccak256(abi.encodePacked...\n      DUP3 \t\t\tquantity\n      DUP2 \t\t\tproduct\n      PUSH 2\t\t\tproduct.quantity\n      ADD \t\t\tproduct.quantity\n      SLOAD \t\t\tproduct.quantity\n      LT \t\t\tproduct.quantity >= quantity\n      ISZERO \t\t\tproduct.quantity >= quantity\n      PUSH [tag] 71\t\t\trequire(product.quantity >= qu...\n      JUMPI \t\t\trequire(product.quantity >= qu...\n      PUSH 40\t\t\trequire(product.quantity >= qu...\n      MLOAD \t\t\trequire(product.quantity >= qu...\n      PUSH 8C379A000000000000000000000000000000000000000000000000000000000\t\t\trequire(product.quantity >= qu...\n      DUP2 \t\t\trequire(product.quantity >= qu...\n      MSTORE \t\t\trequire(product.quantity >= qu...\n      PUSH 4\t\t\trequire(product.quantity >= qu...\n      ADD \t\t\trequire(product.quantity >= qu...\n      PUSH [tag] 72\t\t\trequire(product.quantity >= qu...\n      SWAP1 \t\t\trequire(product.quantity >= qu...\n      PUSH [tag] 73\t\t\trequire(product.quantity >= qu...\n      JUMP \t\t\trequire(product.quantity >= qu...\n    tag 72\t\t\trequire(product.quantity >= qu...\n      JUMPDEST \t\t\trequire(product.quantity >= qu...\n      PUSH 40\t\t\trequire(product.quantity >= qu...\n      MLOAD \t\t\trequire(product.quantity >= qu...\n      DUP1 \t\t\trequire(product.quantity >= qu...\n      SWAP2 \t\t\trequire(product.quantity >= qu...\n      SUB \t\t\trequire(product.quantity >= qu...\n      SWAP1 \t\t\trequire(product.quantity >= qu...\n      REVERT \t\t\trequire(product.quantity >= qu...\n    tag 71\t\t\trequire(product.quantity >= qu...\n      JUMPDEST \t\t\trequire(product.quantity >= qu...\n      DUP3 \t\t\tquantity\n      DUP2 \t\t\tproduct\n      PUSH 2\t\t\tproduct.quantity\n      ADD \t\t\tproduct.quantity\n      PUSH 0\t\t\tproduct.quantity\n      DUP3 \t\t\tproduct.quantity -= quantity\n      DUP3 \t\t\tproduct.quantity -= quantity\n      SLOAD \t\t\tproduct.quantity -= quantity\n      PUSH [tag] 74\t\t\tproduct.quantity -= quantity\n      SWAP2 \t\t\tproduct.quantity -= quantity\n      SWAP1 \t\t\tproduct.quantity -= quantity\n      PUSH [tag] 75\t\t\tproduct.quantity -= quantity\n      JUMP \t\t\tproduct.quantity -= quantity\n    tag 74\t\t\tproduct.quantity -= quantity\n      JUMPDEST \t\t\tproduct.quantity -= quantity\n      SWAP3 \t\t\tproduct.quantity -= quantity\n      POP \t\t\tproduct.quantity -= quantity\n      POP \t\t\tproduct.quantity -= quantity\n      DUP2 \t\t\tproduct.quantity -= quantity\n      SWAP1 \t\t\tproduct.quantity -= quantity\n      SSTORE \t\t\tproduct.quantity -= quantity\n      POP \t\t\tproduct.quantity -= quantity\n    tag 70\t\t\tif (keccak256(abi.encodePacked...\n      JUMPDEST \t\t\tif (keccak256(abi.encodePacked...\n    tag 66\t\t\tif (keccak256(abi.encodePacked...\n      JUMPDEST \t\t\tif (keccak256(abi.encodePacked...\n      PUSH 1\t\t\tansactions[id].push\n      PUSH 0\t\t\tansactions[id].push(Tra\n      DUP6 \t\t\tTr\n      DUP2 \t\t\tansactions[id].push(Tra\n      MSTORE \t\t\tansactions[id].push(Tra\n      PUSH 20\t\t\tansactions[id].push(Tra\n      ADD \t\t\tansactions[id].push(Tra\n      SWAP1 \t\t\tansactions[id].push(Tra\n      DUP2 \t\t\tansactions[id].push(Tra\n      MSTORE \t\t\tansactions[id].push(Tra\n      PUSH 20\t\t\tansactions[id].push(Tra\n      ADD \t\t\tansactions[id].push(Tra\n      PUSH 0\t\t\tansactions[id].push(Tra\n      KECCAK256 \t\t\tansactions[id].push(Tra\n      PUSH 40\t\t\ton(id, quantity, action, block...\n      MLOAD \t\t\ton(id, quantity, action, block...\n      DUP1 \t\t\ton(id, quantity, action, block...\n      PUSH 80\t\t\ton(id, quantity, action, block...\n      ADD \t\t\ton(id, quantity, action, block...\n      PUSH 40\t\t\ton(id, quantity, action, block...\n      MSTORE \t\t\ton(id, quantity, action, block...\n      DUP1 \t\t\ton(id, quantity, action, block...\n      DUP7 \t\t\tit\n      DUP2 \t\t\ton(id, quantity, action, block...\n      MSTORE \t\t\ton(id, quantity, action, block...\n      PUSH 20\t\t\ton(id, quantity, action, block...\n      ADD \t\t\ton(id, quantity, action, block...\n      DUP6 \t\t\t action,\n      DUP2 \t\t\ton(id, quantity, action, block...\n      MSTORE \t\t\ton(id, quantity, action, block...\n      PUSH 20\t\t\ton(id, quantity, action, block...\n      ADD \t\t\ton(id, quantity, action, block...\n      DUP5 \t\t\tlock.t\n      DUP2 \t\t\ton(id, quantity, action, block...\n      MSTORE \t\t\ton(id, quantity, action, block...\n      PUSH 20\t\t\ton(id, quantity, action, block...\n      ADD \t\t\ton(id, quantity, action, block...\n      TIMESTAMP \t\t\testamp));\\r\\n    \n      DUP2 \t\t\ton(id, quantity, action, block...\n      MSTORE \t\t\ton(id, quantity, action, block...\n      POP \t\t\ton(id, quantity, action, block...\n      SWAP1 \t\t\tansactions[id].push(Transactio...\n      DUP1 \t\t\tansactions[id].push(Transactio...\n      PUSH 1\t\t\tansactions[id].push(Transactio...\n      DUP2 \t\t\tansactions[id].push(Transactio...\n      SLOAD \t\t\tansactions[id].push(Transactio...\n      ADD \t\t\tansactions[id].push(Transactio...\n      DUP1 \t\t\tansactions[id].push(Transactio...\n      DUP3 \t\t\tansactions[id].push(Transactio...\n      SSTORE \t\t\tansactions[id].push(Transactio...\n      DUP1 \t\t\tansactions[id].push(Transactio...\n      SWAP2 \t\t\tansactions[id].push(Transactio...\n      POP \t\t\tansactions[id].push(Transactio...\n      POP \t\t\tansactions[id].push(Transactio...\n      PUSH 1\t\t\tansactions[id].push(Transactio...\n      SWAP1 \t\t\tansactions[id].push(Transactio...\n      SUB \t\t\tansactions[id].push(Transactio...\n      SWAP1 \t\t\tansactions[id].push(Transactio...\n      PUSH 0\t\t\tansactions[id].push(Transactio...\n      MSTORE \t\t\tansactions[id].push(Transactio...\n      PUSH 20\t\t\tansactions[id].push(Transactio...\n      PUSH 0\t\t\tansactions[id].push(Transactio...\n      KECCAK256 \t\t\tansactions[id].push(Transactio...\n      SWAP1 \t\t\tansactions[id].push(Transactio...\n      PUSH 4\t\t\tansactions[id].push(Transactio...\n      MUL \t\t\tansactions[id].push(Transactio...\n      ADD \t\t\tansactions[id].push(Transactio...\n      PUSH 0\t\t\tansactions[id].push(Transactio...\n      SWAP1 \t\t\tansactions[id].push(Transactio...\n      SWAP2 \t\t\tansactions[id].push(Transactio...\n      SWAP1 \t\t\tansactions[id].push(Transactio...\n      SWAP2 \t\t\tansactions[id].push(Transactio...\n      SWAP1 \t\t\tansactions[id].push(Transactio...\n      SWAP2 \t\t\tansactions[id].push(Transactio...\n      POP \t\t\tansactions[id].push(Transactio...\n      PUSH 0\t\t\tansactions[id].push(Transactio...\n      DUP3 \t\t\tansactions[id].push(Transactio...\n      ADD \t\t\tansactions[id].push(Transactio...\n      MLOAD \t\t\tansactions[id].push(Transactio...\n      DUP2 \t\t\tansactions[id].push(Transactio...\n      PUSH 0\t\t\tansactions[id].push(Transactio...\n      ADD \t\t\tansactions[id].push(Transactio...\n      SSTORE \t\t\tansactions[id].push(Transactio...\n      PUSH 20\t\t\tansactions[id].push(Transactio...\n      DUP3 \t\t\tansactions[id].push(Transactio...\n      ADD \t\t\tansactions[id].push(Transactio...\n      MLOAD \t\t\tansactions[id].push(Transactio...\n      DUP2 \t\t\tansactions[id].push(Transactio...\n      PUSH 1\t\t\tansactions[id].push(Transactio...\n      ADD \t\t\tansactions[id].push(Transactio...\n      SSTORE \t\t\tansactions[id].push(Transactio...\n      PUSH 40\t\t\tansactions[id].push(Transactio...\n      DUP3 \t\t\tansactions[id].push(Transactio...\n      ADD \t\t\tansactions[id].push(Transactio...\n      MLOAD \t\t\tansactions[id].push(Transactio...\n      DUP2 \t\t\tansactions[id].push(Transactio...\n      PUSH 2\t\t\tansactions[id].push(Transactio...\n      ADD \t\t\tansactions[id].push(Transactio...\n      SWAP1 \t\t\tansactions[id].push(Transactio...\n      DUP2 \t\t\tansactions[id].push(Transactio...\n      PUSH [tag] 77\t\t\tansactions[id].push(Transactio...\n      SWAP2 \t\t\tansactions[id].push(Transactio...\n      SWAP1 \t\t\tansactions[id].push(Transactio...\n      PUSH [tag] 78\t\t\tansactions[id].push(Transactio...\n      JUMP \t\t\tansactions[id].push(Transactio...\n    tag 77\t\t\tansactions[id].push(Transactio...\n      JUMPDEST \t\t\tansactions[id].push(Transactio...\n      POP \t\t\tansactions[id].push(Transactio...\n      PUSH 60\t\t\tansactions[id].push(Transactio...\n      DUP3 \t\t\tansactions[id].push(Transactio...\n      ADD \t\t\tansactions[id].push(Transactio...\n      MLOAD \t\t\tansactions[id].push(Transactio...\n      DUP2 \t\t\tansactions[id].push(Transactio...\n      PUSH 3\t\t\tansactions[id].push(Transactio...\n      ADD \t\t\tansactions[id].push(Transactio...\n      SSTORE \t\t\tansactions[id].push(Transactio...\n      POP \t\t\tansactions[id].push(Transactio...\n      POP \t\t\tansactions[id].push(Transactio...\n      PUSH F9B1D9170FBE32752353E00D62E5276B143166C75AA974030DDDFAC2895601FE\t\t\tdated(id, product.name, produc...\n      DUP5 \t\t\tct\n      DUP3 \t\t\tame, pr\n      PUSH 1\t\t\tame, product\n      ADD \t\t\tame, product\n      DUP4 \t\t\tuantity\n      PUSH 2\t\t\tuantity);\\r\\n     \n      ADD \t\t\tuantity);\\r\\n     \n      SLOAD \t\t\tuantity);\\r\\n     \n      PUSH 40\t\t\tdated(id, product.name, produc...\n      MLOAD \t\t\tdated(id, product.name, produc...\n      PUSH [tag] 79\t\t\tdated(id, product.name, produc...\n      SWAP4 \t\t\tdated(id, product.name, produc...\n      SWAP3 \t\t\tdated(id, product.name, produc...\n      SWAP2 \t\t\tdated(id, product.name, produc...\n      SWAP1 \t\t\tdated(id, product.name, produc...\n      PUSH [tag] 80\t\t\tdated(id, product.name, produc...\n      JUMP \t\t\tdated(id, product.name, produc...\n    tag 79\t\t\tdated(id, product.name, produc...\n      JUMPDEST \t\t\tdated(id, product.name, produc...\n      PUSH 40\t\t\tdated(id, product.name, produc...\n      MLOAD \t\t\tdated(id, product.name, produc...\n      DUP1 \t\t\tdated(id, product.name, produc...\n      SWAP2 \t\t\tdated(id, product.name, produc...\n      SUB \t\t\tdated(id, product.name, produc...\n      SWAP1 \t\t\tdated(id, product.name, produc...\n      LOG1 \t\t\tdated(id, product.name, produc...\n      PUSH 268D9AEF58E041132C5BAA4FE6F6C996E361D5516700EC40FB69100FC654068F\t\t\tonRecorded(id, quantity, actio...\n      DUP5 \t\t\tit\n      DUP5 \t\t\t action,\n      DUP5 \t\t\tlock.t\n      TIMESTAMP \t\t\testamp);\\r\\n    }\n      PUSH 40\t\t\tonRecorded(id, quantity, actio...\n      MLOAD \t\t\tonRecorded(id, quantity, actio...\n      PUSH [tag] 81\t\t\tonRecorded(id, quantity, actio...\n      SWAP5 \t\t\tonRecorded(id, quantity, actio...\n      SWAP4 \t\t\tonRecorded(id, quantity, actio...\n      SWAP3 \t\t\tonRecorded(id, quantity, actio...\n      SWAP2 \t\t\tonRecorded(id, quantity, actio...\n      SWAP1 \t\t\tonRecorded(id, quantity, actio...\n      PUSH [tag] 16\t\t\tonRecorded(id, quantity, actio...\n      JUMP \t\t\tonRecorded(id, quantity, actio...\n    tag 81\t\t\tonRecorded(id, quantity, actio...\n      JUMPDEST \t\t\tonRecorded(id, quantity, actio...\n      PUSH 40\t\t\tonRecorded(id, quantity, actio...\n      MLOAD \t\t\tonRecorded(id, quantity, actio...\n      DUP1 \t\t\tonRecorded(id, quantity, actio...\n      SWAP2 \t\t\tonRecorded(id, quantity, actio...\n      SUB \t\t\tonRecorded(id, quantity, actio...\n      SWAP1 \t\t\tonRecorded(id, quantity, actio...\n      LOG1 \t\t\tonRecorded(id, quantity, actio...\n      POP \t\t\t{\\r\\n        Product storage p...\n      POP \t\t\tfunction updateProduct(uint id...\n      POP \t\t\tfunction updateProduct(uint id...\n      POP \t\t\tfunction updateProduct(uint id...\n      JUMP \t\t\tfunction updateProduct(uint id...\n    tag 29\t\t\tgetProductTransactions(uint id...\n      JUMPDEST \t\t\tgetProductTransactions(uint id...\n      PUSH 60\t\t\ton[] memory) {\\r\\n    \n      PUSH 1\t\t\tansactions[id];\\r\\n  \n      PUSH 0\t\t\tansactions[id];\\r\\n    }\\r\n      DUP4 \t\t\t }\n      DUP2 \t\t\tansactions[id];\\r\\n    }\\r\n      MSTORE \t\t\tansactions[id];\\r\\n    }\\r\n      PUSH 20\t\t\tansactions[id];\\r\\n    }\\r\n      ADD \t\t\tansactions[id];\\r\\n    }\\r\n      SWAP1 \t\t\tansactions[id];\\r\\n    }\\r\n      DUP2 \t\t\tansactions[id];\\r\\n    }\\r\n      MSTORE \t\t\tansactions[id];\\r\\n    }\\r\n      PUSH 20\t\t\tansactions[id];\\r\\n    }\\r\n      ADD \t\t\tansactions[id];\\r\\n    }\\r\n      PUSH 0\t\t\tansactions[id];\\r\\n    }\\r\n      KECCAK256 \t\t\tansactions[id];\\r\\n    }\\r\n      DUP1 \t\t\toductTransactions[id];\\r\\n    ...\n      SLOAD \t\t\toductTransactions[id];\\r\\n    ...\n      DUP1 \t\t\toductTransactions[id];\\r\\n    ...\n      PUSH 20\t\t\toductTransactions[id];\\r\\n    ...\n      MUL \t\t\toductTransactions[id];\\r\\n    ...\n      PUSH 20\t\t\toductTransactions[id];\\r\\n    ...\n      ADD \t\t\toductTransactions[id];\\r\\n    ...\n      PUSH 40\t\t\toductTransactions[id];\\r\\n    ...\n      MLOAD \t\t\toductTransactions[id];\\r\\n    ...\n      SWAP1 \t\t\toductTransactions[id];\\r\\n    ...\n      DUP2 \t\t\toductTransactions[id];\\r\\n    ...\n      ADD \t\t\toductTransactions[id];\\r\\n    ...\n      PUSH 40\t\t\toductTransactions[id];\\r\\n    ...\n      MSTORE \t\t\toductTransactions[id];\\r\\n    ...\n      DUP1 \t\t\toductTransactions[id];\\r\\n    ...\n      SWAP3 \t\t\toductTransactions[id];\\r\\n    ...\n      SWAP2 \t\t\toductTransactions[id];\\r\\n    ...\n      SWAP1 \t\t\toductTransactions[id];\\r\\n    ...\n      DUP2 \t\t\toductTransactions[id];\\r\\n    ...\n      DUP2 \t\t\toductTransactions[id];\\r\\n    ...\n      MSTORE \t\t\toductTransactions[id];\\r\\n    ...\n      PUSH 20\t\t\toductTransactions[id];\\r\\n    ...\n      ADD \t\t\toductTransactions[id];\\r\\n    ...\n      PUSH 0\t\t\toductTransactions[id];\\r\\n    ...\n      SWAP1 \t\t\toductTransactions[id];\\r\\n    ...\n    tag 83\t\t\toductTransactions[id];\\r\\n    ...\n      JUMPDEST \t\t\toductTransactions[id];\\r\\n    ...\n      DUP3 \t\t\toductTransactions[id];\\r\\n    ...\n      DUP3 \t\t\toductTransactions[id];\\r\\n    ...\n      LT \t\t\toductTransactions[id];\\r\\n    ...\n      ISZERO \t\t\toductTransactions[id];\\r\\n    ...\n      PUSH [tag] 84\t\t\toductTransactions[id];\\r\\n    ...\n      JUMPI \t\t\toductTransactions[id];\\r\\n    ...\n      DUP4 \t\t\toductTransactions[id];\\r\\n    ...\n      DUP3 \t\t\toductTransactions[id];\\r\\n    ...\n      SWAP1 \t\t\toductTransactions[id];\\r\\n    ...\n      PUSH 0\t\t\toductTransactions[id];\\r\\n    ...\n      MSTORE \t\t\toductTransactions[id];\\r\\n    ...\n      PUSH 20\t\t\toductTransactions[id];\\r\\n    ...\n      PUSH 0\t\t\toductTransactions[id];\\r\\n    ...\n      KECCAK256 \t\t\toductTransactions[id];\\r\\n    ...\n      SWAP1 \t\t\toductTransactions[id];\\r\\n    ...\n      PUSH 4\t\t\toductTransactions[id];\\r\\n    ...\n      MUL \t\t\toductTransactions[id];\\r\\n    ...\n      ADD \t\t\toductTransactions[id];\\r\\n    ...\n      PUSH 40\t\t\toductTransactions[id];\\r\\n    ...\n      MLOAD \t\t\toductTransactions[id];\\r\\n    ...\n      DUP1 \t\t\toductTransactions[id];\\r\\n    ...\n      PUSH 80\t\t\toductTransactions[id];\\r\\n    ...\n      ADD \t\t\toductTransactions[id];\\r\\n    ...\n      PUSH 40\t\t\toductTransactions[id];\\r\\n    ...\n      MSTORE \t\t\toductTransactions[id];\\r\\n    ...\n      SWAP1 \t\t\toductTransactions[id];\\r\\n    ...\n      DUP2 \t\t\toductTransactions[id];\\r\\n    ...\n      PUSH 0\t\t\toductTransactions[id];\\r\\n    ...\n      DUP3 \t\t\toductTransactions[id];\\r\\n    ...\n      ADD \t\t\toductTransactions[id];\\r\\n    ...\n      SLOAD \t\t\toductTransactions[id];\\r\\n    ...\n      DUP2 \t\t\toductTransactions[id];\\r\\n    ...\n      MSTORE \t\t\toductTransactions[id];\\r\\n    ...\n      PUSH 20\t\t\toductTransactions[id];\\r\\n    ...\n      ADD \t\t\toductTransactions[id];\\r\\n    ...\n      PUSH 1\t\t\toductTransactions[id];\\r\\n    ...\n      DUP3 \t\t\toductTransactions[id];\\r\\n    ...\n      ADD \t\t\toductTransactions[id];\\r\\n    ...\n      SLOAD \t\t\toductTransactions[id];\\r\\n    ...\n      DUP2 \t\t\toductTransactions[id];\\r\\n    ...\n      MSTORE \t\t\toductTransactions[id];\\r\\n    ...\n      PUSH 20\t\t\toductTransactions[id];\\r\\n    ...\n      ADD \t\t\toductTransactions[id];\\r\\n    ...\n      PUSH 2\t\t\toductTransactions[id];\\r\\n    ...\n      DUP3 \t\t\toductTransactions[id];\\r\\n    ...\n      ADD \t\t\toductTransactions[id];\\r\\n    ...\n      DUP1 \t\t\toductTransactions[id];\\r\\n    ...\n      SLOAD \t\t\toductTransactions[id];\\r\\n    ...\n      PUSH [tag] 86\t\t\toductTransactions[id];\\r\\n    ...\n      SWAP1 \t\t\toductTransactions[id];\\r\\n    ...\n      PUSH [tag] 48\t\t\toductTransactions[id];\\r\\n    ...\n      JUMP \t\t\toductTransactions[id];\\r\\n    ...\n    tag 86\t\t\toductTransactions[id];\\r\\n    ...\n      JUMPDEST \t\t\toductTransactions[id];\\r\\n    ...\n      DUP1 \t\t\toductTransactions[id];\\r\\n    ...\n      PUSH 1F\t\t\toductTransactions[id];\\r\\n    ...\n      ADD \t\t\toductTransactions[id];\\r\\n    ...\n      PUSH 20\t\t\toductTransactions[id];\\r\\n    ...\n      DUP1 \t\t\toductTransactions[id];\\r\\n    ...\n      SWAP2 \t\t\toductTransactions[id];\\r\\n    ...\n      DIV \t\t\toductTransactions[id];\\r\\n    ...\n      MUL \t\t\toductTransactions[id];\\r\\n    ...\n      PUSH 20\t\t\toductTransactions[id];\\r\\n    ...\n      ADD \t\t\toductTransactions[id];\\r\\n    ...\n      PUSH 40\t\t\toductTransactions[id];\\r\\n    ...\n      MLOAD \t\t\toductTransactions[id];\\r\\n    ...\n      SWAP1 \t\t\toductTransactions[id];\\r\\n    ...\n      DUP2 \t\t\toductTransactions[id];\\r\\n    ...\n      ADD \t\t\toductTransactions[id];\\r\\n    ...\n      PUSH 40\t\t\toductTransactions[id];\\r\\n    ...\n      MSTORE \t\t\toductTransactions[id];\\r\\n    ...\n      DUP1 \t\t\toductTransactions[id];\\r\\n    ...\n      SWAP3 \t\t\toductTransactions[id];\\r\\n    ...\n      SWAP2 \t\t\toductTransactions[id];\\r\\n    ...\n      SWAP1 \t\t\toductTransactions[id];\\r\\n    ...\n      DUP2 \t\t\toductTransactions[id];\\r\\n    ...\n      DUP2 \t\t\toductTransactions[id];\\r\\n    ...\n      MSTORE \t\t\toductTransactions[id];\\r\\n    ...\n      PUSH 20\t\t\toductTransactions[id];\\r\\n    ...\n      ADD \t\t\toductTransactions[id];\\r\\n    ...\n      DUP3 \t\t\toductTransactions[id];\\r\\n    ...\n      DUP1 \t\t\toductTransactions[id];\\r\\n    ...\n      SLOAD \t\t\toductTransactions[id];\\r\\n    ...\n      PUSH [tag] 87\t\t\toductTransactions[id];\\r\\n    ...\n      SWAP1 \t\t\toductTransactions[id];\\r\\n    ...\n      PUSH [tag] 48\t\t\toductTransactions[id];\\r\\n    ...\n      JUMP \t\t\toductTransactions[id];\\r\\n    ...\n    tag 87\t\t\toductTransactions[id];\\r\\n    ...\n      JUMPDEST \t\t\toductTransactions[id];\\r\\n    ...\n      DUP1 \t\t\toductTransactions[id];\\r\\n    ...\n      ISZERO \t\t\toductTransactions[id];\\r\\n    ...\n      PUSH [tag] 88\t\t\toductTransactions[id];\\r\\n    ...\n      JUMPI \t\t\toductTransactions[id];\\r\\n    ...\n      DUP1 \t\t\toductTransactions[id];\\r\\n    ...\n      PUSH 1F\t\t\toductTransactions[id];\\r\\n    ...\n      LT \t\t\toductTransactions[id];\\r\\n    ...\n      PUSH [tag] 89\t\t\toductTransactions[id];\\r\\n    ...\n      JUMPI \t\t\toductTransactions[id];\\r\\n    ...\n      PUSH 100\t\t\toductTransactions[id];\\r\\n    ...\n      DUP1 \t\t\toductTransactions[id];\\r\\n    ...\n      DUP4 \t\t\toductTransactions[id];\\r\\n    ...\n      SLOAD \t\t\toductTransactions[id];\\r\\n    ...\n      DIV \t\t\toductTransactions[id];\\r\\n    ...\n      MUL \t\t\toductTransactions[id];\\r\\n    ...\n      DUP4 \t\t\toductTransactions[id];\\r\\n    ...\n      MSTORE \t\t\toductTransactions[id];\\r\\n    ...\n      SWAP2 \t\t\toductTransactions[id];\\r\\n    ...\n      PUSH 20\t\t\toductTransactions[id];\\r\\n    ...\n      ADD \t\t\toductTransactions[id];\\r\\n    ...\n      SWAP2 \t\t\toductTransactions[id];\\r\\n    ...\n      PUSH [tag] 88\t\t\toductTransactions[id];\\r\\n    ...\n      JUMP \t\t\toductTransactions[id];\\r\\n    ...\n    tag 89\t\t\toductTransactions[id];\\r\\n    ...\n      JUMPDEST \t\t\toductTransactions[id];\\r\\n    ...\n      DUP3 \t\t\toductTransactions[id];\\r\\n    ...\n      ADD \t\t\toductTransactions[id];\\r\\n    ...\n      SWAP2 \t\t\toductTransactions[id];\\r\\n    ...\n      SWAP1 \t\t\toductTransactions[id];\\r\\n    ...\n      PUSH 0\t\t\toductTransactions[id];\\r\\n    ...\n      MSTORE \t\t\toductTransactions[id];\\r\\n    ...\n      PUSH 20\t\t\toductTransactions[id];\\r\\n    ...\n      PUSH 0\t\t\toductTransactions[id];\\r\\n    ...\n      KECCAK256 \t\t\toductTransactions[id];\\r\\n    ...\n      SWAP1 \t\t\toductTransactions[id];\\r\\n    ...\n    tag 90\t\t\toductTransactions[id];\\r\\n    ...\n      JUMPDEST \t\t\toductTransactions[id];\\r\\n    ...\n      DUP2 \t\t\toductTransactions[id];\\r\\n    ...\n      SLOAD \t\t\toductTransactions[id];\\r\\n    ...\n      DUP2 \t\t\toductTransactions[id];\\r\\n    ...\n      MSTORE \t\t\toductTransactions[id];\\r\\n    ...\n      SWAP1 \t\t\toductTransactions[id];\\r\\n    ...\n      PUSH 1\t\t\toductTransactions[id];\\r\\n    ...\n      ADD \t\t\toductTransactions[id];\\r\\n    ...\n      SWAP1 \t\t\toductTransactions[id];\\r\\n    ...\n      PUSH 20\t\t\toductTransactions[id];\\r\\n    ...\n      ADD \t\t\toductTransactions[id];\\r\\n    ...\n      DUP1 \t\t\toductTransactions[id];\\r\\n    ...\n      DUP4 \t\t\toductTransactions[id];\\r\\n    ...\n      GT \t\t\toductTransactions[id];\\r\\n    ...\n      PUSH [tag] 90\t\t\toductTransactions[id];\\r\\n    ...\n      JUMPI \t\t\toductTransactions[id];\\r\\n    ...\n      DUP3 \t\t\toductTransactions[id];\\r\\n    ...\n      SWAP1 \t\t\toductTransactions[id];\\r\\n    ...\n      SUB \t\t\toductTransactions[id];\\r\\n    ...\n      PUSH 1F\t\t\toductTransactions[id];\\r\\n    ...\n      AND \t\t\toductTransactions[id];\\r\\n    ...\n      DUP3 \t\t\toductTransactions[id];\\r\\n    ...\n      ADD \t\t\toductTransactions[id];\\r\\n    ...\n      SWAP2 \t\t\toductTransactions[id];\\r\\n    ...\n    tag 88\t\t\toductTransactions[id];\\r\\n    ...\n      JUMPDEST \t\t\toductTransactions[id];\\r\\n    ...\n      POP \t\t\toductTransactions[id];\\r\\n    ...\n      POP \t\t\toductTransactions[id];\\r\\n    ...\n      POP \t\t\toductTransactions[id];\\r\\n    ...\n      POP \t\t\toductTransactions[id];\\r\\n    ...\n      POP \t\t\toductTransactions[id];\\r\\n    ...\n      DUP2 \t\t\toductTransactions[id];\\r\\n    ...\n      MSTORE \t\t\toductTransactions[id];\\r\\n    ...\n      PUSH 20\t\t\toductTransactions[id];\\r\\n    ...\n      ADD \t\t\toductTransactions[id];\\r\\n    ...\n      PUSH 3\t\t\toductTransactions[id];\\r\\n    ...\n      DUP3 \t\t\toductTransactions[id];\\r\\n    ...\n      ADD \t\t\toductTransactions[id];\\r\\n    ...\n      SLOAD \t\t\toductTransactions[id];\\r\\n    ...\n      DUP2 \t\t\toductTransactions[id];\\r\\n    ...\n      MSTORE \t\t\toductTransactions[id];\\r\\n    ...\n      POP \t\t\toductTransactions[id];\\r\\n    ...\n      POP \t\t\toductTransactions[id];\\r\\n    ...\n      DUP2 \t\t\toductTransactions[id];\\r\\n    ...\n      MSTORE \t\t\toductTransactions[id];\\r\\n    ...\n      PUSH 20\t\t\toductTransactions[id];\\r\\n    ...\n      ADD \t\t\toductTransactions[id];\\r\\n    ...\n      SWAP1 \t\t\toductTransactions[id];\\r\\n    ...\n      PUSH 1\t\t\toductTransactions[id];\\r\\n    ...\n      ADD \t\t\toductTransactions[id];\\r\\n    ...\n      SWAP1 \t\t\toductTransactions[id];\\r\\n    ...\n      PUSH [tag] 83\t\t\toductTransactions[id];\\r\\n    ...\n      JUMP \t\t\toductTransactions[id];\\r\\n    ...\n    tag 84\t\t\toductTransactions[id];\\r\\n    ...\n      JUMPDEST \t\t\toductTransactions[id];\\r\\n    ...\n      POP \t\t\toductTransactions[id];\\r\\n    ...\n      POP \t\t\toductTransactions[id];\\r\\n    ...\n      POP \t\t\toductTransactions[id];\\r\\n    ...\n      POP \t\t\toductTransactions[id];\\r\\n    ...\n      SWAP1 \t\t\toductTransactions[id];\\r\\n    ...\n      POP \t\t\toductTransactions[id];\\r\\n    ...\n      SWAP2 \t\t\tgetProductTransactions(uint id...\n      SWAP1 \t\t\tgetProductTransactions(uint id...\n      POP \t\t\tgetProductTransactions(uint id...\n      JUMP \t\t\tgetProductTransactions(uint id...\n    tag 35\t\t\tfunction addProduct(string mem...\n      JUMPDEST \t\t\tfunction addProduct(string mem...\n      PUSH 2\t\t\tproductCount\n      PUSH 0\t\t\tproductCount\n      DUP2 \t\t\tproductCount++\n      SLOAD \t\t\tproductCount++\n      DUP1 \t\t\tproductCount++\n      SWAP3 \t\t\tproductCount++\n      SWAP2 \t\t\tproductCount++\n      SWAP1 \t\t\tproductCount++\n      PUSH [tag] 92\t\t\tproductCount++\n      SWAP1 \t\t\tproductCount++\n      PUSH [tag] 93\t\t\tproductCount++\n      JUMP \t\t\tproductCount++\n    tag 92\t\t\tproductCount++\n      JUMPDEST \t\t\tproductCount++\n      SWAP2 \t\t\tproductCount++\n      SWAP1 \t\t\tproductCount++\n      POP \t\t\tproductCount++\n      SSTORE \t\t\tproductCount++\n      POP \t\t\tproductCount++\n      PUSH 40\t\t\tProduct(productCount, name, qu...\n      MLOAD \t\t\tProduct(productCount, name, qu...\n      DUP1 \t\t\tProduct(productCount, name, qu...\n      PUSH 60\t\t\tProduct(productCount, name, qu...\n      ADD \t\t\tProduct(productCount, name, qu...\n      PUSH 40\t\t\tProduct(productCount, name, qu...\n      MSTORE \t\t\tProduct(productCount, name, qu...\n      DUP1 \t\t\tProduct(productCount, name, qu...\n      PUSH 2\t\t\tproductCount\n      SLOAD \t\t\tproductCount\n      DUP2 \t\t\tProduct(productCount, name, qu...\n      MSTORE \t\t\tProduct(productCount, name, qu...\n      PUSH 20\t\t\tProduct(productCount, name, qu...\n      ADD \t\t\tProduct(productCount, name, qu...\n      DUP4 \t\t\tname\n      DUP2 \t\t\tProduct(productCount, name, qu...\n      MSTORE \t\t\tProduct(productCount, name, qu...\n      PUSH 20\t\t\tProduct(productCount, name, qu...\n      ADD \t\t\tProduct(productCount, name, qu...\n      DUP3 \t\t\tquantity\n      DUP2 \t\t\tProduct(productCount, name, qu...\n      MSTORE \t\t\tProduct(productCount, name, qu...\n      POP \t\t\tProduct(productCount, name, qu...\n      PUSH 0\t\t\tproducts\n      DUP1 \t\t\tproducts[productCount]\n      PUSH 2\t\t\tproductCount\n      SLOAD \t\t\tproductCount\n      DUP2 \t\t\tproducts[productCount]\n      MSTORE \t\t\tproducts[productCount]\n      PUSH 20\t\t\tproducts[productCount]\n      ADD \t\t\tproducts[productCount]\n      SWAP1 \t\t\tproducts[productCount]\n      DUP2 \t\t\tproducts[productCount]\n      MSTORE \t\t\tproducts[productCount]\n      PUSH 20\t\t\tproducts[productCount]\n      ADD \t\t\tproducts[productCount]\n      PUSH 0\t\t\tproducts[productCount]\n      KECCAK256 \t\t\tproducts[productCount]\n      PUSH 0\t\t\tproducts[productCount] = Produ...\n      DUP3 \t\t\tproducts[productCount] = Produ...\n      ADD \t\t\tproducts[productCount] = Produ...\n      MLOAD \t\t\tproducts[productCount] = Produ...\n      DUP2 \t\t\tproducts[productCount] = Produ...\n      PUSH 0\t\t\tproducts[productCount] = Produ...\n      ADD \t\t\tproducts[productCount] = Produ...\n      SSTORE \t\t\tproducts[productCount] = Produ...\n      PUSH 20\t\t\tproducts[productCount] = Produ...\n      DUP3 \t\t\tproducts[productCount] = Produ...\n      ADD \t\t\tproducts[productCount] = Produ...\n      MLOAD \t\t\tproducts[productCount] = Produ...\n      DUP2 \t\t\tproducts[productCount] = Produ...\n      PUSH 1\t\t\tproducts[productCount] = Produ...\n      ADD \t\t\tproducts[productCount] = Produ...\n      SWAP1 \t\t\tproducts[productCount] = Produ...\n      DUP2 \t\t\tproducts[productCount] = Produ...\n      PUSH [tag] 94\t\t\tproducts[productCount] = Produ...\n      SWAP2 \t\t\tproducts[productCount] = Produ...\n      SWAP1 \t\t\tproducts[productCount] = Produ...\n      PUSH [tag] 78\t\t\tproducts[productCount] = Produ...\n      JUMP \t\t\tproducts[productCount] = Produ...\n    tag 94\t\t\tproducts[productCount] = Produ...\n      JUMPDEST \t\t\tproducts[productCount] = Produ...\n      POP \t\t\tproducts[productCount] = Produ...\n      PUSH 40\t\t\tproducts[productCount] = Produ...\n      DUP3 \t\t\tproducts[productCount] = Produ...\n      ADD \t\t\tproducts[productCount] = Produ...\n      MLOAD \t\t\tproducts[productCount] = Produ...\n      DUP2 \t\t\tproducts[productCount] = Produ...\n      PUSH 2\t\t\tproducts[productCount] = Produ...\n      ADD \t\t\tproducts[productCount] = Produ...\n      SSTORE \t\t\tproducts[productCount] = Produ...\n      SWAP1 \t\t\tproducts[productCount] = Produ...\n      POP \t\t\tproducts[productCount] = Produ...\n      POP \t\t\tproducts[productCount] = Produ...\n      PUSH CCA07C742C5274E8B72111BA69566AA4442450BFC50BD897EA38D0170D1ACCFC\t\t\tProductAdded(productCount, nam...\n      PUSH 2\t\t\tproductCount\n      SLOAD \t\t\tproductCount\n      DUP4 \t\t\tname\n      DUP4 \t\t\tquantity\n      PUSH 40\t\t\tProductAdded(productCount, nam...\n      MLOAD \t\t\tProductAdded(productCount, nam...\n      PUSH [tag] 95\t\t\tProductAdded(productCount, nam...\n      SWAP4 \t\t\tProductAdded(productCount, nam...\n      SWAP3 \t\t\tProductAdded(productCount, nam...\n      SWAP2 \t\t\tProductAdded(productCount, nam...\n      SWAP1 \t\t\tProductAdded(productCount, nam...\n      PUSH [tag] 22\t\t\tProductAdded(productCount, nam...\n      JUMP \t\t\tProductAdded(productCount, nam...\n    tag 95\t\t\tProductAdded(productCount, nam...\n      JUMPDEST \t\t\tProductAdded(productCount, nam...\n      PUSH 40\t\t\tProductAdded(productCount, nam...\n      MLOAD \t\t\tProductAdded(productCount, nam...\n      DUP1 \t\t\tProductAdded(productCount, nam...\n      SWAP2 \t\t\tProductAdded(productCount, nam...\n      SUB \t\t\tProductAdded(productCount, nam...\n      SWAP1 \t\t\tProductAdded(productCount, nam...\n      LOG1 \t\t\tProductAdded(productCount, nam...\n      POP \t\t\tfunction addProduct(string mem...\n      POP \t\t\tfunction addProduct(string mem...\n      JUMP \t\t\tfunction addProduct(string mem...\n    tag 38\t\t\tgetProduct(uint id) public vie...\n      JUMPDEST \t\t\tgetProduct(uint id) public vie...\n      PUSH 60\t\t\tmory name, uint qu\n      PUSH 0\t\t\ttity) {\\r\\n    \n      DUP1 \t\t\temory product = produc\n      PUSH 0\t\t\tid];\\r\\n  \n      DUP1 \t\t\tid];\\r\\n      \n      DUP6 \t\t\t  \n      DUP2 \t\t\tid];\\r\\n      \n      MSTORE \t\t\tid];\\r\\n      \n      PUSH 20\t\t\tid];\\r\\n      \n      ADD \t\t\tid];\\r\\n      \n      SWAP1 \t\t\tid];\\r\\n      \n      DUP2 \t\t\tid];\\r\\n      \n      MSTORE \t\t\tid];\\r\\n      \n      PUSH 20\t\t\tid];\\r\\n      \n      ADD \t\t\tid];\\r\\n      \n      PUSH 0\t\t\tid];\\r\\n      \n      KECCAK256 \t\t\tid];\\r\\n      \n      PUSH 40\t\t\temory product = products[id];\\...\n      MLOAD \t\t\temory product = products[id];\\...\n      DUP1 \t\t\temory product = products[id];\\...\n      PUSH 60\t\t\temory product = products[id];\\...\n      ADD \t\t\temory product = products[id];\\...\n      PUSH 40\t\t\temory product = products[id];\\...\n      MSTORE \t\t\temory product = products[id];\\...\n      SWAP1 \t\t\temory product = products[id];\\...\n      DUP2 \t\t\temory product = products[id];\\...\n      PUSH 0\t\t\temory product = products[id];\\...\n      DUP3 \t\t\temory product = products[id];\\...\n      ADD \t\t\temory product = products[id];\\...\n      SLOAD \t\t\temory product = products[id];\\...\n      DUP2 \t\t\temory product = products[id];\\...\n      MSTORE \t\t\temory product = products[id];\\...\n      PUSH 20\t\t\temory product = products[id];\\...\n      ADD \t\t\temory product = products[id];\\...\n      PUSH 1\t\t\temory product = products[id];\\...\n      DUP3 \t\t\temory product = products[id];\\...\n      ADD \t\t\temory product = products[id];\\...\n      DUP1 \t\t\temory product = products[id];\\...\n      SLOAD \t\t\temory product = products[id];\\...\n      PUSH [tag] 97\t\t\temory product = products[id];\\...\n      SWAP1 \t\t\temory product = products[id];\\...\n      PUSH [tag] 48\t\t\temory product = products[id];\\...\n      JUMP \t\t\temory product = products[id];\\...\n    tag 97\t\t\temory product = products[id];\\...\n      JUMPDEST \t\t\temory product = products[id];\\...\n      DUP1 \t\t\temory product = products[id];\\...\n      PUSH 1F\t\t\temory product = products[id];\\...\n      ADD \t\t\temory product = products[id];\\...\n      PUSH 20\t\t\temory product = products[id];\\...\n      DUP1 \t\t\temory product = products[id];\\...\n      SWAP2 \t\t\temory product = products[id];\\...\n      DIV \t\t\temory product = products[id];\\...\n      MUL \t\t\temory product = products[id];\\...\n      PUSH 20\t\t\temory product = products[id];\\...\n      ADD \t\t\temory product = products[id];\\...\n      PUSH 40\t\t\temory product = products[id];\\...\n      MLOAD \t\t\temory product = products[id];\\...\n      SWAP1 \t\t\temory product = products[id];\\...\n      DUP2 \t\t\temory product = products[id];\\...\n      ADD \t\t\temory product = products[id];\\...\n      PUSH 40\t\t\temory product = products[id];\\...\n      MSTORE \t\t\temory product = products[id];\\...\n      DUP1 \t\t\temory product = products[id];\\...\n      SWAP3 \t\t\temory product = products[id];\\...\n      SWAP2 \t\t\temory product = products[id];\\...\n      SWAP1 \t\t\temory product = products[id];\\...\n      DUP2 \t\t\temory product = products[id];\\...\n      DUP2 \t\t\temory product = products[id];\\...\n      MSTORE \t\t\temory product = products[id];\\...\n      PUSH 20\t\t\temory product = products[id];\\...\n      ADD \t\t\temory product = products[id];\\...\n      DUP3 \t\t\temory product = products[id];\\...\n      DUP1 \t\t\temory product = products[id];\\...\n      SLOAD \t\t\temory product = products[id];\\...\n      PUSH [tag] 98\t\t\temory product = products[id];\\...\n      SWAP1 \t\t\temory product = products[id];\\...\n      PUSH [tag] 48\t\t\temory product = products[id];\\...\n      JUMP \t\t\temory product = products[id];\\...\n    tag 98\t\t\temory product = products[id];\\...\n      JUMPDEST \t\t\temory product = products[id];\\...\n      DUP1 \t\t\temory product = products[id];\\...\n      ISZERO \t\t\temory product = products[id];\\...\n      PUSH [tag] 99\t\t\temory product = products[id];\\...\n      JUMPI \t\t\temory product = products[id];\\...\n      DUP1 \t\t\temory product = products[id];\\...\n      PUSH 1F\t\t\temory product = products[id];\\...\n      LT \t\t\temory product = products[id];\\...\n      PUSH [tag] 100\t\t\temory product = products[id];\\...\n      JUMPI \t\t\temory product = products[id];\\...\n      PUSH 100\t\t\temory product = products[id];\\...\n      DUP1 \t\t\temory product = products[id];\\...\n      DUP4 \t\t\temory product = products[id];\\...\n      SLOAD \t\t\temory product = products[id];\\...\n      DIV \t\t\temory product = products[id];\\...\n      MUL \t\t\temory product = products[id];\\...\n      DUP4 \t\t\temory product = products[id];\\...\n      MSTORE \t\t\temory product = products[id];\\...\n      SWAP2 \t\t\temory product = products[id];\\...\n      PUSH 20\t\t\temory product = products[id];\\...\n      ADD \t\t\temory product = products[id];\\...\n      SWAP2 \t\t\temory product = products[id];\\...\n      PUSH [tag] 99\t\t\temory product = products[id];\\...\n      JUMP \t\t\temory product = products[id];\\...\n    tag 100\t\t\temory product = products[id];\\...\n      JUMPDEST \t\t\temory product = products[id];\\...\n      DUP3 \t\t\temory product = products[id];\\...\n      ADD \t\t\temory product = products[id];\\...\n      SWAP2 \t\t\temory product = products[id];\\...\n      SWAP1 \t\t\temory product = products[id];\\...\n      PUSH 0\t\t\temory product = products[id];\\...\n      MSTORE \t\t\temory product = products[id];\\...\n      PUSH 20\t\t\temory product = products[id];\\...\n      PUSH 0\t\t\temory product = products[id];\\...\n      KECCAK256 \t\t\temory product = products[id];\\...\n      SWAP1 \t\t\temory product = products[id];\\...\n    tag 101\t\t\temory product = products[id];\\...\n      JUMPDEST \t\t\temory product = products[id];\\...\n      DUP2 \t\t\temory product = products[id];\\...\n      SLOAD \t\t\temory product = products[id];\\...\n      DUP2 \t\t\temory product = products[id];\\...\n      MSTORE \t\t\temory product = products[id];\\...\n      SWAP1 \t\t\temory product = products[id];\\...\n      PUSH 1\t\t\temory product = products[id];\\...\n      ADD \t\t\temory product = products[id];\\...\n      SWAP1 \t\t\temory product = products[id];\\...\n      PUSH 20\t\t\temory product = products[id];\\...\n      ADD \t\t\temory product = products[id];\\...\n      DUP1 \t\t\temory product = products[id];\\...\n      DUP4 \t\t\temory product = products[id];\\...\n      GT \t\t\temory product = products[id];\\...\n      PUSH [tag] 101\t\t\temory product = products[id];\\...\n      JUMPI \t\t\temory product = products[id];\\...\n      DUP3 \t\t\temory product = products[id];\\...\n      SWAP1 \t\t\temory product = products[id];\\...\n      SUB \t\t\temory product = products[id];\\...\n      PUSH 1F\t\t\temory product = products[id];\\...\n      AND \t\t\temory product = products[id];\\...\n      DUP3 \t\t\temory product = products[id];\\...\n      ADD \t\t\temory product = products[id];\\...\n      SWAP2 \t\t\temory product = products[id];\\...\n    tag 99\t\t\temory product = products[id];\\...\n      JUMPDEST \t\t\temory product = products[id];\\...\n      POP \t\t\temory product = products[id];\\...\n      POP \t\t\temory product = products[id];\\...\n      POP \t\t\temory product = products[id];\\...\n      POP \t\t\temory product = products[id];\\...\n      POP \t\t\temory product = products[id];\\...\n      DUP2 \t\t\temory product = products[id];\\...\n      MSTORE \t\t\temory product = products[id];\\...\n      PUSH 20\t\t\temory product = products[id];\\...\n      ADD \t\t\temory product = products[id];\\...\n      PUSH 2\t\t\temory product = products[id];\\...\n      DUP3 \t\t\temory product = products[id];\\...\n      ADD \t\t\temory product = products[id];\\...\n      SLOAD \t\t\temory product = products[id];\\...\n      DUP2 \t\t\temory product = products[id];\\...\n      MSTORE \t\t\temory product = products[id];\\...\n      POP \t\t\temory product = products[id];\\...\n      POP \t\t\temory product = products[id];\\...\n      SWAP1 \t\t\temory product = products[id];\\...\n      POP \t\t\temory product = products[id];\\...\n      DUP1 \t\t\tame, pr\n      PUSH 20\t\t\tame, product\n      ADD \t\t\tame, product\n      MLOAD \t\t\tame, product\n      DUP2 \t\t\tuantity\n      PUSH 40\t\t\tuantity);\\r\\n    }\n      ADD \t\t\tuantity);\\r\\n    }\n      MLOAD \t\t\tuantity);\\r\\n    }\n      SWAP3 \t\t\troduct.name, product.quantity)...\n      POP \t\t\troduct.name, product.quantity)...\n      SWAP3 \t\t\troduct.name, product.quantity)...\n      POP \t\t\troduct.name, product.quantity)...\n      POP \t\t\troduct.name, product.quantity)...\n      SWAP2 \t\t\tgetProduct(uint id) public vie...\n      POP \t\t\tgetProduct(uint id) public vie...\n      SWAP2 \t\t\tgetProduct(uint id) public vie...\n      JUMP \t\t\tgetProduct(uint id) public vie...\n    tag 42\t\t\tuint public productCount\n      JUMPDEST \t\t\tuint public productCount\n      PUSH 2\t\t\tuint public productCount\n      SLOAD \t\t\tuint public productCount\n      DUP2 \t\t\tuint public productCount\n      JUMP \t\t\tuint public productCount\n    tag 102\t\t\tsolidity ^0.8.0;\\r\\n\\r\\ncontra...\n      JUMPDEST \t\t\tsolidity ^0.8.0;\\r\\n\\r\\ncontra...\n      PUSH 0\t\t\tlyChai\n      PUSH 40\t\t\t  \n      MLOAD \t\t\tct {\\r\\n   \n      SWAP1 \t\t\truct Product {\\r\\n   \n      POP \t\t\truct Product {\\r\\n   \n      SWAP1 \t\t\tsolidity ^0.8.0;\\r\\n\\r\\ncontra...\n      JUMP \t\t\tsolidity ^0.8.0;\\r\\n\\r\\ncontra...\n    tag 103\t\t\t;\\r\\n        string name;\\r\\n ...\n      JUMPDEST \t\t\t;\\r\\n        string name;\\r\\n ...\n      PUSH 0\t\t\t \n      DUP1 \t\t\t;\n      REVERT \t\t\toductId;\\r\\n  \n    tag 104\t\t\tuantity;\\r\\n        string act...\n      JUMPDEST \t\t\tuantity;\\r\\n        string act...\n      PUSH 0\t\t\t=\n      DUP1 \t\t\tn\n      REVERT \t\t\tping(uint =>\n    tag 105\t\t\tblic products;\\r\\n    mapping(...\n      JUMPDEST \t\t\tblic products;\\r\\n    mapping(...\n      PUSH 0\t\t\transact\n      DUP2 \t\t\transa\n      SWAP1 \t\t\tic productTransa\n      POP \t\t\tic productTransa\n      SWAP2 \t\t\tblic products;\\r\\n    mapping(...\n      SWAP1 \t\t\tblic products;\\r\\n    mapping(...\n      POP \t\t\tblic products;\\r\\n    mapping(...\n      JUMP \t\t\tblic products;\\r\\n    mapping(...\n    tag 106\t\t\t uint public productCount;\\r\\n...\n      JUMPDEST \t\t\t uint public productCount;\\r\\n...\n      PUSH [tag] 165\t\t\tng name, uint quantity);\n      DUP2 \t\t\ttity)\n      PUSH [tag] 105\t\t\tng name, uint quantity);\n      JUMP \t\t\tng name, uint quantity);\n    tag 165\t\t\tng name, uint quantity);\n      JUMPDEST \t\t\tng name, uint quantity);\n      DUP2 \t\t\td, st\n      EQ \t\t\tctId, string name, uint quanti...\n      PUSH [tag] 166\t\t\tuint productId, string name, u...\n      JUMPI \t\t\tuint productId, string name, u...\n      PUSH 0\t\t\td\n      DUP1 \t\t\tP\n      REVERT \t\t\t event Produ\n    tag 166\t\t\tuint productId, string name, u...\n      JUMPDEST \t\t\tuint productId, string name, u...\n      POP \t\t\t uint public productCount;\\r\\n...\n      JUMP \t\t\t uint public productCount;\\r\\n...\n    tag 107\t\t\t productId, string name, uint ...\n      JUMPDEST \t\t\t productId, string name, uint ...\n      PUSH 0\t\t\tevent\n      DUP2 \t\t\tId, ui\n      CALLDATALOAD \t\t\t(uint productId, uin\n      SWAP1 \t\t\tnRecorded(uint productId, uin\n      POP \t\t\tnRecorded(uint productId, uin\n      PUSH [tag] 168\t\t\ty, string action, uint timesta...\n      DUP2 \t\t\tstamp\n      PUSH [tag] 106\t\t\ty, string action, uint timesta...\n      JUMP \t\t\ty, string action, uint timesta...\n    tag 168\t\t\ty, string action, uint timesta...\n      JUMPDEST \t\t\ty, string action, uint timesta...\n      SWAP3 \t\t\t productId, string name, uint ...\n      SWAP2 \t\t\t productId, string name, uint ...\n      POP \t\t\t productId, string name, uint ...\n      POP \t\t\t productId, string name, uint ...\n      JUMP \t\t\t productId, string name, uint ...\n    tag 13\t\t\tction addProduct(string memory...\n      JUMPDEST \t\t\tction addProduct(string memory...\n      PUSH 0\t\t\t  prod\n      DUP1 \t\t\ttCount\n      PUSH 40\t\t\tct\n      DUP4 \t\t\tunt] = Pr\n      DUP6 \t\t\tproduct\n      SUB \t\t\tcts[productCount] = Pro\n      SLT \t\t\troducts[productCount] = Produc...\n      ISZERO \t\t\t  products[productCount] = Pro...\n      PUSH [tag] 170\t\t\t  products[productCount] = Pro...\n      JUMPI \t\t\t  products[productCount] = Pro...\n      PUSH [tag] 171\t\t\tductCount, name, quantity);\\r\\...\n      PUSH [tag] 103\t\t\tductCount, name, quantity);\\r\\...\n      JUMP \t\t\tductCount, name, quantity);\\r\\...\n    tag 171\t\t\tductCount, name, quantity);\\r\\...\n      JUMPDEST \t\t\tductCount, name, quantity);\\r\\...\n    tag 170\t\t\t  products[productCount] = Pro...\n      JUMPDEST \t\t\t  products[productCount] = Pro...\n      PUSH 0\t\t\tp\n      PUSH [tag] 172\t\t\tt quantity, string memory acti...\n      DUP6 \t\t\t       \n      DUP3 \t\t\tblic {\n      DUP7 \t\t\t action) \n      ADD \t\t\tmory action) public {\\r\n      PUSH [tag] 107\t\t\tt quantity, string memory acti...\n      JUMP \t\t\tt quantity, string memory acti...\n    tag 172\t\t\tt quantity, string memory acti...\n      JUMPDEST \t\t\tt quantity, string memory acti...\n      SWAP3 \t\t\tnt id, uint quantity, string m...\n      POP \t\t\tnt id, uint quantity, string m...\n      POP \t\t\tty);\\r\\n    }\\r\\n\\r\\n    funct...\n      PUSH 20\t\t\tf \n      PUSH [tag] 173\t\t\tked(action)) == keccak256(abi....\n      DUP6 \t\t\tmport\")\n      DUP3 \t\t\tPacked\n      DUP7 \t\t\t(abi.enco\n      ADD \t\t\tk256(abi.encodePacked(\n      PUSH [tag] 107\t\t\tked(action)) == keccak256(abi....\n      JUMP \t\t\tked(action)) == keccak256(abi....\n    tag 173\t\t\tked(action)) == keccak256(abi....\n      JUMPDEST \t\t\tked(action)) == keccak256(abi....\n      SWAP2 \t\t\t.encodePacked(action)) == kecc...\n      POP \t\t\t.encodePacked(action)) == kecc...\n      POP \t\t\tct = products[id];\\r\\n        ...\n      SWAP3 \t\t\tction addProduct(string memory...\n      POP \t\t\tction addProduct(string memory...\n      SWAP3 \t\t\tction addProduct(string memory...\n      SWAP1 \t\t\tction addProduct(string memory...\n      POP \t\t\tction addProduct(string memory...\n      JUMP \t\t\tction addProduct(string memory...\n    tag 108\t\t\tt.quantity += quantity;\\r\\n   ...\n      JUMPDEST \t\t\tt.quantity += quantity;\\r\\n   ...\n      PUSH [tag] 175\t\t\tak256(abi.encodePacked(\"\n      DUP2 \t\t\tcked(\n      PUSH [tag] 105\t\t\tak256(abi.encodePacked(\"\n      JUMP \t\t\tak256(abi.encodePacked(\"\n    tag 175\t\t\tak256(abi.encodePacked(\"\n      JUMPDEST \t\t\tak256(abi.encodePacked(\"\n      DUP3 \t\t\t ke\n      MSTORE \t\t\ton)) == keccak256(abi.encodePa...\n      POP \t\t\tt.quantity += quantity;\\r\\n   ...\n      POP \t\t\tt.quantity += quantity;\\r\\n   ...\n      JUMP \t\t\tt.quantity += quantity;\\r\\n   ...\n    tag 109\t\t\t\\n            require(product....\n      JUMPDEST \t\t\t\\n            require(product....\n      PUSH 0\t\t\tInsuff\n      DUP2 \t\t\t prod\n      MLOAD \t\t\t       produ\n      SWAP1 \t\t\t\");\\r\\n            produ\n      POP \t\t\t\");\\r\\n            produ\n      SWAP2 \t\t\t\\n            require(product....\n      SWAP1 \t\t\t\\n            require(product....\n      POP \t\t\t\\n            require(product....\n      JUMP \t\t\t\\n            require(product....\n    tag 110\t\t\t= quantity;\\r\\n        }\\r\\n  ...\n      JUMPDEST \t\t\t= quantity;\\r\\n        }\\r\\n  ...\n      PUSH 0\t\t\tuctTransact\n      DUP3 \t\t\ton(id,\n      DUP3 \t\t\tsac\n      MSTORE \t\t\tsh(Transaction(id, \n      PUSH 20\t\t\t));\\r\n      DUP3 \t\t\tsta\n      ADD \t\t\ttimestamp));\\r\\n\n      SWAP1 \t\t\t action, block.timestamp));\\r\\...\n      POP \t\t\t action, block.timestamp));\\r\\...\n      SWAP3 \t\t\t= quantity;\\r\\n        }\\r\\n  ...\n      SWAP2 \t\t\t= quantity;\\r\\n        }\\r\\n  ...\n      POP \t\t\t= quantity;\\r\\n        }\\r\\n  ...\n      POP \t\t\t= quantity;\\r\\n        }\\r\\n  ...\n      JUMP \t\t\t= quantity;\\r\\n        }\\r\\n  ...\n    tag 111\t\t\t      emit ProductUpdated(id, ...\n      JUMPDEST \t\t\t      emit ProductUpdated(id, ...\n      DUP3 \t\t\tecorde\n      DUP2 \t\t\ttio\n      DUP4 \t\t\tans\n      MCOPY \t\t\tmit TransactionRecorded\n      PUSH 0\t\t\tt\n      DUP4 \t\t\tock.ti\n      DUP4 \t\t\tn, \n      ADD \t\t\tction, block.tim\n      MSTORE \t\t\ttity, action, block.timesta\n      POP \t\t\t      emit ProductUpdated(id, ...\n      POP \t\t\t      emit ProductUpdated(id, ...\n      POP \t\t\t      emit ProductUpdated(id, ...\n      JUMP \t\t\t      emit ProductUpdated(id, ...\n    tag 112\t\t\t\\r\\n    function getProduct(ui...\n      JUMPDEST \t\t\t\\r\\n    function getProduct(ui...\n      PUSH 0\t\t\t view \n      PUSH 1F\t\t\t\\r\\n\n      NOT \t\t\ty) {\\r\\n \n      PUSH 1F\t\t\tan\n      DUP4 \t\t\tuint \n      ADD \t\t\tme, uint quant\n      AND \t\t\ty name, uint quantity) {\\r\\n  \n      SWAP1 \t\t\tring memory name, uint quantit...\n      POP \t\t\tring memory name, uint quantit...\n      SWAP2 \t\t\t\\r\\n    function getProduct(ui...\n      SWAP1 \t\t\t\\r\\n    function getProduct(ui...\n      POP \t\t\t\\r\\n    function getProduct(ui...\n      JUMP \t\t\t\\r\\n    function getProduct(ui...\n    tag 113\t\t\tt memory product = products[id...\n      JUMPDEST \t\t\tt memory product = products[id...\n      PUSH 0\t\t\t}\\r\\n\n      PUSH [tag] 181\t\t\tTransactions(uint id) public v...\n      DUP3 \t\t\t retu\n      PUSH [tag] 109\t\t\tTransactions(uint id) public v...\n      JUMP \t\t\tTransactions(uint id) public v...\n    tag 181\t\t\tTransactions(uint id) public v...\n      JUMPDEST \t\t\tTransactions(uint id) public v...\n      PUSH [tag] 182\t\t\t] memory) {\\r\\n        return ...\n      DUP2 \t\t\t\n      DUP6 \t\t\t\\r\\n}\n      PUSH [tag] 110\t\t\t] memory) {\\r\\n        return ...\n      JUMP \t\t\t] memory) {\\r\\n        return ...\n    tag 182\t\t\t] memory) {\\r\\n        return ...\n      JUMPDEST \t\t\t] memory) {\\r\\n        return ...\n      SWAP4 \t\t\taction[] memory) {\\r\\n        ...\n      POP \t\t\taction[] memory) {\\r\\n        ...\n      PUSH [tag] 183\t\t\t\n      DUP2 \t\t\t\n      DUP6 \t\t\t\n      PUSH 20\t\t\t\n      DUP7 \t\t\t\n      ADD \t\t\t\n      PUSH [tag] 111\t\t\t\n      JUMP \t\t\t\n    tag 183\t\t\t\n      JUMPDEST \t\t\t\n      PUSH [tag] 184\t\t\t\n      DUP2 \t\t\t\n      PUSH [tag] 112\t\t\t\n      JUMP \t\t\t\n    tag 184\t\t\t\n      JUMPDEST \t\t\t\n      DUP5 \t\t\t\n      ADD \t\t\t\n      SWAP2 \t\t\t\n      POP \t\t\t\n      POP \t\t\t\\n    function getProductTrans...\n      SWAP3 \t\t\tt memory product = products[id...\n      SWAP2 \t\t\tt memory product = products[id...\n      POP \t\t\tt memory product = products[id...\n      POP \t\t\tt memory product = products[id...\n      JUMP \t\t\tt memory product = products[id...\n    tag 16\t\t\t\n      JUMPDEST \t\t\t\n      PUSH 0\t\t\t\n      PUSH 80\t\t\t\n      DUP3 \t\t\t\n      ADD \t\t\t\n      SWAP1 \t\t\t\n      POP \t\t\t\n      PUSH [tag] 186\t\t\t\n      PUSH 0\t\t\t\n      DUP4 \t\t\t\n      ADD \t\t\t\n      DUP8 \t\t\t\n      PUSH [tag] 108\t\t\t\n      JUMP \t\t\t\n    tag 186\t\t\t\n      JUMPDEST \t\t\t\n      PUSH [tag] 187\t\t\t\n      PUSH 20\t\t\t\n      DUP4 \t\t\t\n      ADD \t\t\t\n      DUP7 \t\t\t\n      PUSH [tag] 108\t\t\t\n      JUMP \t\t\t\n    tag 187\t\t\t\n      JUMPDEST \t\t\t\n      DUP2 \t\t\t\n      DUP2 \t\t\t\n      SUB \t\t\t\n      PUSH 40\t\t\t\n      DUP4 \t\t\t\n      ADD \t\t\t\n      MSTORE \t\t\t\n      PUSH [tag] 188\t\t\t\n      DUP2 \t\t\t\n      DUP6 \t\t\t\n      PUSH [tag] 113\t\t\t\n      JUMP \t\t\t\n    tag 188\t\t\t\n      JUMPDEST \t\t\t\n      SWAP1 \t\t\t\n      POP \t\t\t\n      PUSH [tag] 189\t\t\t\n      PUSH 60\t\t\t\n      DUP4 \t\t\t\n      ADD \t\t\t\n      DUP5 \t\t\t\n      PUSH [tag] 108\t\t\t\n      JUMP \t\t\t\n    tag 189\t\t\t\n      JUMPDEST \t\t\t\n      SWAP6 \t\t\t\n      SWAP5 \t\t\t\n      POP \t\t\t\n      POP \t\t\t\n      POP \t\t\t\n      POP \t\t\t\n      POP \t\t\t\n      JUMP \t\t\t\n    tag 19\t\t\t\n      JUMPDEST \t\t\t\n      PUSH 0\t\t\t\n      PUSH 20\t\t\t\n      DUP3 \t\t\t\n      DUP5 \t\t\t\n      SUB \t\t\t\n      SLT \t\t\t\n      ISZERO \t\t\t\n      PUSH [tag] 191\t\t\t\n      JUMPI \t\t\t\n      PUSH [tag] 192\t\t\t\n      PUSH [tag] 103\t\t\t\n      JUMP \t\t\t\n    tag 192\t\t\t\n      JUMPDEST \t\t\t\n    tag 191\t\t\t\n      JUMPDEST \t\t\t\n      PUSH 0\t\t\t\n      PUSH [tag] 193\t\t\t\n      DUP5 \t\t\t\n      DUP3 \t\t\t\n      DUP6 \t\t\t\n      ADD \t\t\t\n      PUSH [tag] 107\t\t\t\n      JUMP \t\t\t\n    tag 193\t\t\t\n      JUMPDEST \t\t\t\n      SWAP2 \t\t\t\n      POP \t\t\t\n      POP \t\t\t\n      SWAP3 \t\t\t\n      SWAP2 \t\t\t\n      POP \t\t\t\n      POP \t\t\t\n      JUMP \t\t\t\n    tag 22\t\t\t\n      JUMPDEST \t\t\t\n      PUSH 0\t\t\t\n      PUSH 60\t\t\t\n      DUP3 \t\t\t\n      ADD \t\t\t\n      SWAP1 \t\t\t\n      POP \t\t\t\n      PUSH [tag] 195\t\t\t\n      PUSH 0\t\t\t\n      DUP4 \t\t\t\n      ADD \t\t\t\n      DUP7 \t\t\t\n      PUSH [tag] 108\t\t\t\n      JUMP \t\t\t\n    tag 195\t\t\t\n      JUMPDEST \t\t\t\n      DUP2 \t\t\t\n      DUP2 \t\t\t\n      SUB \t\t\t\n      PUSH 20\t\t\t\n      DUP4 \t\t\t\n      ADD \t\t\t\n      MSTORE \t\t\t\n      PUSH [tag] 196\t\t\t\n      DUP2 \t\t\t\n      DUP6 \t\t\t\n      PUSH [tag] 113\t\t\t\n      JUMP \t\t\t\n    tag 196\t\t\t\n      JUMPDEST \t\t\t\n      SWAP1 \t\t\t\n      POP \t\t\t\n      PUSH [tag] 197\t\t\t\n      PUSH 40\t\t\t\n      DUP4 \t\t\t\n      ADD \t\t\t\n      DUP5 \t\t\t\n      PUSH [tag] 108\t\t\t\n      JUMP \t\t\t\n    tag 197\t\t\t\n      JUMPDEST \t\t\t\n      SWAP5 \t\t\t\n      SWAP4 \t\t\t\n      POP \t\t\t\n      POP \t\t\t\n      POP \t\t\t\n      POP \t\t\t\n      JUMP \t\t\t\n    tag 114\t\t\t\n      JUMPDEST \t\t\t\n      PUSH 0\t\t\t\n      DUP1 \t\t\t\n      REVERT \t\t\t\n    tag 115\t\t\t\n      JUMPDEST \t\t\t\n      PUSH 0\t\t\t\n      DUP1 \t\t\t\n      REVERT \t\t\t\n    tag 116\t\t\t\n      JUMPDEST \t\t\t\n      PUSH 4E487B7100000000000000000000000000000000000000000000000000000000\t\t\t\n      PUSH 0\t\t\t\n      MSTORE \t\t\t\n      PUSH 41\t\t\t\n      PUSH 4\t\t\t\n      MSTORE \t\t\t\n      PUSH 24\t\t\t\n      PUSH 0\t\t\t\n      REVERT \t\t\t\n    tag 117\t\t\t\n      JUMPDEST \t\t\t\n      PUSH [tag] 202\t\t\t\n      DUP3 \t\t\t\n      PUSH [tag] 112\t\t\t\n      JUMP \t\t\t\n    tag 202\t\t\t\n      JUMPDEST \t\t\t\n      DUP2 \t\t\t\n      ADD \t\t\t\n      DUP2 \t\t\t\n      DUP2 \t\t\t\n      LT \t\t\t\n      PUSH FFFFFFFFFFFFFFFF\t\t\t\n      DUP3 \t\t\t\n      GT \t\t\t\n      OR \t\t\t\n      ISZERO \t\t\t\n      PUSH [tag] 203\t\t\t\n      JUMPI \t\t\t\n      PUSH [tag] 204\t\t\t\n      PUSH [tag] 116\t\t\t\n      JUMP \t\t\t\n    tag 204\t\t\t\n      JUMPDEST \t\t\t\n    tag 203\t\t\t\n      JUMPDEST \t\t\t\n      DUP1 \t\t\t\n      PUSH 40\t\t\t\n      MSTORE \t\t\t\n      POP \t\t\t\n      POP \t\t\t\n      POP \t\t\t\n      JUMP \t\t\t\n    tag 118\t\t\t\n      JUMPDEST \t\t\t\n      PUSH 0\t\t\t\n      PUSH [tag] 206\t\t\t\n      PUSH [tag] 102\t\t\t\n      JUMP \t\t\t\n    tag 206\t\t\t\n      JUMPDEST \t\t\t\n      SWAP1 \t\t\t\n      POP \t\t\t\n      PUSH [tag] 207\t\t\t\n      DUP3 \t\t\t\n      DUP3 \t\t\t\n      PUSH [tag] 117\t\t\t\n      JUMP \t\t\t\n    tag 207\t\t\t\n      JUMPDEST \t\t\t\n      SWAP2 \t\t\t\n      SWAP1 \t\t\t\n      POP \t\t\t\n      JUMP \t\t\t\n    tag 119\t\t\t\n      JUMPDEST \t\t\t\n      PUSH 0\t\t\t\n      PUSH FFFFFFFFFFFFFFFF\t\t\t\n      DUP3 \t\t\t\n      GT \t\t\t\n      ISZERO \t\t\t\n      PUSH [tag] 209\t\t\t\n      JUMPI \t\t\t\n      PUSH [tag] 210\t\t\t\n      PUSH [tag] 116\t\t\t\n      JUMP \t\t\t\n    tag 210\t\t\t\n      JUMPDEST \t\t\t\n    tag 209\t\t\t\n      JUMPDEST \t\t\t\n      PUSH [tag] 211\t\t\t\n      DUP3 \t\t\t\n      PUSH [tag] 112\t\t\t\n      JUMP \t\t\t\n    tag 211\t\t\t\n      JUMPDEST \t\t\t\n      SWAP1 \t\t\t\n      POP \t\t\t\n      PUSH 20\t\t\t\n      DUP2 \t\t\t\n      ADD \t\t\t\n      SWAP1 \t\t\t\n      POP \t\t\t\n      SWAP2 \t\t\t\n      SWAP1 \t\t\t\n      POP \t\t\t\n      JUMP \t\t\t\n    tag 120\t\t\t\n      JUMPDEST \t\t\t\n      DUP3 \t\t\t\n      DUP2 \t\t\t\n      DUP4 \t\t\t\n      CALLDATACOPY \t\t\t\n      PUSH 0\t\t\t\n      DUP4 \t\t\t\n      DUP4 \t\t\t\n      ADD \t\t\t\n      MSTORE \t\t\t\n      POP \t\t\t\n      POP \t\t\t\n      POP \t\t\t\n      JUMP \t\t\t\n    tag 121\t\t\t\n      JUMPDEST \t\t\t\n      PUSH 0\t\t\t\n      PUSH [tag] 214\t\t\t\n      PUSH [tag] 215\t\t\t\n      DUP5 \t\t\t\n      PUSH [tag] 119\t\t\t\n      JUMP \t\t\t\n    tag 215\t\t\t\n      JUMPDEST \t\t\t\n      PUSH [tag] 118\t\t\t\n      JUMP \t\t\t\n    tag 214\t\t\t\n      JUMPDEST \t\t\t\n      SWAP1 \t\t\t\n      POP \t\t\t\n      DUP3 \t\t\t\n      DUP2 \t\t\t\n      MSTORE \t\t\t\n      PUSH 20\t\t\t\n      DUP2 \t\t\t\n      ADD \t\t\t\n      DUP5 \t\t\t\n      DUP5 \t\t\t\n      DUP5 \t\t\t\n      ADD \t\t\t\n      GT \t\t\t\n      ISZERO \t\t\t\n      PUSH [tag] 216\t\t\t\n      JUMPI \t\t\t\n      PUSH [tag] 217\t\t\t\n      PUSH [tag] 115\t\t\t\n      JUMP \t\t\t\n    tag 217\t\t\t\n      JUMPDEST \t\t\t\n    tag 216\t\t\t\n      JUMPDEST \t\t\t\n      PUSH [tag] 218\t\t\t\n      DUP5 \t\t\t\n      DUP3 \t\t\t\n      DUP6 \t\t\t\n      PUSH [tag] 120\t\t\t\n      JUMP \t\t\t\n    tag 218\t\t\t\n      JUMPDEST \t\t\t\n      POP \t\t\t\n      SWAP4 \t\t\t\n      SWAP3 \t\t\t\n      POP \t\t\t\n      POP \t\t\t\n      POP \t\t\t\n      JUMP \t\t\t\n    tag 122\t\t\t\n      JUMPDEST \t\t\t\n      PUSH 0\t\t\t\n      DUP3 \t\t\t\n      PUSH 1F\t\t\t\n      DUP4 \t\t\t\n      ADD \t\t\t\n      SLT \t\t\t\n      PUSH [tag] 220\t\t\t\n      JUMPI \t\t\t\n      PUSH [tag] 221\t\t\t\n      PUSH [tag] 114\t\t\t\n      JUMP \t\t\t\n    tag 221\t\t\t\n      JUMPDEST \t\t\t\n    tag 220\t\t\t\n      JUMPDEST \t\t\t\n      DUP2 \t\t\t\n      CALLDATALOAD \t\t\t\n      PUSH [tag] 222\t\t\t\n      DUP5 \t\t\t\n      DUP3 \t\t\t\n      PUSH 20\t\t\t\n      DUP7 \t\t\t\n      ADD \t\t\t\n      PUSH [tag] 121\t\t\t\n      JUMP \t\t\t\n    tag 222\t\t\t\n      JUMPDEST \t\t\t\n      SWAP2 \t\t\t\n      POP \t\t\t\n      POP \t\t\t\n      SWAP3 \t\t\t\n      SWAP2 \t\t\t\n      POP \t\t\t\n      POP \t\t\t\n      JUMP \t\t\t\n    tag 25\t\t\t\n      JUMPDEST \t\t\t\n      PUSH 0\t\t\t\n      DUP1 \t\t\t\n      PUSH 0\t\t\t\n      PUSH 60\t\t\t\n      DUP5 \t\t\t\n      DUP7 \t\t\t\n      SUB \t\t\t\n      SLT \t\t\t\n      ISZERO \t\t\t\n      PUSH [tag] 224\t\t\t\n      JUMPI \t\t\t\n      PUSH [tag] 225\t\t\t\n      PUSH [tag] 103\t\t\t\n      JUMP \t\t\t\n    tag 225\t\t\t\n      JUMPDEST \t\t\t\n    tag 224\t\t\t\n      JUMPDEST \t\t\t\n      PUSH 0\t\t\t\n      PUSH [tag] 226\t\t\t\n      DUP7 \t\t\t\n      DUP3 \t\t\t\n      DUP8 \t\t\t\n      ADD \t\t\t\n      PUSH [tag] 107\t\t\t\n      JUMP \t\t\t\n    tag 226\t\t\t\n      JUMPDEST \t\t\t\n      SWAP4 \t\t\t\n      POP \t\t\t\n      POP \t\t\t\n      PUSH 20\t\t\t\n      PUSH [tag] 227\t\t\t\n      DUP7 \t\t\t\n      DUP3 \t\t\t\n      DUP8 \t\t\t\n      ADD \t\t\t\n      PUSH [tag] 107\t\t\t\n      JUMP \t\t\t\n    tag 227\t\t\t\n      JUMPDEST \t\t\t\n      SWAP3 \t\t\t\n      POP \t\t\t\n      POP \t\t\t\n      PUSH 40\t\t\t\n      DUP5 \t\t\t\n      ADD \t\t\t\n      CALLDATALOAD \t\t\t\n      PUSH FFFFFFFFFFFFFFFF\t\t\t\n      DUP2 \t\t\t\n      GT \t\t\t\n      ISZERO \t\t\t\n      PUSH [tag] 228\t\t\t\n      JUMPI \t\t\t\n      PUSH [tag] 229\t\t\t\n      PUSH [tag] 104\t\t\t\n      JUMP \t\t\t\n    tag 229\t\t\t\n      JUMPDEST \t\t\t\n    tag 228\t\t\t\n      JUMPDEST \t\t\t\n      PUSH [tag] 230\t\t\t\n      DUP7 \t\t\t\n      DUP3 \t\t\t\n      DUP8 \t\t\t\n      ADD \t\t\t\n      PUSH [tag] 122\t\t\t\n      JUMP \t\t\t\n    tag 230\t\t\t\n      JUMPDEST \t\t\t\n      SWAP2 \t\t\t\n      POP \t\t\t\n      POP \t\t\t\n      SWAP3 \t\t\t\n      POP \t\t\t\n      SWAP3 \t\t\t\n      POP \t\t\t\n      SWAP3 \t\t\t\n      JUMP \t\t\t\n    tag 123\t\t\t\n      JUMPDEST \t\t\t\n      PUSH 0\t\t\t\n      DUP2 \t\t\t\n      MLOAD \t\t\t\n      SWAP1 \t\t\t\n      POP \t\t\t\n      SWAP2 \t\t\t\n      SWAP1 \t\t\t\n      POP \t\t\t\n      JUMP \t\t\t\n    tag 124\t\t\t\n      JUMPDEST \t\t\t\n      PUSH 0\t\t\t\n      DUP3 \t\t\t\n      DUP3 \t\t\t\n      MSTORE \t\t\t\n      PUSH 20\t\t\t\n      DUP3 \t\t\t\n      ADD \t\t\t\n      SWAP1 \t\t\t\n      POP \t\t\t\n      SWAP3 \t\t\t\n      SWAP2 \t\t\t\n      POP \t\t\t\n      POP \t\t\t\n      JUMP \t\t\t\n    tag 125\t\t\t\n      JUMPDEST \t\t\t\n      PUSH 0\t\t\t\n      DUP2 \t\t\t\n      SWAP1 \t\t\t\n      POP \t\t\t\n      PUSH 20\t\t\t\n      DUP3 \t\t\t\n      ADD \t\t\t\n      SWAP1 \t\t\t\n      POP \t\t\t\n      SWAP2 \t\t\t\n      SWAP1 \t\t\t\n      POP \t\t\t\n      JUMP \t\t\t\n    tag 126\t\t\t\n      JUMPDEST \t\t\t\n      PUSH [tag] 235\t\t\t\n      DUP2 \t\t\t\n      PUSH [tag] 105\t\t\t\n      JUMP \t\t\t\n    tag 235\t\t\t\n      JUMPDEST \t\t\t\n      DUP3 \t\t\t\n      MSTORE \t\t\t\n      POP \t\t\t\n      POP \t\t\t\n      JUMP \t\t\t\n    tag 127\t\t\t\n      JUMPDEST \t\t\t\n      PUSH 0\t\t\t\n      DUP3 \t\t\t\n      DUP3 \t\t\t\n      MSTORE \t\t\t\n      PUSH 20\t\t\t\n      DUP3 \t\t\t\n      ADD \t\t\t\n      SWAP1 \t\t\t\n      POP \t\t\t\n      SWAP3 \t\t\t\n      SWAP2 \t\t\t\n      POP \t\t\t\n      POP \t\t\t\n      JUMP \t\t\t\n    tag 128\t\t\t\n      JUMPDEST \t\t\t\n      PUSH 0\t\t\t\n      PUSH [tag] 238\t\t\t\n      DUP3 \t\t\t\n      PUSH [tag] 109\t\t\t\n      JUMP \t\t\t\n    tag 238\t\t\t\n      JUMPDEST \t\t\t\n      PUSH [tag] 239\t\t\t\n      DUP2 \t\t\t\n      DUP6 \t\t\t\n      PUSH [tag] 127\t\t\t\n      JUMP \t\t\t\n    tag 239\t\t\t\n      JUMPDEST \t\t\t\n      SWAP4 \t\t\t\n      POP \t\t\t\n      PUSH [tag] 240\t\t\t\n      DUP2 \t\t\t\n      DUP6 \t\t\t\n      PUSH 20\t\t\t\n      DUP7 \t\t\t\n      ADD \t\t\t\n      PUSH [tag] 111\t\t\t\n      JUMP \t\t\t\n    tag 240\t\t\t\n      JUMPDEST \t\t\t\n      PUSH [tag] 241\t\t\t\n      DUP2 \t\t\t\n      PUSH [tag] 112\t\t\t\n      JUMP \t\t\t\n    tag 241\t\t\t\n      JUMPDEST \t\t\t\n      DUP5 \t\t\t\n      ADD \t\t\t\n      SWAP2 \t\t\t\n      POP \t\t\t\n      POP \t\t\t\n      SWAP3 \t\t\t\n      SWAP2 \t\t\t\n      POP \t\t\t\n      POP \t\t\t\n      JUMP \t\t\t\n    tag 129\t\t\t\n      JUMPDEST \t\t\t\n      PUSH 0\t\t\t\n      PUSH 80\t\t\t\n      DUP4 \t\t\t\n      ADD \t\t\t\n      PUSH 0\t\t\t\n      DUP4 \t\t\t\n      ADD \t\t\t\n      MLOAD \t\t\t\n      PUSH [tag] 243\t\t\t\n      PUSH 0\t\t\t\n      DUP7 \t\t\t\n      ADD \t\t\t\n      DUP3 \t\t\t\n      PUSH [tag] 126\t\t\t\n      JUMP \t\t\t\n    tag 243\t\t\t\n      JUMPDEST \t\t\t\n      POP \t\t\t\n      PUSH 20\t\t\t\n      DUP4 \t\t\t\n      ADD \t\t\t\n      MLOAD \t\t\t\n      PUSH [tag] 244\t\t\t\n      PUSH 20\t\t\t\n      DUP7 \t\t\t\n      ADD \t\t\t\n      DUP3 \t\t\t\n      PUSH [tag] 126\t\t\t\n      JUMP \t\t\t\n    tag 244\t\t\t\n      JUMPDEST \t\t\t\n      POP \t\t\t\n      PUSH 40\t\t\t\n      DUP4 \t\t\t\n      ADD \t\t\t\n      MLOAD \t\t\t\n      DUP5 \t\t\t\n      DUP3 \t\t\t\n      SUB \t\t\t\n      PUSH 40\t\t\t\n      DUP7 \t\t\t\n      ADD \t\t\t\n      MSTORE \t\t\t\n      PUSH [tag] 245\t\t\t\n      DUP3 \t\t\t\n      DUP3 \t\t\t\n      PUSH [tag] 128\t\t\t\n      JUMP \t\t\t\n    tag 245\t\t\t\n      JUMPDEST \t\t\t\n      SWAP2 \t\t\t\n      POP \t\t\t\n      POP \t\t\t\n      PUSH 60\t\t\t\n      DUP4 \t\t\t\n      ADD \t\t\t\n      MLOAD \t\t\t\n      PUSH [tag] 246\t\t\t\n      PUSH 60\t\t\t\n      DUP7 \t\t\t\n      ADD \t\t\t\n      DUP3 \t\t\t\n      PUSH [tag] 126\t\t\t\n      JUMP \t\t\t\n    tag 246\t\t\t\n      JUMPDEST \t\t\t\n      POP \t\t\t\n      DUP1 \t\t\t\n      SWAP2 \t\t\t\n      POP \t\t\t\n      POP \t\t\t\n      SWAP3 \t\t\t\n      SWAP2 \t\t\t\n      POP \t\t\t\n      POP \t\t\t\n      JUMP \t\t\t\n    tag 130\t\t\t\n      JUMPDEST \t\t\t\n      PUSH 0\t\t\t\n      PUSH [tag] 248\t\t\t\n      DUP4 \t\t\t\n      DUP4 \t\t\t\n      PUSH [tag] 129\t\t\t\n      JUMP \t\t\t\n    tag 248\t\t\t\n      JUMPDEST \t\t\t\n      SWAP1 \t\t\t\n      POP \t\t\t\n      SWAP3 \t\t\t\n      SWAP2 \t\t\t\n      POP \t\t\t\n      POP \t\t\t\n      JUMP \t\t\t\n    tag 131\t\t\t\n      JUMPDEST \t\t\t\n      PUSH 0\t\t\t\n      PUSH 20\t\t\t\n      DUP3 \t\t\t\n      ADD \t\t\t\n      SWAP1 \t\t\t\n      POP \t\t\t\n      SWAP2 \t\t\t\n      SWAP1 \t\t\t\n      POP \t\t\t\n      JUMP \t\t\t\n    tag 132\t\t\t\n      JUMPDEST \t\t\t\n      PUSH 0\t\t\t\n      PUSH [tag] 251\t\t\t\n      DUP3 \t\t\t\n      PUSH [tag] 123\t\t\t\n      JUMP \t\t\t\n    tag 251\t\t\t\n      JUMPDEST \t\t\t\n      PUSH [tag] 252\t\t\t\n      DUP2 \t\t\t\n      DUP6 \t\t\t\n      PUSH [tag] 124\t\t\t\n      JUMP \t\t\t\n    tag 252\t\t\t\n      JUMPDEST \t\t\t\n      SWAP4 \t\t\t\n      POP \t\t\t\n      DUP4 \t\t\t\n      PUSH 20\t\t\t\n      DUP3 \t\t\t\n      MUL \t\t\t\n      DUP6 \t\t\t\n      ADD \t\t\t\n      PUSH [tag] 253\t\t\t\n      DUP6 \t\t\t\n      PUSH [tag] 125\t\t\t\n      JUMP \t\t\t\n    tag 253\t\t\t\n      JUMPDEST \t\t\t\n      DUP1 \t\t\t\n      PUSH 0\t\t\t\n    tag 254\t\t\t\n      JUMPDEST \t\t\t\n      DUP6 \t\t\t\n      DUP2 \t\t\t\n      LT \t\t\t\n      ISZERO \t\t\t\n      PUSH [tag] 256\t\t\t\n      JUMPI \t\t\t\n      DUP5 \t\t\t\n      DUP5 \t\t\t\n      SUB \t\t\t\n      DUP10 \t\t\t\n      MSTORE \t\t\t\n      DUP2 \t\t\t\n      MLOAD \t\t\t\n      PUSH [tag] 257\t\t\t\n      DUP6 \t\t\t\n      DUP3 \t\t\t\n      PUSH [tag] 130\t\t\t\n      JUMP \t\t\t\n    tag 257\t\t\t\n      JUMPDEST \t\t\t\n      SWAP5 \t\t\t\n      POP \t\t\t\n      PUSH [tag] 258\t\t\t\n      DUP4 \t\t\t\n      PUSH [tag] 131\t\t\t\n      JUMP \t\t\t\n    tag 258\t\t\t\n      JUMPDEST \t\t\t\n      SWAP3 \t\t\t\n      POP \t\t\t\n      PUSH 20\t\t\t\n      DUP11 \t\t\t\n      ADD \t\t\t\n      SWAP10 \t\t\t\n      POP \t\t\t\n      POP \t\t\t\n      PUSH 1\t\t\t\n      DUP2 \t\t\t\n      ADD \t\t\t\n      SWAP1 \t\t\t\n      POP \t\t\t\n      PUSH [tag] 254\t\t\t\n      JUMP \t\t\t\n    tag 256\t\t\t\n      JUMPDEST \t\t\t\n      POP \t\t\t\n      DUP3 \t\t\t\n      SWAP8 \t\t\t\n      POP \t\t\t\n      DUP8 \t\t\t\n      SWAP6 \t\t\t\n      POP \t\t\t\n      POP \t\t\t\n      POP \t\t\t\n      POP \t\t\t\n      POP \t\t\t\n      POP \t\t\t\n      SWAP3 \t\t\t\n      SWAP2 \t\t\t\n      POP \t\t\t\n      POP \t\t\t\n      JUMP \t\t\t\n    tag 31\t\t\t\n      JUMPDEST \t\t\t\n      PUSH 0\t\t\t\n      PUSH 20\t\t\t\n      DUP3 \t\t\t\n      ADD \t\t\t\n      SWAP1 \t\t\t\n      POP \t\t\t\n      DUP2 \t\t\t\n      DUP2 \t\t\t\n      SUB \t\t\t\n      PUSH 0\t\t\t\n      DUP4 \t\t\t\n      ADD \t\t\t\n      MSTORE \t\t\t\n      PUSH [tag] 260\t\t\t\n      DUP2 \t\t\t\n      DUP5 \t\t\t\n      PUSH [tag] 132\t\t\t\n      JUMP \t\t\t\n    tag 260\t\t\t\n      JUMPDEST \t\t\t\n      SWAP1 \t\t\t\n      POP \t\t\t\n      SWAP3 \t\t\t\n      SWAP2 \t\t\t\n      POP \t\t\t\n      POP \t\t\t\n      JUMP \t\t\t\n    tag 34\t\t\t\n      JUMPDEST \t\t\t\n      PUSH 0\t\t\t\n      DUP1 \t\t\t\n      PUSH 40\t\t\t\n      DUP4 \t\t\t\n      DUP6 \t\t\t\n      SUB \t\t\t\n      SLT \t\t\t\n      ISZERO \t\t\t\n      PUSH [tag] 262\t\t\t\n      JUMPI \t\t\t\n      PUSH [tag] 263\t\t\t\n      PUSH [tag] 103\t\t\t\n      JUMP \t\t\t\n    tag 263\t\t\t\n      JUMPDEST \t\t\t\n    tag 262\t\t\t\n      JUMPDEST \t\t\t\n      PUSH 0\t\t\t\n      DUP4 \t\t\t\n      ADD \t\t\t\n      CALLDATALOAD \t\t\t\n      PUSH FFFFFFFFFFFFFFFF\t\t\t\n      DUP2 \t\t\t\n      GT \t\t\t\n      ISZERO \t\t\t\n      PUSH [tag] 264\t\t\t\n      JUMPI \t\t\t\n      PUSH [tag] 265\t\t\t\n      PUSH [tag] 104\t\t\t\n      JUMP \t\t\t\n    tag 265\t\t\t\n      JUMPDEST \t\t\t\n    tag 264\t\t\t\n      JUMPDEST \t\t\t\n      PUSH [tag] 266\t\t\t\n      DUP6 \t\t\t\n      DUP3 \t\t\t\n      DUP7 \t\t\t\n      ADD \t\t\t\n      PUSH [tag] 122\t\t\t\n      JUMP \t\t\t\n    tag 266\t\t\t\n      JUMPDEST \t\t\t\n      SWAP3 \t\t\t\n      POP \t\t\t\n      POP \t\t\t\n      PUSH 20\t\t\t\n      PUSH [tag] 267\t\t\t\n      DUP6 \t\t\t\n      DUP3 \t\t\t\n      DUP7 \t\t\t\n      ADD \t\t\t\n      PUSH [tag] 107\t\t\t\n      JUMP \t\t\t\n    tag 267\t\t\t\n      JUMPDEST \t\t\t\n      SWAP2 \t\t\t\n      POP \t\t\t\n      POP \t\t\t\n      SWAP3 \t\t\t\n      POP \t\t\t\n      SWAP3 \t\t\t\n      SWAP1 \t\t\t\n      POP \t\t\t\n      JUMP \t\t\t\n    tag 40\t\t\t\n      JUMPDEST \t\t\t\n      PUSH 0\t\t\t\n      PUSH 40\t\t\t\n      DUP3 \t\t\t\n      ADD \t\t\t\n      SWAP1 \t\t\t\n      POP \t\t\t\n      DUP2 \t\t\t\n      DUP2 \t\t\t\n      SUB \t\t\t\n      PUSH 0\t\t\t\n      DUP4 \t\t\t\n      ADD \t\t\t\n      MSTORE \t\t\t\n      PUSH [tag] 269\t\t\t\n      DUP2 \t\t\t\n      DUP6 \t\t\t\n      PUSH [tag] 113\t\t\t\n      JUMP \t\t\t\n    tag 269\t\t\t\n      JUMPDEST \t\t\t\n      SWAP1 \t\t\t\n      POP \t\t\t\n      PUSH [tag] 270\t\t\t\n      PUSH 20\t\t\t\n      DUP4 \t\t\t\n      ADD \t\t\t\n      DUP5 \t\t\t\n      PUSH [tag] 108\t\t\t\n      JUMP \t\t\t\n    tag 270\t\t\t\n      JUMPDEST \t\t\t\n      SWAP4 \t\t\t\n      SWAP3 \t\t\t\n      POP \t\t\t\n      POP \t\t\t\n      POP \t\t\t\n      JUMP \t\t\t\n    tag 44\t\t\t\n      JUMPDEST \t\t\t\n      PUSH 0\t\t\t\n      PUSH 20\t\t\t\n      DUP3 \t\t\t\n      ADD \t\t\t\n      SWAP1 \t\t\t\n      POP \t\t\t\n      PUSH [tag] 272\t\t\t\n      PUSH 0\t\t\t\n      DUP4 \t\t\t\n      ADD \t\t\t\n      DUP5 \t\t\t\n      PUSH [tag] 108\t\t\t\n      JUMP \t\t\t\n    tag 272\t\t\t\n      JUMPDEST \t\t\t\n      SWAP3 \t\t\t\n      SWAP2 \t\t\t\n      POP \t\t\t\n      POP \t\t\t\n      JUMP \t\t\t\n    tag 133\t\t\t\n      JUMPDEST \t\t\t\n      PUSH 4E487B7100000000000000000000000000000000000000000000000000000000\t\t\t\n      PUSH 0\t\t\t\n      MSTORE \t\t\t\n      PUSH 22\t\t\t\n      PUSH 4\t\t\t\n      MSTORE \t\t\t\n      PUSH 24\t\t\t\n      PUSH 0\t\t\t\n      REVERT \t\t\t\n    tag 48\t\t\t\n      JUMPDEST \t\t\t\n      PUSH 0\t\t\t\n      PUSH 2\t\t\t\n      DUP3 \t\t\t\n      DIV \t\t\t\n      SWAP1 \t\t\t\n      POP \t\t\t\n      PUSH 1\t\t\t\n      DUP3 \t\t\t\n      AND \t\t\t\n      DUP1 \t\t\t\n      PUSH [tag] 275\t\t\t\n      JUMPI \t\t\t\n      PUSH 7F\t\t\t\n      DUP3 \t\t\t\n      AND \t\t\t\n      SWAP2 \t\t\t\n      POP \t\t\t\n    tag 275\t\t\t\n      JUMPDEST \t\t\t\n      PUSH 20\t\t\t\n      DUP3 \t\t\t\n      LT \t\t\t\n      DUP2 \t\t\t\n      SUB \t\t\t\n      PUSH [tag] 276\t\t\t\n      JUMPI \t\t\t\n      PUSH [tag] 277\t\t\t\n      PUSH [tag] 133\t\t\t\n      JUMP \t\t\t\n    tag 277\t\t\t\n      JUMPDEST \t\t\t\n    tag 276\t\t\t\n      JUMPDEST \t\t\t\n      POP \t\t\t\n      SWAP2 \t\t\t\n      SWAP1 \t\t\t\n      POP \t\t\t\n      JUMP \t\t\t\n    tag 134\t\t\t\n      JUMPDEST \t\t\t\n      PUSH 0\t\t\t\n      DUP2 \t\t\t\n      SWAP1 \t\t\t\n      POP \t\t\t\n      SWAP3 \t\t\t\n      SWAP2 \t\t\t\n      POP \t\t\t\n      POP \t\t\t\n      JUMP \t\t\t\n    tag 135\t\t\t\n      JUMPDEST \t\t\t\n      PUSH 696D706F72740000000000000000000000000000000000000000000000000000\t\t\t\n      PUSH 0\t\t\t\n      DUP3 \t\t\t\n      ADD \t\t\t\n      MSTORE \t\t\t\n      POP \t\t\t\n      JUMP \t\t\t\n    tag 136\t\t\t\n      JUMPDEST \t\t\t\n      PUSH 0\t\t\t\n      PUSH [tag] 281\t\t\t\n      PUSH 6\t\t\t\n      DUP4 \t\t\t\n      PUSH [tag] 134\t\t\t\n      JUMP \t\t\t\n    tag 281\t\t\t\n      JUMPDEST \t\t\t\n      SWAP2 \t\t\t\n      POP \t\t\t\n      PUSH [tag] 282\t\t\t\n      DUP3 \t\t\t\n      PUSH [tag] 135\t\t\t\n      JUMP \t\t\t\n    tag 282\t\t\t\n      JUMPDEST \t\t\t\n      PUSH 6\t\t\t\n      DUP3 \t\t\t\n      ADD \t\t\t\n      SWAP1 \t\t\t\n      POP \t\t\t\n      SWAP2 \t\t\t\n      SWAP1 \t\t\t\n      POP \t\t\t\n      JUMP \t\t\t\n    tag 60\t\t\t\n      JUMPDEST \t\t\t\n      PUSH 0\t\t\t\n      PUSH [tag] 284\t\t\t\n      DUP3 \t\t\t\n      PUSH [tag] 136\t\t\t\n      JUMP \t\t\t\n    tag 284\t\t\t\n      JUMPDEST \t\t\t\n      SWAP2 \t\t\t\n      POP \t\t\t\n      DUP2 \t\t\t\n      SWAP1 \t\t\t\n      POP \t\t\t\n      SWAP2 \t\t\t\n      SWAP1 \t\t\t\n      POP \t\t\t\n      JUMP \t\t\t\n    tag 137\t\t\t\n      JUMPDEST \t\t\t\n      PUSH 0\t\t\t\n      PUSH [tag] 286\t\t\t\n      DUP3 \t\t\t\n      PUSH [tag] 109\t\t\t\n      JUMP \t\t\t\n    tag 286\t\t\t\n      JUMPDEST \t\t\t\n      PUSH [tag] 287\t\t\t\n      DUP2 \t\t\t\n      DUP6 \t\t\t\n      PUSH [tag] 134\t\t\t\n      JUMP \t\t\t\n    tag 287\t\t\t\n      JUMPDEST \t\t\t\n      SWAP4 \t\t\t\n      POP \t\t\t\n      PUSH [tag] 288\t\t\t\n      DUP2 \t\t\t\n      DUP6 \t\t\t\n      PUSH 20\t\t\t\n      DUP7 \t\t\t\n      ADD \t\t\t\n      PUSH [tag] 111\t\t\t\n      JUMP \t\t\t\n    tag 288\t\t\t\n      JUMPDEST \t\t\t\n      DUP1 \t\t\t\n      DUP5 \t\t\t\n      ADD \t\t\t\n      SWAP2 \t\t\t\n      POP \t\t\t\n      POP \t\t\t\n      SWAP3 \t\t\t\n      SWAP2 \t\t\t\n      POP \t\t\t\n      POP \t\t\t\n      JUMP \t\t\t\n    tag 62\t\t\t\n      JUMPDEST \t\t\t\n      PUSH 0\t\t\t\n      PUSH [tag] 290\t\t\t\n      DUP3 \t\t\t\n      DUP5 \t\t\t\n      PUSH [tag] 137\t\t\t\n      JUMP \t\t\t\n    tag 290\t\t\t\n      JUMPDEST \t\t\t\n      SWAP2 \t\t\t\n      POP \t\t\t\n      DUP2 \t\t\t\n      SWAP1 \t\t\t\n      POP \t\t\t\n      SWAP3 \t\t\t\n      SWAP2 \t\t\t\n      POP \t\t\t\n      POP \t\t\t\n      JUMP \t\t\t\n    tag 138\t\t\t\n      JUMPDEST \t\t\t\n      PUSH 4E487B7100000000000000000000000000000000000000000000000000000000\t\t\t\n      PUSH 0\t\t\t\n      MSTORE \t\t\t\n      PUSH 11\t\t\t\n      PUSH 4\t\t\t\n      MSTORE \t\t\t\n      PUSH 24\t\t\t\n      PUSH 0\t\t\t\n      REVERT \t\t\t\n    tag 65\t\t\t\n      JUMPDEST \t\t\t\n      PUSH 0\t\t\t\n      PUSH [tag] 293\t\t\t\n      DUP3 \t\t\t\n      PUSH [tag] 105\t\t\t\n      JUMP \t\t\t\n    tag 293\t\t\t\n      JUMPDEST \t\t\t\n      SWAP2 \t\t\t\n      POP \t\t\t\n      PUSH [tag] 294\t\t\t\n      DUP4 \t\t\t\n      PUSH [tag] 105\t\t\t\n      JUMP \t\t\t\n    tag 294\t\t\t\n      JUMPDEST \t\t\t\n      SWAP3 \t\t\t\n      POP \t\t\t\n      DUP3 \t\t\t\n      DUP3 \t\t\t\n      ADD \t\t\t\n      SWAP1 \t\t\t\n      POP \t\t\t\n      DUP1 \t\t\t\n      DUP3 \t\t\t\n      GT \t\t\t\n      ISZERO \t\t\t\n      PUSH [tag] 295\t\t\t\n      JUMPI \t\t\t\n      PUSH [tag] 296\t\t\t\n      PUSH [tag] 138\t\t\t\n      JUMP \t\t\t\n    tag 296\t\t\t\n      JUMPDEST \t\t\t\n    tag 295\t\t\t\n      JUMPDEST \t\t\t\n      SWAP3 \t\t\t\n      SWAP2 \t\t\t\n      POP \t\t\t\n      POP \t\t\t\n      JUMP \t\t\t\n    tag 139\t\t\t\n      JUMPDEST \t\t\t\n      PUSH 6578706F72740000000000000000000000000000000000000000000000000000\t\t\t\n      PUSH 0\t\t\t\n      DUP3 \t\t\t\n      ADD \t\t\t\n      MSTORE \t\t\t\n      POP \t\t\t\n      JUMP \t\t\t\n    tag 140\t\t\t\n      JUMPDEST \t\t\t\n      PUSH 0\t\t\t\n      PUSH [tag] 299\t\t\t\n      PUSH 6\t\t\t\n      DUP4 \t\t\t\n      PUSH [tag] 134\t\t\t\n      JUMP \t\t\t\n    tag 299\t\t\t\n      JUMPDEST \t\t\t\n      SWAP2 \t\t\t\n      POP \t\t\t\n      PUSH [tag] 300\t\t\t\n      DUP3 \t\t\t\n      PUSH [tag] 139\t\t\t\n      JUMP \t\t\t\n    tag 300\t\t\t\n      JUMPDEST \t\t\t\n      PUSH 6\t\t\t\n      DUP3 \t\t\t\n      ADD \t\t\t\n      SWAP1 \t\t\t\n      POP \t\t\t\n      SWAP2 \t\t\t\n      SWAP1 \t\t\t\n      POP \t\t\t\n      JUMP \t\t\t\n    tag 68\t\t\t\n      JUMPDEST \t\t\t\n      PUSH 0\t\t\t\n      PUSH [tag] 302\t\t\t\n      DUP3 \t\t\t\n      PUSH [tag] 140\t\t\t\n      JUMP \t\t\t\n    tag 302\t\t\t\n      JUMPDEST \t\t\t\n      SWAP2 \t\t\t\n      POP \t\t\t\n      DUP2 \t\t\t\n      SWAP1 \t\t\t\n      POP \t\t\t\n      SWAP2 \t\t\t\n      SWAP1 \t\t\t\n      POP \t\t\t\n      JUMP \t\t\t\n    tag 141\t\t\t\n      JUMPDEST \t\t\t\n      PUSH 496E73756666696369656E742073746F636B0000000000000000000000000000\t\t\t\n      PUSH 0\t\t\t\n      DUP3 \t\t\t\n      ADD \t\t\t\n      MSTORE \t\t\t\n      POP \t\t\t\n      JUMP \t\t\t\n    tag 142\t\t\t\n      JUMPDEST \t\t\t\n      PUSH 0\t\t\t\n      PUSH [tag] 305\t\t\t\n      PUSH 12\t\t\t\n      DUP4 \t\t\t\n      PUSH [tag] 110\t\t\t\n      JUMP \t\t\t\n    tag 305\t\t\t\n      JUMPDEST \t\t\t\n      SWAP2 \t\t\t\n      POP \t\t\t\n      PUSH [tag] 306\t\t\t\n      DUP3 \t\t\t\n      PUSH [tag] 141\t\t\t\n      JUMP \t\t\t\n    tag 306\t\t\t\n      JUMPDEST \t\t\t\n      PUSH 20\t\t\t\n      DUP3 \t\t\t\n      ADD \t\t\t\n      SWAP1 \t\t\t\n      POP \t\t\t\n      SWAP2 \t\t\t\n      SWAP1 \t\t\t\n      POP \t\t\t\n      JUMP \t\t\t\n    tag 73\t\t\t\n      JUMPDEST \t\t\t\n      PUSH 0\t\t\t\n      PUSH 20\t\t\t\n      DUP3 \t\t\t\n      ADD \t\t\t\n      SWAP1 \t\t\t\n      POP \t\t\t\n      DUP2 \t\t\t\n      DUP2 \t\t\t\n      SUB \t\t\t\n      PUSH 0\t\t\t\n      DUP4 \t\t\t\n      ADD \t\t\t\n      MSTORE \t\t\t\n      PUSH [tag] 308\t\t\t\n      DUP2 \t\t\t\n      PUSH [tag] 142\t\t\t\n      JUMP \t\t\t\n    tag 308\t\t\t\n      JUMPDEST \t\t\t\n      SWAP1 \t\t\t\n      POP \t\t\t\n      SWAP2 \t\t\t\n      SWAP1 \t\t\t\n      POP \t\t\t\n      JUMP \t\t\t\n    tag 75\t\t\t\n      JUMPDEST \t\t\t\n      PUSH 0\t\t\t\n      PUSH [tag] 310\t\t\t\n      DUP3 \t\t\t\n      PUSH [tag] 105\t\t\t\n      JUMP \t\t\t\n    tag 310\t\t\t\n      JUMPDEST \t\t\t\n      SWAP2 \t\t\t\n      POP \t\t\t\n      PUSH [tag] 311\t\t\t\n      DUP4 \t\t\t\n      PUSH [tag] 105\t\t\t\n      JUMP \t\t\t\n    tag 311\t\t\t\n      JUMPDEST \t\t\t\n      SWAP3 \t\t\t\n      POP \t\t\t\n      DUP3 \t\t\t\n      DUP3 \t\t\t\n      SUB \t\t\t\n      SWAP1 \t\t\t\n      POP \t\t\t\n      DUP2 \t\t\t\n      DUP2 \t\t\t\n      GT \t\t\t\n      ISZERO \t\t\t\n      PUSH [tag] 312\t\t\t\n      JUMPI \t\t\t\n      PUSH [tag] 313\t\t\t\n      PUSH [tag] 138\t\t\t\n      JUMP \t\t\t\n    tag 313\t\t\t\n      JUMPDEST \t\t\t\n    tag 312\t\t\t\n      JUMPDEST \t\t\t\n      SWAP3 \t\t\t\n      SWAP2 \t\t\t\n      POP \t\t\t\n      POP \t\t\t\n      JUMP \t\t\t\n    tag 143\t\t\t\n      JUMPDEST \t\t\t\n      PUSH 0\t\t\t\n      DUP2 \t\t\t\n      SWAP1 \t\t\t\n      POP \t\t\t\n      DUP2 \t\t\t\n      PUSH 0\t\t\t\n      MSTORE \t\t\t\n      PUSH 20\t\t\t\n      PUSH 0\t\t\t\n      KECCAK256 \t\t\t\n      SWAP1 \t\t\t\n      POP \t\t\t\n      SWAP2 \t\t\t\n      SWAP1 \t\t\t\n      POP \t\t\t\n      JUMP \t\t\t\n    tag 144\t\t\t\n      JUMPDEST \t\t\t\n      PUSH 0\t\t\t\n      PUSH 20\t\t\t\n      PUSH 1F\t\t\t\n      DUP4 \t\t\t\n      ADD \t\t\t\n      DIV \t\t\t\n      SWAP1 \t\t\t\n      POP \t\t\t\n      SWAP2 \t\t\t\n      SWAP1 \t\t\t\n      POP \t\t\t\n      JUMP \t\t\t\n    tag 145\t\t\t\n      JUMPDEST \t\t\t\n      PUSH 0\t\t\t\n      DUP3 \t\t\t\n      DUP3 \t\t\t\n      SHL \t\t\t\n      SWAP1 \t\t\t\n      POP \t\t\t\n      SWAP3 \t\t\t\n      SWAP2 \t\t\t\n      POP \t\t\t\n      POP \t\t\t\n      JUMP \t\t\t\n    tag 146\t\t\t\n      JUMPDEST \t\t\t\n      PUSH 0\t\t\t\n      PUSH 8\t\t\t\n      DUP4 \t\t\t\n      MUL \t\t\t\n      PUSH [tag] 318\t\t\t\n      PUSH FFFFFFFFFFFFFFFFFFFFFFFFFFFFFFFFFFFFFFFFFFFFFFFFFFFFFFFFFFFFFFFF\t\t\t\n      DUP3 \t\t\t\n      PUSH [tag] 145\t\t\t\n      JUMP \t\t\t\n    tag 318\t\t\t\n      JUMPDEST \t\t\t\n      PUSH [tag] 319\t\t\t\n      DUP7 \t\t\t\n      DUP4 \t\t\t\n      PUSH [tag] 145\t\t\t\n      JUMP \t\t\t\n    tag 319\t\t\t\n      JUMPDEST \t\t\t\n      SWAP6 \t\t\t\n      POP \t\t\t\n      DUP1 \t\t\t\n      NOT \t\t\t\n      DUP5 \t\t\t\n      AND \t\t\t\n      SWAP4 \t\t\t\n      POP \t\t\t\n      DUP1 \t\t\t\n      DUP7 \t\t\t\n      AND \t\t\t\n      DUP5 \t\t\t\n      OR \t\t\t\n      SWAP3 \t\t\t\n      POP \t\t\t\n      POP \t\t\t\n      POP \t\t\t\n      SWAP4 \t\t\t\n      SWAP3 \t\t\t\n      POP \t\t\t\n      POP \t\t\t\n      POP \t\t\t\n      JUMP \t\t\t\n    tag 147\t\t\t\n      JUMPDEST \t\t\t\n      PUSH 0\t\t\t\n      DUP2 \t\t\t\n      SWAP1 \t\t\t\n      POP \t\t\t\n      SWAP2 \t\t\t\n      SWAP1 \t\t\t\n      POP \t\t\t\n      JUMP \t\t\t\n    tag 148\t\t\t\n      JUMPDEST \t\t\t\n      PUSH 0\t\t\t\n      PUSH [tag] 322\t\t\t\n      PUSH [tag] 323\t\t\t\n      PUSH [tag] 324\t\t\t\n      DUP5 \t\t\t\n      PUSH [tag] 105\t\t\t\n      JUMP \t\t\t\n    tag 324\t\t\t\n      JUMPDEST \t\t\t\n      PUSH [tag] 147\t\t\t\n      JUMP \t\t\t\n    tag 323\t\t\t\n      JUMPDEST \t\t\t\n      PUSH [tag] 105\t\t\t\n      JUMP \t\t\t\n    tag 322\t\t\t\n      JUMPDEST \t\t\t\n      SWAP1 \t\t\t\n      POP \t\t\t\n      SWAP2 \t\t\t\n      SWAP1 \t\t\t\n      POP \t\t\t\n      JUMP \t\t\t\n    tag 149\t\t\t\n      JUMPDEST \t\t\t\n      PUSH 0\t\t\t\n      DUP2 \t\t\t\n      SWAP1 \t\t\t\n      POP \t\t\t\n      SWAP2 \t\t\t\n      SWAP1 \t\t\t\n      POP \t\t\t\n      JUMP \t\t\t\n    tag 150\t\t\t\n      JUMPDEST \t\t\t\n      PUSH [tag] 327\t\t\t\n      DUP4 \t\t\t\n      PUSH [tag] 148\t\t\t\n      JUMP \t\t\t\n    tag 327\t\t\t\n      JUMPDEST \t\t\t\n      PUSH [tag] 328\t\t\t\n      PUSH [tag] 329\t\t\t\n      DUP3 \t\t\t\n      PUSH [tag] 149\t\t\t\n      JUMP \t\t\t\n    tag 329\t\t\t\n      JUMPDEST \t\t\t\n      DUP5 \t\t\t\n      DUP5 \t\t\t\n      SLOAD \t\t\t\n      PUSH [tag] 146\t\t\t\n      JUMP \t\t\t\n    tag 328\t\t\t\n      JUMPDEST \t\t\t\n      DUP3 \t\t\t\n      SSTORE \t\t\t\n      POP \t\t\t\n      POP \t\t\t\n      POP \t\t\t\n      POP \t\t\t\n      JUMP \t\t\t\n    tag 151\t\t\t\n      JUMPDEST \t\t\t\n      PUSH 0\t\t\t\n      SWAP1 \t\t\t\n      JUMP \t\t\t\n    tag 152\t\t\t\n      JUMPDEST \t\t\t\n      PUSH [tag] 332\t\t\t\n      PUSH [tag] 151\t\t\t\n      JUMP \t\t\t\n    tag 332\t\t\t\n      JUMPDEST \t\t\t\n      PUSH [tag] 333\t\t\t\n      DUP2 \t\t\t\n      DUP5 \t\t\t\n      DUP5 \t\t\t\n      PUSH [tag] 150\t\t\t\n      JUMP \t\t\t\n    tag 333\t\t\t\n      JUMPDEST \t\t\t\n      POP \t\t\t\n      POP \t\t\t\n      POP \t\t\t\n      JUMP \t\t\t\n    tag 153\t\t\t\n      JUMPDEST \t\t\t\n    tag 335\t\t\t\n      JUMPDEST \t\t\t\n      DUP2 \t\t\t\n      DUP2 \t\t\t\n      LT \t\t\t\n      ISZERO \t\t\t\n      PUSH [tag] 337\t\t\t\n      JUMPI \t\t\t\n      PUSH [tag] 338\t\t\t\n      PUSH 0\t\t\t\n      DUP3 \t\t\t\n      PUSH [tag] 152\t\t\t\n      JUMP \t\t\t\n    tag 338\t\t\t\n      JUMPDEST \t\t\t\n      PUSH 1\t\t\t\n      DUP2 \t\t\t\n      ADD \t\t\t\n      SWAP1 \t\t\t\n      POP \t\t\t\n      PUSH [tag] 335\t\t\t\n      JUMP \t\t\t\n    tag 337\t\t\t\n      JUMPDEST \t\t\t\n      POP \t\t\t\n      POP \t\t\t\n      JUMP \t\t\t\n    tag 154\t\t\t\n      JUMPDEST \t\t\t\n      PUSH 1F\t\t\t\n      DUP3 \t\t\t\n      GT \t\t\t\n      ISZERO \t\t\t\n      PUSH [tag] 340\t\t\t\n      JUMPI \t\t\t\n      PUSH [tag] 341\t\t\t\n      DUP2 \t\t\t\n      PUSH [tag] 143\t\t\t\n      JUMP \t\t\t\n    tag 341\t\t\t\n      JUMPDEST \t\t\t\n      PUSH [tag] 342\t\t\t\n      DUP5 \t\t\t\n      PUSH [tag] 144\t\t\t\n      JUMP \t\t\t\n    tag 342\t\t\t\n      JUMPDEST \t\t\t\n      DUP2 \t\t\t\n      ADD \t\t\t\n      PUSH 20\t\t\t\n      DUP6 \t\t\t\n      LT \t\t\t\n      ISZERO \t\t\t\n      PUSH [tag] 343\t\t\t\n      JUMPI \t\t\t\n      DUP2 \t\t\t\n      SWAP1 \t\t\t\n      POP \t\t\t\n    tag 343\t\t\t\n      JUMPDEST \t\t\t\n      PUSH [tag] 344\t\t\t\n      PUSH [tag] 345\t\t\t\n      DUP6 \t\t\t\n      PUSH [tag] 144\t\t\t\n      JUMP \t\t\t\n    tag 345\t\t\t\n      JUMPDEST \t\t\t\n      DUP4 \t\t\t\n      ADD \t\t\t\n      DUP3 \t\t\t\n      PUSH [tag] 153\t\t\t\n      JUMP \t\t\t\n    tag 344\t\t\t\n      JUMPDEST \t\t\t\n      POP \t\t\t\n      POP \t\t\t\n    tag 340\t\t\t\n      JUMPDEST \t\t\t\n      POP \t\t\t\n      POP \t\t\t\n      POP \t\t\t\n      JUMP \t\t\t\n    tag 155\t\t\t\n      JUMPDEST \t\t\t\n      PUSH 0\t\t\t\n      DUP3 \t\t\t\n      DUP3 \t\t\t\n      SHR \t\t\t\n      SWAP1 \t\t\t\n      POP \t\t\t\n      SWAP3 \t\t\t\n      SWAP2 \t\t\t\n      POP \t\t\t\n      POP \t\t\t\n      JUMP \t\t\t\n    tag 156\t\t\t\n      JUMPDEST \t\t\t\n      PUSH 0\t\t\t\n      PUSH [tag] 348\t\t\t\n      PUSH 0\t\t\t\n      NOT \t\t\t\n      DUP5 \t\t\t\n      PUSH 8\t\t\t\n      MUL \t\t\t\n      PUSH [tag] 155\t\t\t\n      JUMP \t\t\t\n    tag 348\t\t\t\n      JUMPDEST \t\t\t\n      NOT \t\t\t\n      DUP1 \t\t\t\n      DUP4 \t\t\t\n      AND \t\t\t\n      SWAP2 \t\t\t\n      POP \t\t\t\n      POP \t\t\t\n      SWAP3 \t\t\t\n      SWAP2 \t\t\t\n      POP \t\t\t\n      POP \t\t\t\n      JUMP \t\t\t\n    tag 157\t\t\t\n      JUMPDEST \t\t\t\n      PUSH 0\t\t\t\n      PUSH [tag] 350\t\t\t\n      DUP4 \t\t\t\n      DUP4 \t\t\t\n      PUSH [tag] 156\t\t\t\n      JUMP \t\t\t\n    tag 350\t\t\t\n      JUMPDEST \t\t\t\n      SWAP2 \t\t\t\n      POP \t\t\t\n      DUP3 \t\t\t\n      PUSH 2\t\t\t\n      MUL \t\t\t\n      DUP3 \t\t\t\n      OR \t\t\t\n      SWAP1 \t\t\t\n      POP \t\t\t\n      SWAP3 \t\t\t\n      SWAP2 \t\t\t\n      POP \t\t\t\n      POP \t\t\t\n      JUMP \t\t\t\n    tag 78\t\t\t\n      JUMPDEST \t\t\t\n      PUSH [tag] 352\t\t\t\n      DUP3 \t\t\t\n      PUSH [tag] 109\t\t\t\n      JUMP \t\t\t\n    tag 352\t\t\t\n      JUMPDEST \t\t\t\n      PUSH FFFFFFFFFFFFFFFF\t\t\t\n      DUP2 \t\t\t\n      GT \t\t\t\n      ISZERO \t\t\t\n      PUSH [tag] 353\t\t\t\n      JUMPI \t\t\t\n      PUSH [tag] 354\t\t\t\n      PUSH [tag] 116\t\t\t\n      JUMP \t\t\t\n    tag 354\t\t\t\n      JUMPDEST \t\t\t\n    tag 353\t\t\t\n      JUMPDEST \t\t\t\n      PUSH [tag] 355\t\t\t\n      DUP3 \t\t\t\n      SLOAD \t\t\t\n      PUSH [tag] 48\t\t\t\n      JUMP \t\t\t\n    tag 355\t\t\t\n      JUMPDEST \t\t\t\n      PUSH [tag] 356\t\t\t\n      DUP3 \t\t\t\n      DUP3 \t\t\t\n      DUP6 \t\t\t\n      PUSH [tag] 154\t\t\t\n      JUMP \t\t\t\n    tag 356\t\t\t\n      JUMPDEST \t\t\t\n      PUSH 0\t\t\t\n      PUSH 20\t\t\t\n      SWAP1 \t\t\t\n      POP \t\t\t\n      PUSH 1F\t\t\t\n      DUP4 \t\t\t\n      GT \t\t\t\n      PUSH 1\t\t\t\n      DUP2 \t\t\t\n      EQ \t\t\t\n      PUSH [tag] 358\t\t\t\n      JUMPI \t\t\t\n      PUSH 0\t\t\t\n      DUP5 \t\t\t\n      ISZERO \t\t\t\n      PUSH [tag] 359\t\t\t\n      JUMPI \t\t\t\n      DUP3 \t\t\t\n      DUP8 \t\t\t\n      ADD \t\t\t\n      MLOAD \t\t\t\n      SWAP1 \t\t\t\n      POP \t\t\t\n    tag 359\t\t\t\n      JUMPDEST \t\t\t\n      PUSH [tag] 360\t\t\t\n      DUP6 \t\t\t\n      DUP3 \t\t\t\n      PUSH [tag] 157\t\t\t\n      JUMP \t\t\t\n    tag 360\t\t\t\n      JUMPDEST \t\t\t\n      DUP7 \t\t\t\n      SSTORE \t\t\t\n      POP \t\t\t\n      PUSH [tag] 357\t\t\t\n      JUMP \t\t\t\n    tag 358\t\t\t\n      JUMPDEST \t\t\t\n      PUSH 1F\t\t\t\n      NOT \t\t\t\n      DUP5 \t\t\t\n      AND \t\t\t\n      PUSH [tag] 361\t\t\t\n      DUP7 \t\t\t\n      PUSH [tag] 143\t\t\t\n      JUMP \t\t\t\n    tag 361\t\t\t\n      JUMPDEST \t\t\t\n      PUSH 0\t\t\t\n    tag 362\t\t\t\n      JUMPDEST \t\t\t\n      DUP3 \t\t\t\n      DUP2 \t\t\t\n      LT \t\t\t\n      ISZERO \t\t\t\n      PUSH [tag] 364\t\t\t\n      JUMPI \t\t\t\n      DUP5 \t\t\t\n      DUP10 \t\t\t\n      ADD \t\t\t\n      MLOAD \t\t\t\n      DUP3 \t\t\t\n      SSTORE \t\t\t\n      PUSH 1\t\t\t\n      DUP3 \t\t\t\n      ADD \t\t\t\n      SWAP2 \t\t\t\n      POP \t\t\t\n      PUSH 20\t\t\t\n      DUP6 \t\t\t\n      ADD \t\t\t\n      SWAP5 \t\t\t\n      POP \t\t\t\n      PUSH 20\t\t\t\n      DUP2 \t\t\t\n      ADD \t\t\t\n      SWAP1 \t\t\t\n      POP \t\t\t\n      PUSH [tag] 362\t\t\t\n      JUMP \t\t\t\n    tag 364\t\t\t\n      JUMPDEST \t\t\t\n      DUP7 \t\t\t\n      DUP4 \t\t\t\n      LT \t\t\t\n      ISZERO \t\t\t\n      PUSH [tag] 365\t\t\t\n      JUMPI \t\t\t\n      DUP5 \t\t\t\n      DUP10 \t\t\t\n      ADD \t\t\t\n      MLOAD \t\t\t\n      PUSH [tag] 366\t\t\t\n      PUSH 1F\t\t\t\n      DUP10 \t\t\t\n      AND \t\t\t\n      DUP3 \t\t\t\n      PUSH [tag] 156\t\t\t\n      JUMP \t\t\t\n    tag 366\t\t\t\n      JUMPDEST \t\t\t\n      DUP4 \t\t\t\n      SSTORE \t\t\t\n      POP \t\t\t\n    tag 365\t\t\t\n      JUMPDEST \t\t\t\n      PUSH 1\t\t\t\n      PUSH 2\t\t\t\n      DUP9 \t\t\t\n      MUL \t\t\t\n      ADD \t\t\t\n      DUP9 \t\t\t\n      SSTORE \t\t\t\n      POP \t\t\t\n      POP \t\t\t\n      POP \t\t\t\n    tag 357\t\t\t\n      JUMPDEST \t\t\t\n      POP \t\t\t\n      POP \t\t\t\n      POP \t\t\t\n      POP \t\t\t\n      POP \t\t\t\n      POP \t\t\t\n      JUMP \t\t\t\n    tag 158\t\t\t\n      JUMPDEST \t\t\t\n      PUSH 0\t\t\t\n      DUP2 \t\t\t\n      SLOAD \t\t\t\n      PUSH [tag] 368\t\t\t\n      DUP2 \t\t\t\n      PUSH [tag] 48\t\t\t\n      JUMP \t\t\t\n    tag 368\t\t\t\n      JUMPDEST \t\t\t\n      PUSH [tag] 369\t\t\t\n      DUP2 \t\t\t\n      DUP7 \t\t\t\n      PUSH [tag] 110\t\t\t\n      JUMP \t\t\t\n    tag 369\t\t\t\n      JUMPDEST \t\t\t\n      SWAP5 \t\t\t\n      POP \t\t\t\n      PUSH 1\t\t\t\n      DUP3 \t\t\t\n      AND \t\t\t\n      PUSH 0\t\t\t\n      DUP2 \t\t\t\n      EQ \t\t\t\n      PUSH [tag] 371\t\t\t\n      JUMPI \t\t\t\n      PUSH 1\t\t\t\n      DUP2 \t\t\t\n      EQ \t\t\t\n      PUSH [tag] 372\t\t\t\n      JUMPI \t\t\t\n      PUSH [tag] 370\t\t\t\n      JUMP \t\t\t\n    tag 371\t\t\t\n      JUMPDEST \t\t\t\n      PUSH FF\t\t\t\n      NOT \t\t\t\n      DUP4 \t\t\t\n      AND \t\t\t\n      DUP7 \t\t\t\n      MSTORE \t\t\t\n      DUP2 \t\t\t\n      ISZERO \t\t\t\n      ISZERO \t\t\t\n      PUSH 20\t\t\t\n      MUL \t\t\t\n      DUP7 \t\t\t\n      ADD \t\t\t\n      SWAP4 \t\t\t\n      POP \t\t\t\n      PUSH [tag] 370\t\t\t\n      JUMP \t\t\t\n    tag 372\t\t\t\n      JUMPDEST \t\t\t\n      PUSH [tag] 373\t\t\t\n      DUP6 \t\t\t\n      PUSH [tag] 143\t\t\t\n      JUMP \t\t\t\n    tag 373\t\t\t\n      JUMPDEST \t\t\t\n      PUSH 0\t\t\t\n    tag 374\t\t\t\n      JUMPDEST \t\t\t\n      DUP4 \t\t\t\n      DUP2 \t\t\t\n      LT \t\t\t\n      ISZERO \t\t\t\n      PUSH [tag] 376\t\t\t\n      JUMPI \t\t\t\n      DUP2 \t\t\t\n      SLOAD \t\t\t\n      DUP2 \t\t\t\n      DUP10 \t\t\t\n      ADD \t\t\t\n      MSTORE \t\t\t\n      PUSH 1\t\t\t\n      DUP3 \t\t\t\n      ADD \t\t\t\n      SWAP2 \t\t\t\n      POP \t\t\t\n      PUSH 20\t\t\t\n      DUP2 \t\t\t\n      ADD \t\t\t\n      SWAP1 \t\t\t\n      POP \t\t\t\n      PUSH [tag] 374\t\t\t\n      JUMP \t\t\t\n    tag 376\t\t\t\n      JUMPDEST \t\t\t\n      DUP1 \t\t\t\n      DUP9 \t\t\t\n      ADD \t\t\t\n      SWAP6 \t\t\t\n      POP \t\t\t\n      POP \t\t\t\n      POP \t\t\t\n    tag 370\t\t\t\n      JUMPDEST \t\t\t\n      POP \t\t\t\n      POP \t\t\t\n      POP \t\t\t\n      SWAP3 \t\t\t\n      SWAP2 \t\t\t\n      POP \t\t\t\n      POP \t\t\t\n      JUMP \t\t\t\n    tag 80\t\t\t\n      JUMPDEST \t\t\t\n      PUSH 0\t\t\t\n      PUSH 60\t\t\t\n      DUP3 \t\t\t\n      ADD \t\t\t\n      SWAP1 \t\t\t\n      POP \t\t\t\n      PUSH [tag] 378\t\t\t\n      PUSH 0\t\t\t\n      DUP4 \t\t\t\n      ADD \t\t\t\n      DUP7 \t\t\t\n      PUSH [tag] 108\t\t\t\n      JUMP \t\t\t\n    tag 378\t\t\t\n      JUMPDEST \t\t\t\n      DUP2 \t\t\t\n      DUP2 \t\t\t\n      SUB \t\t\t\n      PUSH 20\t\t\t\n      DUP4 \t\t\t\n      ADD \t\t\t\n      MSTORE \t\t\t\n      PUSH [tag] 379\t\t\t\n      DUP2 \t\t\t\n      DUP6 \t\t\t\n      PUSH [tag] 158\t\t\t\n      JUMP \t\t\t\n    tag 379\t\t\t\n      JUMPDEST \t\t\t\n      SWAP1 \t\t\t\n      POP \t\t\t\n      PUSH [tag] 380\t\t\t\n      PUSH 40\t\t\t\n      DUP4 \t\t\t\n      ADD \t\t\t\n      DUP5 \t\t\t\n      PUSH [tag] 108\t\t\t\n      JUMP \t\t\t\n    tag 380\t\t\t\n      JUMPDEST \t\t\t\n      SWAP5 \t\t\t\n      SWAP4 \t\t\t\n      POP \t\t\t\n      POP \t\t\t\n      POP \t\t\t\n      POP \t\t\t\n      JUMP \t\t\t\n    tag 93\t\t\t\n      JUMPDEST \t\t\t\n      PUSH 0\t\t\t\n      PUSH [tag] 382\t\t\t\n      DUP3 \t\t\t\n      PUSH [tag] 105\t\t\t\n      JUMP \t\t\t\n    tag 382\t\t\t\n      JUMPDEST \t\t\t\n      SWAP2 \t\t\t\n      POP \t\t\t\n      PUSH FFFFFFFFFFFFFFFFFFFFFFFFFFFFFFFFFFFFFFFFFFFFFFFFFFFFFFFFFFFFFFFF\t\t\t\n      DUP3 \t\t\t\n      SUB \t\t\t\n      PUSH [tag] 383\t\t\t\n      JUMPI \t\t\t\n      PUSH [tag] 384\t\t\t\n      PUSH [tag] 138\t\t\t\n      JUMP \t\t\t\n    tag 384\t\t\t\n      JUMPDEST \t\t\t\n    tag 383\t\t\t\n      JUMPDEST \t\t\t\n      PUSH 1\t\t\t\n      DUP3 \t\t\t\n      ADD \t\t\t\n      SWAP1 \t\t\t\n      POP \t\t\t\n      SWAP2 \t\t\t\n      SWAP1 \t\t\t\n      POP \t\t\t\n      JUMP \t\t\t\n    .data\n"
}